{
  "address": "0xF39Cc5a1f1adA029de8C7F18D4687B438dEa45a2",
  "abi": [
    {
      "inputs": [
        {
          "internalType": "address",
          "name": "treasury",
          "type": "address"
        },
        {
          "internalType": "address",
          "name": "creatorLinker",
          "type": "address"
        }
      ],
      "stateMutability": "nonpayable",
      "type": "constructor"
    },
    {
      "inputs": [],
      "name": "AccessControlBadConfirmation",
      "type": "error"
    },
    {
      "inputs": [
        {
          "internalType": "uint48",
          "name": "schedule",
          "type": "uint48"
        }
      ],
      "name": "AccessControlEnforcedDefaultAdminDelay",
      "type": "error"
    },
    {
      "inputs": [],
      "name": "AccessControlEnforcedDefaultAdminRules",
      "type": "error"
    },
    {
      "inputs": [
        {
          "internalType": "address",
          "name": "defaultAdmin",
          "type": "address"
        }
      ],
      "name": "AccessControlInvalidDefaultAdmin",
      "type": "error"
    },
    {
      "inputs": [
        {
          "internalType": "address",
          "name": "account",
          "type": "address"
        },
        {
          "internalType": "bytes32",
          "name": "neededRole",
          "type": "bytes32"
        }
      ],
      "name": "AccessControlUnauthorizedAccount",
      "type": "error"
    },
    {
      "inputs": [
        {
          "internalType": "address",
          "name": "account",
          "type": "address"
        }
      ],
      "name": "AddressInsufficientBalance",
      "type": "error"
    },
    {
      "inputs": [],
      "name": "FailedInnerCall",
      "type": "error"
    },
    {
      "inputs": [],
      "name": "InvalidAddress",
      "type": "error"
    },
    {
      "inputs": [],
      "name": "InvalidAmount",
      "type": "error"
    },
    {
      "inputs": [],
      "name": "InvalidCreator",
      "type": "error"
    },
    {
      "inputs": [],
      "name": "InvalidFeeParams",
      "type": "error"
    },
    {
      "inputs": [],
      "name": "NotEnoughCreditsOwned",
      "type": "error"
    },
    {
      "inputs": [],
      "name": "NotEnoughEthSent",
      "type": "error"
    },
    {
      "inputs": [],
      "name": "ReentrancyGuardReentrantCall",
      "type": "error"
    },
    {
      "inputs": [
        {
          "internalType": "uint8",
          "name": "bits",
          "type": "uint8"
        },
        {
          "internalType": "uint256",
          "name": "value",
          "type": "uint256"
        }
      ],
      "name": "SafeCastOverflowedUintDowncast",
      "type": "error"
    },
    {
      "anonymous": false,
      "inputs": [
        {
          "indexed": true,
          "internalType": "address",
          "name": "creator",
          "type": "address"
        },
        {
          "indexed": false,
          "internalType": "uint256",
          "name": "amount",
          "type": "uint256"
        }
      ],
      "name": "CreatorFeeClaimed",
      "type": "event"
    },
    {
      "anonymous": false,
      "inputs": [
        {
          "indexed": false,
          "internalType": "string",
          "name": "visibilityId",
          "type": "string"
        },
        {
          "indexed": false,
          "internalType": "address",
          "name": "creator",
          "type": "address"
        }
      ],
      "name": "CreatorVisibilitySet",
      "type": "event"
    },
    {
      "anonymous": false,
      "inputs": [
        {
          "components": [
            {
              "internalType": "address",
              "name": "from",
              "type": "address"
            },
            {
              "internalType": "string",
              "name": "visibilityId",
              "type": "string"
            },
            {
              "internalType": "uint256",
              "name": "amount",
              "type": "uint256"
            },
            {
              "internalType": "bool",
              "name": "isBuy",
              "type": "bool"
            },
            {
              "internalType": "uint256",
              "name": "tradeCost",
              "type": "uint256"
            },
            {
              "internalType": "uint256",
              "name": "creatorFee",
              "type": "uint256"
            },
            {
              "internalType": "uint256",
              "name": "protocolFee",
              "type": "uint256"
            },
            {
              "internalType": "uint256",
              "name": "referrerFee",
              "type": "uint256"
            },
            {
              "internalType": "address",
              "name": "referrer",
              "type": "address"
            },
            {
              "internalType": "uint256",
              "name": "newTotalSupply",
              "type": "uint256"
            },
            {
              "internalType": "uint256",
              "name": "newCurrentPrice",
              "type": "uint256"
            }
          ],
          "indexed": false,
          "internalType": "struct IVisibilityCredits.CreditsTradeEvent",
          "name": "tradeEvent",
          "type": "tuple"
        }
      ],
      "name": "CreditsTrade",
      "type": "event"
    },
    {
      "anonymous": false,
      "inputs": [
        {
          "indexed": false,
          "internalType": "string",
          "name": "visibilityId",
          "type": "string"
        },
        {
          "indexed": true,
          "internalType": "address",
          "name": "from",
          "type": "address"
        },
        {
          "indexed": true,
          "internalType": "address",
          "name": "to",
          "type": "address"
        },
        {
          "indexed": false,
          "internalType": "uint256",
          "name": "amount",
          "type": "uint256"
        }
      ],
      "name": "CreditsTransfer",
      "type": "event"
    },
    {
      "anonymous": false,
      "inputs": [],
      "name": "DefaultAdminDelayChangeCanceled",
      "type": "event"
    },
    {
      "anonymous": false,
      "inputs": [
        {
          "indexed": false,
          "internalType": "uint48",
          "name": "newDelay",
          "type": "uint48"
        },
        {
          "indexed": false,
          "internalType": "uint48",
          "name": "effectSchedule",
          "type": "uint48"
        }
      ],
      "name": "DefaultAdminDelayChangeScheduled",
      "type": "event"
    },
    {
      "anonymous": false,
      "inputs": [],
      "name": "DefaultAdminTransferCanceled",
      "type": "event"
    },
    {
      "anonymous": false,
      "inputs": [
        {
          "indexed": true,
          "internalType": "address",
          "name": "newAdmin",
          "type": "address"
        },
        {
          "indexed": false,
          "internalType": "uint48",
          "name": "acceptSchedule",
          "type": "uint48"
        }
      ],
      "name": "DefaultAdminTransferScheduled",
      "type": "event"
    },
    {
      "anonymous": false,
      "inputs": [
        {
          "indexed": true,
          "internalType": "bytes32",
          "name": "role",
          "type": "bytes32"
        },
        {
          "indexed": true,
          "internalType": "bytes32",
          "name": "previousAdminRole",
          "type": "bytes32"
        },
        {
          "indexed": true,
          "internalType": "bytes32",
          "name": "newAdminRole",
          "type": "bytes32"
        }
      ],
      "name": "RoleAdminChanged",
      "type": "event"
    },
    {
      "anonymous": false,
      "inputs": [
        {
          "indexed": true,
          "internalType": "bytes32",
          "name": "role",
          "type": "bytes32"
        },
        {
          "indexed": true,
          "internalType": "address",
          "name": "account",
          "type": "address"
        },
        {
          "indexed": true,
          "internalType": "address",
          "name": "sender",
          "type": "address"
        }
      ],
      "name": "RoleGranted",
      "type": "event"
    },
    {
      "anonymous": false,
      "inputs": [
        {
          "indexed": true,
          "internalType": "bytes32",
          "name": "role",
          "type": "bytes32"
        },
        {
          "indexed": true,
          "internalType": "address",
          "name": "account",
          "type": "address"
        },
        {
          "indexed": true,
          "internalType": "address",
          "name": "sender",
          "type": "address"
        }
      ],
      "name": "RoleRevoked",
      "type": "event"
    },
    {
      "inputs": [],
      "name": "A",
      "outputs": [
        {
          "internalType": "uint256",
          "name": "",
          "type": "uint256"
        }
      ],
      "stateMutability": "view",
      "type": "function"
    },
    {
      "inputs": [],
      "name": "B",
      "outputs": [
        {
          "internalType": "uint256",
          "name": "",
          "type": "uint256"
        }
      ],
      "stateMutability": "view",
      "type": "function"
    },
    {
      "inputs": [],
      "name": "BASE_PRICE",
      "outputs": [
        {
          "internalType": "uint256",
          "name": "",
          "type": "uint256"
        }
      ],
      "stateMutability": "view",
      "type": "function"
    },
    {
      "inputs": [],
      "name": "CREATORS_CHECKER_ROLE",
      "outputs": [
        {
          "internalType": "bytes32",
          "name": "",
          "type": "bytes32"
        }
      ],
      "stateMutability": "view",
      "type": "function"
    },
    {
      "inputs": [],
      "name": "CREATOR_FEE",
      "outputs": [
        {
          "internalType": "uint256",
          "name": "",
          "type": "uint256"
        }
      ],
      "stateMutability": "view",
      "type": "function"
    },
    {
      "inputs": [],
      "name": "CREDITS_TRANSFER_ROLE",
      "outputs": [
        {
          "internalType": "bytes32",
          "name": "",
          "type": "bytes32"
        }
      ],
      "stateMutability": "view",
      "type": "function"
    },
    {
      "inputs": [],
      "name": "DEFAULT_ADMIN_ROLE",
      "outputs": [
        {
          "internalType": "bytes32",
          "name": "",
          "type": "bytes32"
        }
      ],
      "stateMutability": "view",
      "type": "function"
    },
    {
      "inputs": [],
      "name": "FEE_DENOMINATOR",
      "outputs": [
        {
          "internalType": "uint256",
          "name": "",
          "type": "uint256"
        }
      ],
      "stateMutability": "view",
      "type": "function"
    },
    {
      "inputs": [],
      "name": "MAX_TOTAL_SUPPLY",
      "outputs": [
        {
          "internalType": "uint256",
          "name": "",
          "type": "uint256"
        }
      ],
      "stateMutability": "view",
      "type": "function"
    },
    {
      "inputs": [],
      "name": "PROTOCOL_FEE",
      "outputs": [
        {
          "internalType": "uint256",
          "name": "",
          "type": "uint256"
        }
      ],
      "stateMutability": "view",
      "type": "function"
    },
    {
      "inputs": [],
      "name": "REFERRER_FEE",
      "outputs": [
        {
          "internalType": "uint256",
          "name": "",
          "type": "uint256"
        }
      ],
      "stateMutability": "view",
      "type": "function"
    },
    {
      "inputs": [],
      "name": "acceptDefaultAdminTransfer",
      "outputs": [],
      "stateMutability": "nonpayable",
      "type": "function"
    },
    {
      "inputs": [
        {
          "internalType": "address",
          "name": "newAdmin",
          "type": "address"
        }
      ],
      "name": "beginDefaultAdminTransfer",
      "outputs": [],
      "stateMutability": "nonpayable",
      "type": "function"
    },
    {
      "inputs": [
        {
          "internalType": "string",
          "name": "visibilityId",
          "type": "string"
        },
        {
          "internalType": "uint256",
          "name": "amount",
          "type": "uint256"
        },
        {
          "internalType": "address",
          "name": "referrer",
          "type": "address"
        }
      ],
      "name": "buyCostWithFees",
      "outputs": [
        {
          "internalType": "uint256",
          "name": "totalCost",
          "type": "uint256"
        },
        {
          "internalType": "uint256",
          "name": "tradeCost",
          "type": "uint256"
        },
        {
          "internalType": "uint256",
          "name": "creatorFee",
          "type": "uint256"
        },
        {
          "internalType": "uint256",
          "name": "protocolFee",
          "type": "uint256"
        },
        {
          "internalType": "uint256",
          "name": "referrerFee",
          "type": "uint256"
        }
      ],
      "stateMutability": "view",
      "type": "function"
    },
    {
      "inputs": [
        {
          "internalType": "string",
          "name": "visibilityId",
          "type": "string"
        },
        {
          "internalType": "uint256",
          "name": "amount",
          "type": "uint256"
        },
        {
          "internalType": "address",
          "name": "referrer",
          "type": "address"
        }
      ],
      "name": "buyCredits",
      "outputs": [],
      "stateMutability": "payable",
      "type": "function"
    },
    {
      "inputs": [],
      "name": "cancelDefaultAdminTransfer",
      "outputs": [],
      "stateMutability": "nonpayable",
      "type": "function"
    },
    {
      "inputs": [
        {
          "internalType": "uint48",
          "name": "newDelay",
          "type": "uint48"
        }
      ],
      "name": "changeDefaultAdminDelay",
      "outputs": [],
      "stateMutability": "nonpayable",
      "type": "function"
    },
    {
      "inputs": [
        {
          "internalType": "string",
          "name": "visibilityId",
          "type": "string"
        }
      ],
      "name": "claimCreatorFee",
      "outputs": [],
      "stateMutability": "nonpayable",
      "type": "function"
    },
    {
      "inputs": [],
      "name": "defaultAdmin",
      "outputs": [
        {
          "internalType": "address",
          "name": "",
          "type": "address"
        }
      ],
      "stateMutability": "view",
      "type": "function"
    },
    {
      "inputs": [],
      "name": "defaultAdminDelay",
      "outputs": [
        {
          "internalType": "uint48",
          "name": "",
          "type": "uint48"
        }
      ],
      "stateMutability": "view",
      "type": "function"
    },
    {
      "inputs": [],
      "name": "defaultAdminDelayIncreaseWait",
      "outputs": [
        {
          "internalType": "uint48",
          "name": "",
          "type": "uint48"
        }
      ],
      "stateMutability": "view",
      "type": "function"
    },
    {
      "inputs": [
        {
          "internalType": "bytes32",
          "name": "role",
          "type": "bytes32"
        }
      ],
      "name": "getRoleAdmin",
      "outputs": [
        {
          "internalType": "bytes32",
          "name": "",
          "type": "bytes32"
        }
      ],
      "stateMutability": "view",
      "type": "function"
    },
    {
      "inputs": [
        {
          "internalType": "string",
          "name": "visibilityId",
          "type": "string"
        }
      ],
      "name": "getVisibility",
      "outputs": [
        {
          "internalType": "address",
          "name": "creator",
          "type": "address"
        },
        {
          "internalType": "uint256",
          "name": "totalSupply",
          "type": "uint256"
        },
        {
          "internalType": "uint256",
          "name": "claimableFeeBalance",
          "type": "uint256"
        }
      ],
      "stateMutability": "view",
      "type": "function"
    },
    {
      "inputs": [
        {
          "internalType": "string",
          "name": "visibilityId",
          "type": "string"
        },
        {
          "internalType": "address",
          "name": "account",
          "type": "address"
        }
      ],
      "name": "getVisibilityCreditBalance",
      "outputs": [
        {
          "internalType": "uint256",
          "name": "",
          "type": "uint256"
        }
      ],
      "stateMutability": "view",
      "type": "function"
    },
    {
      "inputs": [
        {
          "internalType": "string",
          "name": "visibilityId",
          "type": "string"
        }
      ],
      "name": "getVisibilityCurrentPrice",
      "outputs": [
        {
          "internalType": "uint256",
          "name": "",
          "type": "uint256"
        }
      ],
      "stateMutability": "view",
      "type": "function"
    },
    {
      "inputs": [
        {
          "internalType": "string",
          "name": "visibilityId",
          "type": "string"
        }
      ],
      "name": "getVisibilityKey",
      "outputs": [
        {
          "internalType": "bytes32",
          "name": "",
          "type": "bytes32"
        }
      ],
      "stateMutability": "pure",
      "type": "function"
    },
    {
      "inputs": [
        {
          "internalType": "address",
          "name": "grantee",
          "type": "address"
        }
      ],
      "name": "grantCreatorTransferRole",
      "outputs": [],
      "stateMutability": "nonpayable",
      "type": "function"
    },
    {
      "inputs": [
        {
          "internalType": "bytes32",
          "name": "role",
          "type": "bytes32"
        },
        {
          "internalType": "address",
          "name": "account",
          "type": "address"
        }
      ],
      "name": "grantRole",
      "outputs": [],
      "stateMutability": "nonpayable",
      "type": "function"
    },
    {
      "inputs": [
        {
          "internalType": "bytes32",
          "name": "role",
          "type": "bytes32"
        },
        {
          "internalType": "address",
          "name": "account",
          "type": "address"
        }
      ],
      "name": "hasRole",
      "outputs": [
        {
          "internalType": "bool",
          "name": "",
          "type": "bool"
        }
      ],
      "stateMutability": "view",
      "type": "function"
    },
    {
      "inputs": [],
      "name": "owner",
      "outputs": [
        {
          "internalType": "address",
          "name": "",
          "type": "address"
        }
      ],
      "stateMutability": "view",
      "type": "function"
    },
    {
      "inputs": [],
      "name": "pendingDefaultAdmin",
      "outputs": [
        {
          "internalType": "address",
          "name": "newAdmin",
          "type": "address"
        },
        {
          "internalType": "uint48",
          "name": "schedule",
          "type": "uint48"
        }
      ],
      "stateMutability": "view",
      "type": "function"
    },
    {
      "inputs": [],
      "name": "pendingDefaultAdminDelay",
      "outputs": [
        {
          "internalType": "uint48",
          "name": "newDelay",
          "type": "uint48"
        },
        {
          "internalType": "uint48",
          "name": "schedule",
          "type": "uint48"
        }
      ],
      "stateMutability": "view",
      "type": "function"
    },
    {
      "inputs": [],
      "name": "protocolTreasury",
      "outputs": [
        {
          "internalType": "address payable",
          "name": "",
          "type": "address"
        }
      ],
      "stateMutability": "view",
      "type": "function"
    },
    {
      "inputs": [
        {
          "internalType": "bytes32",
          "name": "role",
          "type": "bytes32"
        },
        {
          "internalType": "address",
          "name": "account",
          "type": "address"
        }
      ],
      "name": "renounceRole",
      "outputs": [],
      "stateMutability": "nonpayable",
      "type": "function"
    },
    {
      "inputs": [
        {
          "internalType": "bytes32",
          "name": "role",
          "type": "bytes32"
        },
        {
          "internalType": "address",
          "name": "account",
          "type": "address"
        }
      ],
      "name": "revokeRole",
      "outputs": [],
      "stateMutability": "nonpayable",
      "type": "function"
    },
    {
      "inputs": [],
      "name": "rollbackDefaultAdminDelay",
      "outputs": [],
      "stateMutability": "nonpayable",
      "type": "function"
    },
    {
      "inputs": [
        {
          "internalType": "string",
          "name": "visibilityId",
          "type": "string"
        },
        {
          "internalType": "uint256",
          "name": "amount",
          "type": "uint256"
        },
        {
          "internalType": "address",
          "name": "referrer",
          "type": "address"
        }
      ],
      "name": "sellCostWithFees",
      "outputs": [
        {
          "internalType": "uint256",
          "name": "reimbursement",
          "type": "uint256"
        },
        {
          "internalType": "uint256",
          "name": "tradeCost",
          "type": "uint256"
        },
        {
          "internalType": "uint256",
          "name": "creatorFee",
          "type": "uint256"
        },
        {
          "internalType": "uint256",
          "name": "protocolFee",
          "type": "uint256"
        },
        {
          "internalType": "uint256",
          "name": "referrerFee",
          "type": "uint256"
        }
      ],
      "stateMutability": "view",
      "type": "function"
    },
    {
      "inputs": [
        {
          "internalType": "string",
          "name": "visibilityId",
          "type": "string"
        },
        {
          "internalType": "uint256",
          "name": "amount",
          "type": "uint256"
        },
        {
          "internalType": "address",
          "name": "referrer",
          "type": "address"
        }
      ],
      "name": "sellCredits",
      "outputs": [],
      "stateMutability": "nonpayable",
      "type": "function"
    },
    {
      "inputs": [
        {
          "internalType": "string",
          "name": "visibilityId",
          "type": "string"
        },
        {
          "internalType": "address",
          "name": "creator",
          "type": "address"
        }
      ],
      "name": "setCreatorVisibility",
      "outputs": [],
      "stateMutability": "nonpayable",
      "type": "function"
    },
    {
      "inputs": [
        {
          "internalType": "bytes4",
          "name": "interfaceId",
          "type": "bytes4"
        }
      ],
      "name": "supportsInterface",
      "outputs": [
        {
          "internalType": "bool",
          "name": "",
          "type": "bool"
        }
      ],
      "stateMutability": "view",
      "type": "function"
    },
    {
      "inputs": [
        {
          "internalType": "string",
          "name": "visibilityId",
          "type": "string"
        },
        {
          "internalType": "address",
          "name": "from",
          "type": "address"
        },
        {
          "internalType": "address",
          "name": "to",
          "type": "address"
        },
        {
          "internalType": "uint256",
          "name": "amount",
          "type": "uint256"
        }
      ],
      "name": "transferCredits",
      "outputs": [],
      "stateMutability": "nonpayable",
      "type": "function"
    },
    {
      "inputs": [
        {
          "internalType": "address",
          "name": "treasury",
          "type": "address"
        }
      ],
      "name": "updateTreasury",
      "outputs": [],
      "stateMutability": "nonpayable",
      "type": "function"
    },
    {
      "inputs": [
        {
          "internalType": "bytes32",
          "name": "",
          "type": "bytes32"
        }
      ],
      "name": "visibilityCredits",
      "outputs": [
        {
          "internalType": "address",
          "name": "creator",
          "type": "address"
        },
        {
          "internalType": "uint256",
          "name": "totalSupply",
          "type": "uint256"
        },
        {
          "internalType": "uint256",
          "name": "claimableFeeBalance",
          "type": "uint256"
        }
      ],
      "stateMutability": "view",
      "type": "function"
    }
  ],
  "transactionHash": "0x737c0ff82a9a56a012f00d5d7f1b852fdba3b6293b2ee679edcde6b2cba5646a",
  "args": [
    "0x8811c5f40F1bF008c91e084BF4159b8cDEd2898B",
    "0x8811c5f40F1bF008c91e084BF4159b8cDEd2898B"
  ],
  "numDeployments": 1,
  "solcInputHash": "5169b1e0d787744ac0ab34f21d62e69a",
  "bytecode": "0x608034620001335762002b0290601f38839003908101601f19168201906001600160401b0382118383101762000138578083916040958694855283398101031262000133576200005d602062000055836200014e565b92016200014e565b9033156200011b57600180546001600160d01b03166107e960d71b1790556002546001600160a01b03918282166200010a57336001600160a01b03199283168117600255839190620000af9062000163565b50600160035516908115620000f9576004541617600455811615620000e857620000d990620001e3565b505161285c9081620002868239f35b815163e6c4247b60e01b8152600490fd5b845163e6c4247b60e01b8152600490fd5b8451631fe1e13d60e11b8152600490fd5b8251636116401160e11b815260006004820152602490fd5b600080fd5b634e487b7160e01b600052604160045260246000fd5b51906001600160a01b03821682036200013357565b6001600160a01b031660008181527fad3228b676f7d3cd4284a5443f17f1962b36e491b30a40b2405849e597ba5fb5602052604081205490919060ff16620001df57818052816020526040822081835260205260408220600160ff19825416179055339160008051602062002ae28339815191528180a4600190565b5090565b6001600160a01b031660008181527f90e7ad853e9fac4d43ebdcc2110730a1fc757f3400422120e55dadc8243cafee60205260408120549091907f43ab615f45e426ee136a7c361cb7eec81a0a41f7c8e223ef2ba841ac2d6d13499060ff166200028057808352826020526040832082845260205260408320600160ff1982541617905560008051602062002ae2833981519152339380a4600190565b50509056fe608060408181526004918236101561001657600080fd5b600092833560e01c91826301ffc9a71461184657508163022d63fb1461182857816302304c76146117e75781630aa6220b1461171e5781630b4501fd146115bf5781630ec3d9b0146116e3578163162e7c2c146115c45781631a7dfa9f146115bf5781632268a972146113ca578163248a9ca3146113a05781632f2ff15d1461135c57816331ffa145146112e1578163320ba8f71461124a57816332e7c5bf1461122957816333039d3d1461120657816336568abe146110a6578163406f924814610f9e57816357adb29514610f81578163634e93da14610e4c578163649a5ec714610c2c5781637974f3d814610c025781637f51bb1f14610b6e578163803db96d14610b3a57816384ef8ffc14610aad57816386f539fc14610ae25781638da5cb5b14610aad57816391d1485414610a5b578163a1eda53c146109e5578163a217fddf146109ca578163a2cd009e14610992578163c42d17e214610936578163cc8463c81461090a578163ce9823fa14610768578163cefc1429146105ed578163cf6eefb7146105a7578163d547741f14610538578163d602b9fd146104b9578163d73792a91461049b578163d8b5a8b71461044d578163eccc35fe1461027a57508063f446c1d01461025b578063f86325ed1461023b5763fb29b8c2146101fe57600080fd5b34610237578160031936011261023757602090517f4032bac08a63c53f52fb370aca24a5388e07cc0d7ad5c5253fe4892e6710a1848152f35b5080fd5b503461023757816003193601126102375760209051655af3107a40008152f35b50346102375781600319360112610237576020905164037e11d6008152f35b8383346102375761028a36611990565b61029694929194612276565b6102a082856122f0565b86526005602052828620966003880191338852826020528685892054106104255788600188999a01938454916102d7848b856126ee565b9586849f94926102eb858299969895611fbf565b906102f591611fbf565b906102ff91611fbf565b9361030991611fbf565b8099556002018381549061031c91611fb2565b9055338e52602052888d208054610334908d90611fbf565b905561034090336121c1565b8215159a6103f59a6103b56103ab9b7f0e2357d853a109acf13b03ccdd714c5e3dd7047234851e6ed9e115357b63caee9e610400575b6103988673ffffffffffffffffffffffffffffffffffffffff809b54166121c1565b6103a18a6127dd565b9a8c519d8e611fcc565b338e523691612093565b60208c0152898b01528c60608b015260808a015260a089015260c088015260e08701521661010085015261012084015261014083015251918291826120ca565b0390a1600160035580f35b6104208773ffffffffffffffffffffffffffffffffffffffff8a166121c1565b610376565b5083517f15761ddb000000000000000000000000000000000000000000000000000000008152fd5b505034610237578060209261046b61046436611a01565b92916122f0565b82526005855273ffffffffffffffffffffffffffffffffffffffff60038484200191168252845220549051908152f35b50503461023757816003193601126102375760209051620f42408152f35b83346105355780600319360112610535576104d2611a51565b600180547fffffffffffff0000000000000000000000000000000000000000000000000000811690915560a01c65ffffffffffff1661050e5780f35b7f8886ebfc4259abdbc16601dd8fb5678e54878f47b3c34836cfc51154a96051098180a180f35b80fd5b83915034610237578260031936011261023757803561055561194a565b9181156105805750610577600184958361057c96528660205286200154611ac2565b611d25565b5080f35b84517f3fc3c27a000000000000000000000000000000000000000000000000000000008152fd5b82843461053557806003193601126105355750600154815173ffffffffffffffffffffffffffffffffffffffff8216815260a09190911c65ffffffffffff166020820152f35b83833461023757816003193601126102375760015473ffffffffffffffffffffffffffffffffffffffff90811633036107395760015473ffffffffffffffffffffffffffffffffffffffff811692919060a01c65ffffffffffff168015801561072f575b61070057506002549061068c817fffffffffffffffffffffffff00000000000000000000000000000000000000009384811660025516611d8f565b50600254928184166106d857506106ac9495508316911617600255611bc5565b507fffffffffffff00000000000000000000000000000000000000000000000000006001541660015580f35b8690517f3fc3c27a000000000000000000000000000000000000000000000000000000008152fd5b856024918451917f19ca5ebb000000000000000000000000000000000000000000000000000000008352820152fd5b5042811015610651565b81517fc22c80220000000000000000000000000000000000000000000000000000000081523381860152602490fd5b83833461023757608060031936011261023757823567ffffffffffffffff8111610906576107999036908501611917565b6107a494919461194a565b926044359373ffffffffffffffffffffffffffffffffffffffff9081861680960361090257606435907f4032bac08a63c53f52fb370aca24a5388e07cc0d7ad5c5253fe4892e6710a18492838952602093898552858a20338b52855260ff868b205416156108cc5750610817868b6122f0565b8952600584526003858a200191169586895281845282858a2054106108a55750879861089b91877f97f8390f303d41a6db07b9e74de160b187da60bc50baf55ed8cdf777ba2d6a8498999a52808552858b20610874858254611fbf565b9055898b528452848a20610889848254611fb2565b905584519585879687528601916122b1565b918301520390a380f35b84517f15761ddb000000000000000000000000000000000000000000000000000000008152fd5b876044918751917fe2517d3f00000000000000000000000000000000000000000000000000000000835233908301526024820152fd5b8680fd5b8280fd5b50503461023757816003193601126102375760209065ffffffffffff61092e611ee5565b915191168152f35b90503461090657602060031936011261090657803567ffffffffffffffff811161098e578260209461097961097361098795600195369101611917565b906122f0565b8152600586522001546127dd565b9051908152f35b8380fd5b8284346105355760206003193601126105355782359067ffffffffffffffff8211610535575061097360209361098792369101611917565b50503461023757816003193601126102375751908152602090f35b8284346105355780600319360112610535576002548060d01c9182151580610a51575b15610a43575065ffffffffffff610a3f9160a01c1691925b5165ffffffffffff928316815292909116602083015281906040820190565b0390f35b92839250610a3f9150610a20565b5042831015610a08565b9050346109065781600319360112610906578160209360ff92610a7c61194a565b9035825281865273ffffffffffffffffffffffffffffffffffffffff83832091168252855220541690519015158152f35b50503461023757816003193601126102375760209073ffffffffffffffffffffffffffffffffffffffff600254169051908152f35b90503461090657602060031936011261090657358252600560209081529181902080546001820154600290920154925173ffffffffffffffffffffffffffffffffffffffff9091168152928301526040820152606090f35b8284346105355780600319360112610535575073ffffffffffffffffffffffffffffffffffffffff60209254169051908152f35b919050346109065760206003193601126109065773ffffffffffffffffffffffffffffffffffffffff610b9f61196d565b610ba7611a51565b16908115610bda57507fffffffffffffffffffffffff000000000000000000000000000000000000000082541617905580f35b9050517fe6c4247b000000000000000000000000000000000000000000000000000000008152fd5b83346105355760206003193601126105355761057c610c1f61196d565b610c27611a51565b611ae8565b83833461023757602060031936011261023757823565ffffffffffff80821690818303610e4857610c5b611a51565b610c6442611f67565b9181610c6e611ee5565b1680821115610de257509495507ff1038c18cf84a56e432fdbfaf746924b7ea511dfe03a6506a0ceba4888788d9b94610d5292610cbc9290916206978080821015610ddb57505b1690611f1e565b926002548060d01c80610d58575b50506002805473ffffffffffffffffffffffffffffffffffffffff1660a085901b79ffffffffffff0000000000000000000000000000000000000000161760d086901b7fffffffffffff0000000000000000000000000000000000000000000000000000161790555165ffffffffffff92831681529190921660208201529081906040820190565b0390a180f35b421115610db15779ffffffffffffffffffffffffffffffffffffffffffffffffffff7fffffffffffff00000000000000000000000000000000000000000000000000006001549260301b169116176001555b8680610cca565b507f2b1fa2edafe6f7b9e97c1a9e0c3660e645beb2dcaa2d45bdbf9beaf5472e1ec58680a1610daa565b9050610cb5565b03908111610e1c577ff1038c18cf84a56e432fdbfaf746924b7ea511dfe03a6506a0ceba4888788d9b949550610d5291610cbc9190611f1e565b6024856011887f4e487b7100000000000000000000000000000000000000000000000000000000835252fd5b8480fd5b505034610237576020600319360112610237577f3377dc44241e779dd06afab5b788a35ca5f3b778836e2990bdb26a2a4b2e5ed66020610e8a61196d565b610e92611a51565b610eac610e9e42611f67565b610ea6611ee5565b90611f1e565b9073ffffffffffffffffffffffffffffffffffffffff610eef6001549065ffffffffffff73ffffffffffffffffffffffffffffffffffffffff83169260a01c1690565b9290501694600154867fffffffffffff000000000000000000000000000000000000000000000000000079ffffffffffff00000000000000000000000000000000000000008660a01b169216171760015565ffffffffffff809216610f58575b5191168152a280f35b7f8886ebfc4259abdbc16601dd8fb5678e54878f47b3c34836cfc51154a96051098780a1610f4f565b505034610237578160031936011261023757602090516127108152f35b9190503461090657602060031936011261090657813567ffffffffffffffff811161098e57610fd3610fe19136908501611917565b90610fdc612276565b6122f0565b835260056020528083209060028201805492831561107e575473ffffffffffffffffffffffffffffffffffffffff16938415611057575091602091857fb0941a79b0a1d2dc32262e01138093b93ba4e92878c9b282875850dec054f009945561104a82866121c1565b51908152a2600160035580f35b82517fcb6e5344000000000000000000000000000000000000000000000000000000008152fd5b8483517f2c5211c6000000000000000000000000000000000000000000000000000000008152fd5b83833461023757806003193601126102375782356110c261194a565b918115806111e2575b611120575b3373ffffffffffffffffffffffffffffffffffffffff8416036110f857509061057c91611d25565b8490517f6697b232000000000000000000000000000000000000000000000000000000008152fd5b60015465ffffffffffff60a082901c169073ffffffffffffffffffffffffffffffffffffffff16158015906111d2575b80156111c0575b61118957507fffffffffffff000000000000ffffffffffffffffffffffffffffffffffffffff600154166001556110d0565b8565ffffffffffff60249351927f19ca5ebb0000000000000000000000000000000000000000000000000000000084521690820152fd5b504265ffffffffffff82161015611157565b5065ffffffffffff811615611150565b5073ffffffffffffffffffffffffffffffffffffffff8060025416908416146110cb565b5050346102375781600319360112610237576020905167ffffffffffffffff8152f35b505034610237578160031936011261023757602090516516bcc41e90008152f35b90503461090657602060031936011261090657803567ffffffffffffffff811161098e5761097383949261128092369101611917565b815260056020522090610a3f73ffffffffffffffffffffffffffffffffffffffff835416916002600185015494015490519384938460409194939273ffffffffffffffffffffffffffffffffffffffff606083019616825260208201520152565b50503461023757611318610a3f926113096001846112fe36611990565b9692959190956122f0565b815260056020522001546126ee565b916113328361132d8461132d85899b99611fbf565b611fbf565b9451958695869192608093969594919660a084019784526020840152604083015260608201520152565b83915034610237578260031936011261023757803561137961194a565b918115610580575061139b600184958361057c96528660205286200154611ac2565b611c80565b90503461090657602060031936011261090657816020936001923581528085522001549051908152f35b90506113d536611990565b906113e1949294612276565b6113eb85856122f0565b87526005602052858720600181019485549061140885858461236c565b9692939194909561142688611421896114218a8a611fb2565b611fb2565b918234106115975767ffffffffffffffff6114418683611fb2565b1161156f576103f59c9996938f937f0e2357d853a109acf13b03ccdd714c5e3dd7047234851e6ed9e115357b63caee9f6103ab9e9b98956003829f9c999661148c886114f098611fb2565b9e8f90556002810161149f8b8254611fb2565b905533835201602052206114b4858254611fb2565b90558761154a575b6114de8773ffffffffffffffffffffffffffffffffffffffff809c54166121c1565b803411611531575b506103a18a6127dd565b60208c0152898b0152600160608b015260808a015260a089015260c088015260e08701521661010085015261012084015261014083015251918291826120ca565b61153e6115449134611fbf565b336121c1565b386114e6565b61156a8873ffffffffffffffffffffffffffffffffffffffff8b166121c1565b6114bc565b8a8e517f2c5211c6000000000000000000000000000000000000000000000000000000008152fd5b8a8e517fe16b18b4000000000000000000000000000000000000000000000000000000008152fd5b6119e4565b838334610237576115d436611a01565b909291947f43ab615f45e426ee136a7c361cb7eec81a0a41f7c8e223ef2ba841ac2d6d13498086528560205283862033875260205260ff8487205416156116ad5750506116a185611647857f13ef5290f6bc062f4adcc6a4a09d9f745ebba9e80fac6b92b0f1147fce43232897986122f0565b8752600560205273ffffffffffffffffffffffffffffffffffffffff848820931692837fffffffffffffffffffffffff000000000000000000000000000000000000000082541617905583519484869586528501916122b1565b9060208301520390a180f35b604492508351917fe2517d3f00000000000000000000000000000000000000000000000000000000835233908301526024820152fd5b505034610237578160031936011261023757602090517f43ab615f45e426ee136a7c361cb7eec81a0a41f7c8e223ef2ba841ac2d6d13498152f35b8334610535578060031936011261053557611737611a51565b6002548060d01c80611764575b8273ffffffffffffffffffffffffffffffffffffffff6002541660025580f35b4211156117bd5779ffffffffffffffffffffffffffffffffffffffffffffffffffff7fffffffffffff00000000000000000000000000000000000000000000000000006001549260301b169116176001555b8180611744565b507f2b1fa2edafe6f7b9e97c1a9e0c3660e645beb2dcaa2d45bdbf9beaf5472e1ec58180a16117b6565b50503461023757611813610a3f926118046001846112fe36611990565b8152600560205220015461236c565b91611332836114218461142185899b99611fb2565b50503461023757816003193601126102375760209051620697808152f35b84913461090657602060031936011261090657357fffffffff00000000000000000000000000000000000000000000000000000000811680910361090657602092507f314987860000000000000000000000000000000000000000000000000000000081149081156118ba575b5015158152f35b7f7965db0b000000000000000000000000000000000000000000000000000000008114915081156118ed575b50836118b3565b7f01ffc9a700000000000000000000000000000000000000000000000000000000915014836118e6565b9181601f840112156119455782359167ffffffffffffffff8311611945576020838186019501011161194557565b600080fd5b6024359073ffffffffffffffffffffffffffffffffffffffff8216820361194557565b6004359073ffffffffffffffffffffffffffffffffffffffff8216820361194557565b6060600319820112611945576004359067ffffffffffffffff8211611945576119bb91600401611917565b90916024359060443573ffffffffffffffffffffffffffffffffffffffff811681036119455790565b34611945576000600319360112611945576020604051614e208152f35b6040600319820112611945576004359067ffffffffffffffff821161194557611a2c91600401611917565b909160243573ffffffffffffffffffffffffffffffffffffffff811681036119455790565b3360009081527fad3228b676f7d3cd4284a5443f17f1962b36e491b30a40b2405849e597ba5fb5602052604081205460ff1615611a8b5750565b604490604051907fe2517d3f0000000000000000000000000000000000000000000000000000000082523360048301526024820152fd5b80600052600060205260406000203360005260205260ff6040600020541615611a8b5750565b73ffffffffffffffffffffffffffffffffffffffff1660008181527fa947032688ddb2fe0e5f4dccbb9c0c3b45c325f4b9a00a607b6e417cb9394f6b60205260408120549091907f4032bac08a63c53f52fb370aca24a5388e07cc0d7ad5c5253fe4892e6710a1849060ff16611bc05780835282602052604083208284526020526040832060017fffffffffffffffffffffffffffffffffffffffffffffffffffffffffffffff008254161790557f2f8788117e7eff1d82e926ec794901d17c78024a50270940304540a733656f0d339380a4600190565b505090565b73ffffffffffffffffffffffffffffffffffffffff1660008181527fad3228b676f7d3cd4284a5443f17f1962b36e491b30a40b2405849e597ba5fb5602052604081205490919060ff16611c7c5781805281602052604082208183526020526040822060017fffffffffffffffffffffffffffffffffffffffffffffffffffffffffffffff0082541617905533917f2f8788117e7eff1d82e926ec794901d17c78024a50270940304540a733656f0d8180a4600190565b5090565b906000918083528260205273ffffffffffffffffffffffffffffffffffffffff6040842092169182845260205260ff60408420541615600014611bc05780835282602052604083208284526020526040832060017fffffffffffffffffffffffffffffffffffffffffffffffffffffffffffffff008254161790557f2f8788117e7eff1d82e926ec794901d17c78024a50270940304540a733656f0d339380a4600190565b90611d3b91801580611d6b575b611d3e57611e44565b90565b7fffffffffffffffffffffffff000000000000000000000000000000000000000060025416600255611e44565b5073ffffffffffffffffffffffffffffffffffffffff806002541690831614611d32565b73ffffffffffffffffffffffffffffffffffffffff1660008181527fad3228b676f7d3cd4284a5443f17f1962b36e491b30a40b2405849e597ba5fb5602052604081205490919060ff1615611c7c578180528160205260408220818352602052604082207fffffffffffffffffffffffffffffffffffffffffffffffffffffffffffffff00815416905533917ff6391f5c32d9c69d2a47ea670b442974b53935d1edc7fd64eb21e047a839171b8180a4600190565b906000918083528260205273ffffffffffffffffffffffffffffffffffffffff6040842092169182845260205260ff604084205416600014611bc0578083528260205260408320828452602052604083207fffffffffffffffffffffffffffffffffffffffffffffffffffffffffffffff0081541690557ff6391f5c32d9c69d2a47ea670b442974b53935d1edc7fd64eb21e047a839171b339380a4600190565b6002548060d01c8015159081611f14575b5015611f0a5760a01c65ffffffffffff1690565b5060015460d01c90565b9050421138611ef6565b91909165ffffffffffff80809416911601918211611f3857565b7f4e487b7100000000000000000000000000000000000000000000000000000000600052601160045260246000fd5b65ffffffffffff90818111611f7a571690565b604490604051907f6dfcc650000000000000000000000000000000000000000000000000000000008252603060048301526024820152fd5b91908201809211611f3857565b91908203918211611f3857565b610160810190811067ffffffffffffffff821117611fe957604052565b7f4e487b7100000000000000000000000000000000000000000000000000000000600052604160045260246000fd5b90601f7fffffffffffffffffffffffffffffffffffffffffffffffffffffffffffffffe0910116810190811067ffffffffffffffff821117611fe957604052565b67ffffffffffffffff8111611fe957601f017fffffffffffffffffffffffffffffffffffffffffffffffffffffffffffffffe01660200190565b92919261209f82612059565b916120ad6040519384612018565b829481845281830111611945578281602093846000960137010152565b60209182825273ffffffffffffffffffffffffffffffffffffffff9283825116818401528082015191610160918260408601528351938461018087015260005b8581106121ac5750505091601f917fffffffffffffffffffffffffffffffffffffffffffffffffffffffffffffffe0936101a096600088858901015260408201516060880152606082015115156080880152608082015160a088015260a082015160c088015260c082015160e088015260e082015161010090818901528201511661012090818801528101519061014091828801520151908501520116010190565b8181018301518782016101a00152820161210a565b81471061224657600080809373ffffffffffffffffffffffffffffffffffffffff8294165af13d15612241573d6121f781612059565b906122056040519283612018565b8152600060203d92013e5b1561221757565b60046040517f1425ea42000000000000000000000000000000000000000000000000000000008152fd5b612210565b60246040517fcd786059000000000000000000000000000000000000000000000000000000008152306004820152fd5b600260035414612287576002600355565b60046040517f3ee5aeb5000000000000000000000000000000000000000000000000000000008152fd5b601f82602094937fffffffffffffffffffffffffffffffffffffffffffffffffffffffffffffffe0938186528686013760008582860101520116010190565b61233c6123109160405192839160208301956020875260408401916122b1565b037fffffffffffffffffffffffffffffffffffffffffffffffffffffffffffffffe08101835282612018565b51902090565b9061271091828102928184041490151715611f3857565b81810292918115918404141715611f3857565b60009391849181156126c4576123828282611fb2565b7fffffffffffffffffffffffffffffffffffffffffffffffffffffffffffffffff8082019282841161257c57806125a95750506123bf8183612359565b8260011b907f7fffffffffffffffffffffffffffffffffffffffffffffffffffffffffffffff8416840361257c576001820180921161257c5761240861240f9392600692612359565b0492612359565b60011c915b655af3107a4000908082029182040361254f5764037e11d600918083029283040361254f579061244391611fb2565b6516bcc41e90009180830292830403612522579061246091611fb2565b93614e209081860292861592878504148317156124f557620f4240938490049573ffffffffffffffffffffffffffffffffffffffff16156124ed575061271091828702928784041417156124c05750819004906124bc85612342565b0491565b807f4e487b7100000000000000000000000000000000000000000000000000000000602492526011600452fd5b925050508291565b6024827f4e487b710000000000000000000000000000000000000000000000000000000081526011600452fd5b6024867f4e487b710000000000000000000000000000000000000000000000000000000081526011600452fd5b6024877f4e487b710000000000000000000000000000000000000000000000000000000081526011600452fd5b6024897f4e487b710000000000000000000000000000000000000000000000000000000081526011600452fd5b90916125b58185612359565b8460011b7f7fffffffffffffffffffffffffffffffffffffffffffffffffffffffffffffff91828716870361266a576001820180921161266a576006916125fb91612359565b04908484019484861161266a576126128587612359565b908560011b928616860361269757820191821161266a579261264c61266496959360066126456126529561265b98612359565b0490611fbf565b96612359565b60011c92612359565b60011c90611fbf565b91612414565b60248c7f4e487b710000000000000000000000000000000000000000000000000000000081526011600452fd5b60248d7f4e487b710000000000000000000000000000000000000000000000000000000081526011600452fd5b60046040517f2c5211c6000000000000000000000000000000000000000000000000000000008152fd5b6000939184918181106126c4578161270591611fbf565b81156126c4576123828282611fb2565b80156127d75780806001146127d0576002146127ca576001908161013382101682600b831016176127c257906002815b80821161277b575050817fffffffffffffffffffffffffffffffffffffffffffffffffffffffffffffffff048111611f38570290565b9092807fffffffffffffffffffffffffffffffffffffffffffffffffffffffffffffffff048111611f38578184166127b9575b800292811c90612745565b809202916127ae565b600291500a90565b50600490565b5050600190565b50600090565b6127e681612715565b9064037e11d6009180830292830403611f3857655af3107a4000918201809211611f38576516bcc41e90009080820291820403611f3857611d3b91611fb256fea2646970667358221220a23dbb1ca4ce81de64067382bef9e24b41ee89efe2864f44a76f6cd034a52f5664736f6c634300081400332f8788117e7eff1d82e926ec794901d17c78024a50270940304540a733656f0d",
  "devdoc": {
    "details": "Users can spend these credits for ad purposes.",
    "errors": {
      "AccessControlBadConfirmation()": [
        {
          "details": "The caller of a function is not the expected one. NOTE: Don't confuse with {AccessControlUnauthorizedAccount}."
        }
      ],
      "AccessControlEnforcedDefaultAdminDelay(uint48)": [
        {
          "details": "The delay for transferring the default admin delay is enforced and the operation must wait until `schedule`. NOTE: `schedule` can be 0 indicating there's no transfer scheduled."
        }
      ],
      "AccessControlEnforcedDefaultAdminRules()": [
        {
          "details": "At least one of the following rules was violated: - The `DEFAULT_ADMIN_ROLE` must only be managed by itself. - The `DEFAULT_ADMIN_ROLE` must only be held by one account at the time. - Any `DEFAULT_ADMIN_ROLE` transfer must be in two delayed steps."
        }
      ],
      "AccessControlInvalidDefaultAdmin(address)": [
        {
          "details": "The new default admin is not a valid default admin."
        }
      ],
      "AccessControlUnauthorizedAccount(address,bytes32)": [
        {
          "details": "The `account` is missing a role."
        }
      ],
      "AddressInsufficientBalance(address)": [
        {
          "details": "The ETH balance of the account is not enough to perform the operation."
        }
      ],
      "FailedInnerCall()": [
        {
          "details": "A call to an address target failed. The target may have reverted."
        }
      ],
      "ReentrancyGuardReentrantCall()": [
        {
          "details": "Unauthorized reentrant call."
        }
      ],
      "SafeCastOverflowedUintDowncast(uint8,uint256)": [
        {
          "details": "Value doesn't fit in an uint of `bits` size."
        }
      ]
    },
    "events": {
      "DefaultAdminDelayChangeCanceled()": {
        "details": "Emitted when a {pendingDefaultAdminDelay} is reset if its schedule didn't pass."
      },
      "DefaultAdminDelayChangeScheduled(uint48,uint48)": {
        "details": "Emitted when a {defaultAdminDelay} change is started, setting `newDelay` as the next delay to be applied between default admin transfer after `effectSchedule` has passed."
      },
      "DefaultAdminTransferCanceled()": {
        "details": "Emitted when a {pendingDefaultAdmin} is reset if it was never accepted, regardless of its schedule."
      },
      "DefaultAdminTransferScheduled(address,uint48)": {
        "details": "Emitted when a {defaultAdmin} transfer is started, setting `newAdmin` as the next address to become the {defaultAdmin} by calling {acceptDefaultAdminTransfer} only after `acceptSchedule` passes."
      },
      "RoleAdminChanged(bytes32,bytes32,bytes32)": {
        "details": "Emitted when `newAdminRole` is set as ``role``'s admin role, replacing `previousAdminRole` `DEFAULT_ADMIN_ROLE` is the starting admin for all roles, despite {RoleAdminChanged} not being emitted signaling this."
      },
      "RoleGranted(bytes32,address,address)": {
        "details": "Emitted when `account` is granted `role`. `sender` is the account that originated the contract call, an admin role bearer except when using {AccessControl-_setupRole}."
      },
      "RoleRevoked(bytes32,address,address)": {
        "details": "Emitted when `account` is revoked `role`. `sender` is the account that originated the contract call:   - if using `revokeRole`, it is the admin role bearer   - if using `renounceRole`, it is the role bearer (i.e. `account`)"
      }
    },
    "kind": "dev",
    "methods": {
      "acceptDefaultAdminTransfer()": {
        "details": "Completes a {defaultAdmin} transfer previously started with {beginDefaultAdminTransfer}. After calling the function: - `DEFAULT_ADMIN_ROLE` should be granted to the caller. - `DEFAULT_ADMIN_ROLE` should be revoked from the previous holder. - {pendingDefaultAdmin} should be reset to zero values. Requirements: - Only can be called by the {pendingDefaultAdmin}'s `newAdmin`. - The {pendingDefaultAdmin}'s `acceptSchedule` should've passed."
      },
      "beginDefaultAdminTransfer(address)": {
        "details": "Starts a {defaultAdmin} transfer by setting a {pendingDefaultAdmin} scheduled for acceptance after the current timestamp plus a {defaultAdminDelay}. Requirements: - Only can be called by the current {defaultAdmin}. Emits a DefaultAdminRoleChangeStarted event."
      },
      "buyCredits(string,uint256,address)": {
        "details": "Users must send sufficient Ether to cover the cost and fees.",
        "params": {
          "amount": "The amount of credits to buy.",
          "referrer": "The address of the referrer (optional).",
          "visibilityId": "The ID representing the visibility credits."
        }
      },
      "cancelDefaultAdminTransfer()": {
        "details": "Cancels a {defaultAdmin} transfer previously started with {beginDefaultAdminTransfer}. A {pendingDefaultAdmin} not yet accepted can also be cancelled with this function. Requirements: - Only can be called by the current {defaultAdmin}. May emit a DefaultAdminTransferCanceled event."
      },
      "changeDefaultAdminDelay(uint48)": {
        "details": "Initiates a {defaultAdminDelay} update by setting a {pendingDefaultAdminDelay} scheduled for getting into effect after the current timestamp plus a {defaultAdminDelay}. This function guarantees that any call to {beginDefaultAdminTransfer} done between the timestamp this method is called and the {pendingDefaultAdminDelay} effect schedule will use the current {defaultAdminDelay} set before calling. The {pendingDefaultAdminDelay}'s effect schedule is defined in a way that waiting until the schedule and then calling {beginDefaultAdminTransfer} with the new delay will take at least the same as another {defaultAdmin} complete transfer (including acceptance). The schedule is designed for two scenarios: - When the delay is changed for a larger one the schedule is `block.timestamp + newDelay` capped by {defaultAdminDelayIncreaseWait}. - When the delay is changed for a shorter one, the schedule is `block.timestamp + (current delay - new delay)`. A {pendingDefaultAdminDelay} that never got into effect will be canceled in favor of a new scheduled change. Requirements: - Only can be called by the current {defaultAdmin}. Emits a DefaultAdminDelayChangeScheduled event and may emit a DefaultAdminDelayChangeCanceled event."
      },
      "claimCreatorFee(string)": {
        "params": {
          "visibilityId": "The ID representing the visibility credits."
        }
      },
      "defaultAdmin()": {
        "details": "Returns the address of the current `DEFAULT_ADMIN_ROLE` holder."
      },
      "defaultAdminDelay()": {
        "details": "Returns the delay required to schedule the acceptance of a {defaultAdmin} transfer started. This delay will be added to the current timestamp when calling {beginDefaultAdminTransfer} to set the acceptance schedule. NOTE: If a delay change has been scheduled, it will take effect as soon as the schedule passes, making this function returns the new delay. See {changeDefaultAdminDelay}."
      },
      "defaultAdminDelayIncreaseWait()": {
        "details": "Maximum time in seconds for an increase to {defaultAdminDelay} (that is scheduled using {changeDefaultAdminDelay}) to take effect. Default to 5 days. When the {defaultAdminDelay} is scheduled to be increased, it goes into effect after the new delay has passed with the purpose of giving enough time for reverting any accidental change (i.e. using milliseconds instead of seconds) that may lock the contract. However, to avoid excessive schedules, the wait is capped by this function and it can be overrode for a custom {defaultAdminDelay} increase scheduling. IMPORTANT: Make sure to add a reasonable amount of time while overriding this value, otherwise, there's a risk of setting a high new delay that goes into effect almost immediately without the possibility of human intervention in the case of an input error (eg. set milliseconds instead of seconds)."
      },
      "getRoleAdmin(bytes32)": {
        "details": "Returns the admin role that controls `role`. See {grantRole} and {revokeRole}. To change a role's admin, use {_setRoleAdmin}."
      },
      "grantRole(bytes32,address)": {
        "details": "See {AccessControl-grantRole}. Reverts for `DEFAULT_ADMIN_ROLE`."
      },
      "hasRole(bytes32,address)": {
        "details": "Returns `true` if `account` has been granted `role`."
      },
      "owner()": {
        "details": "See {IERC5313-owner}."
      },
      "pendingDefaultAdmin()": {
        "details": "Returns a tuple of a `newAdmin` and an accept schedule. After the `schedule` passes, the `newAdmin` will be able to accept the {defaultAdmin} role by calling {acceptDefaultAdminTransfer}, completing the role transfer. A zero value only in `acceptSchedule` indicates no pending admin transfer. NOTE: A zero address `newAdmin` means that {defaultAdmin} is being renounced."
      },
      "pendingDefaultAdminDelay()": {
        "details": "Returns a tuple of `newDelay` and an effect schedule. After the `schedule` passes, the `newDelay` will get into effect immediately for every new {defaultAdmin} transfer started with {beginDefaultAdminTransfer}. A zero value only in `effectSchedule` indicates no pending delay change. NOTE: A zero value only for `newDelay` means that the next {defaultAdminDelay} will be zero after the effect schedule."
      },
      "renounceRole(bytes32,address)": {
        "details": "See {AccessControl-renounceRole}. For the `DEFAULT_ADMIN_ROLE`, it only allows renouncing in two steps by first calling {beginDefaultAdminTransfer} to the `address(0)`, so it's required that the {pendingDefaultAdmin} schedule has also passed when calling this function. After its execution, it will not be possible to call `onlyRole(DEFAULT_ADMIN_ROLE)` functions. NOTE: Renouncing `DEFAULT_ADMIN_ROLE` will leave the contract without a {defaultAdmin}, thereby disabling any functionality that is only available for it, and the possibility of reassigning a non-administrated role."
      },
      "revokeRole(bytes32,address)": {
        "details": "See {AccessControl-revokeRole}. Reverts for `DEFAULT_ADMIN_ROLE`."
      },
      "rollbackDefaultAdminDelay()": {
        "details": "Cancels a scheduled {defaultAdminDelay} change. Requirements: - Only can be called by the current {defaultAdmin}. May emit a DefaultAdminDelayChangeCanceled event."
      },
      "sellCredits(string,uint256,address)": {
        "details": "Users receive Ether minus applicable fees.",
        "params": {
          "amount": "The amount of credits to sell.",
          "referrer": "The address of the referrer (optional).",
          "visibilityId": "The ID representing the visibility credits."
        }
      },
      "setCreatorVisibility(string,address)": {
        "details": "Only callable by an account with the `CREATORS_CHECKER_ROLE`.",
        "params": {
          "creator": "The address of the creator, can be address(0).",
          "visibilityId": "The ID representing the visibility credits."
        }
      },
      "supportsInterface(bytes4)": {
        "details": "See {IERC165-supportsInterface}."
      },
      "transferCredits(string,address,address,uint256)": {
        "details": "Only callable by an account with the `CREDITS_TRANSFER_ROLE`.",
        "params": {
          "amount": "The amount of credits to transfer.",
          "from": "The address to transfer credits from.",
          "to": "The address to transfer credits to.",
          "visibilityId": "The ID representing the visibility credits."
        }
      },
      "updateTreasury(address)": {
        "details": "Only callable by an account with the `DEFAULT_ADMIN_ROLE`.",
        "params": {
          "treasury": "The address of the new protocol treasury (cannot be address(0))."
        }
      }
    },
    "stateVariables": {
      "A": {
        "details": "The bonding curve is defined by the formula:        PRICE = BASE_PRICE + A * totalSupply^2 + B * totalSupply      - BASE_PRICE: The initial price when totalSupply is zero.      - A, B: Constants that determine the curvature of the price function."
      }
    },
    "title": "VisibilityCredits",
    "version": 1
  },
  "userdoc": {
    "kind": "user",
    "methods": {
      "A()": {
        "notice": "Users can purchase and sell visibility credits according to a bonding curve."
      },
      "FEE_DENOMINATOR()": {
        "notice": "Fee percentages in ppm (parts per million)."
      },
      "buyCredits(string,uint256,address)": {
        "notice": "Buys a specified amount of visibility credits."
      },
      "claimCreatorFee(string)": {
        "notice": "Allows creators to claim their accumulated fees."
      },
      "sellCredits(string,uint256,address)": {
        "notice": "Sells a specified amount of visibility credits."
      },
      "setCreatorVisibility(string,address)": {
        "notice": "Sets the creator for a specific visibility ID."
      },
      "transferCredits(string,address,address,uint256)": {
        "notice": "Transfers visibility credits between users."
      },
      "updateTreasury(address)": {
        "notice": "Updates the protocol treasury address."
      }
    },
    "notice": "Allows users to buy and sell visibility credits along a bonding curve.",
    "version": 1
  },
  "storageLayout": {
    "storage": [
      {
        "astId": 26,
        "contract": "contracts/VisibilityCredits.sol:VisibilityCredits",
        "label": "_roles",
        "offset": 0,
        "slot": "0",
        "type": "t_mapping(t_bytes32,t_struct(RoleData)21_storage)"
      },
      {
        "astId": 400,
        "contract": "contracts/VisibilityCredits.sol:VisibilityCredits",
        "label": "_pendingDefaultAdmin",
        "offset": 0,
        "slot": "1",
        "type": "t_address"
      },
      {
        "astId": 402,
        "contract": "contracts/VisibilityCredits.sol:VisibilityCredits",
        "label": "_pendingDefaultAdminSchedule",
        "offset": 20,
        "slot": "1",
        "type": "t_uint48"
      },
      {
        "astId": 404,
        "contract": "contracts/VisibilityCredits.sol:VisibilityCredits",
        "label": "_currentDelay",
        "offset": 26,
        "slot": "1",
        "type": "t_uint48"
      },
      {
        "astId": 406,
        "contract": "contracts/VisibilityCredits.sol:VisibilityCredits",
        "label": "_currentDefaultAdmin",
        "offset": 0,
        "slot": "2",
        "type": "t_address"
      },
      {
        "astId": 408,
        "contract": "contracts/VisibilityCredits.sol:VisibilityCredits",
        "label": "_pendingDelay",
        "offset": 20,
        "slot": "2",
        "type": "t_uint48"
      },
      {
        "astId": 410,
        "contract": "contracts/VisibilityCredits.sol:VisibilityCredits",
        "label": "_pendingDelaySchedule",
        "offset": 26,
        "slot": "2",
        "type": "t_uint48"
      },
      {
        "astId": 1498,
        "contract": "contracts/VisibilityCredits.sol:VisibilityCredits",
        "label": "_status",
        "offset": 0,
        "slot": "3",
        "type": "t_uint256"
      },
      {
        "astId": 4467,
        "contract": "contracts/VisibilityCredits.sol:VisibilityCredits",
        "label": "protocolTreasury",
        "offset": 0,
        "slot": "4",
        "type": "t_address_payable"
      },
      {
        "astId": 4472,
        "contract": "contracts/VisibilityCredits.sol:VisibilityCredits",
        "label": "visibilityCredits",
        "offset": 0,
        "slot": "5",
        "type": "t_mapping(t_bytes32,t_struct(Visibility)4425_storage)"
      }
    ],
    "types": {
      "t_address": {
        "encoding": "inplace",
        "label": "address",
        "numberOfBytes": "20"
      },
      "t_address_payable": {
        "encoding": "inplace",
        "label": "address payable",
        "numberOfBytes": "20"
      },
      "t_bool": {
        "encoding": "inplace",
        "label": "bool",
        "numberOfBytes": "1"
      },
      "t_bytes32": {
        "encoding": "inplace",
        "label": "bytes32",
        "numberOfBytes": "32"
      },
      "t_mapping(t_address,t_bool)": {
        "encoding": "mapping",
        "key": "t_address",
        "label": "mapping(address => bool)",
        "numberOfBytes": "32",
        "value": "t_bool"
      },
      "t_mapping(t_address,t_uint256)": {
        "encoding": "mapping",
        "key": "t_address",
        "label": "mapping(address => uint256)",
        "numberOfBytes": "32",
        "value": "t_uint256"
      },
      "t_mapping(t_bytes32,t_struct(RoleData)21_storage)": {
        "encoding": "mapping",
        "key": "t_bytes32",
        "label": "mapping(bytes32 => struct AccessControl.RoleData)",
        "numberOfBytes": "32",
        "value": "t_struct(RoleData)21_storage"
      },
      "t_mapping(t_bytes32,t_struct(Visibility)4425_storage)": {
        "encoding": "mapping",
        "key": "t_bytes32",
        "label": "mapping(bytes32 => struct VisibilityCredits.Visibility)",
        "numberOfBytes": "32",
        "value": "t_struct(Visibility)4425_storage"
      },
      "t_struct(RoleData)21_storage": {
        "encoding": "inplace",
        "label": "struct AccessControl.RoleData",
        "members": [
          {
            "astId": 18,
            "contract": "contracts/VisibilityCredits.sol:VisibilityCredits",
            "label": "hasRole",
            "offset": 0,
            "slot": "0",
            "type": "t_mapping(t_address,t_bool)"
          },
          {
            "astId": 20,
            "contract": "contracts/VisibilityCredits.sol:VisibilityCredits",
            "label": "adminRole",
            "offset": 0,
            "slot": "1",
            "type": "t_bytes32"
          }
        ],
        "numberOfBytes": "64"
      },
      "t_struct(Visibility)4425_storage": {
        "encoding": "inplace",
        "label": "struct VisibilityCredits.Visibility",
        "members": [
          {
            "astId": 4416,
            "contract": "contracts/VisibilityCredits.sol:VisibilityCredits",
            "label": "creator",
            "offset": 0,
            "slot": "0",
            "type": "t_address"
          },
          {
            "astId": 4418,
            "contract": "contracts/VisibilityCredits.sol:VisibilityCredits",
            "label": "totalSupply",
            "offset": 0,
            "slot": "1",
            "type": "t_uint256"
          },
          {
            "astId": 4420,
            "contract": "contracts/VisibilityCredits.sol:VisibilityCredits",
            "label": "claimableFeeBalance",
            "offset": 0,
            "slot": "2",
            "type": "t_uint256"
          },
          {
            "astId": 4424,
            "contract": "contracts/VisibilityCredits.sol:VisibilityCredits",
            "label": "creditBalances",
            "offset": 0,
            "slot": "3",
            "type": "t_mapping(t_address,t_uint256)"
          }
        ],
        "numberOfBytes": "128"
      },
      "t_uint256": {
        "encoding": "inplace",
        "label": "uint256",
        "numberOfBytes": "32"
      },
      "t_uint48": {
        "encoding": "inplace",
        "label": "uint48",
        "numberOfBytes": "6"
      }
    }
  }
}