{
  "address": "0xA5a103ac4aC7298D02CCA272a8CEFb6f7B047e31",
  "abi": [
    {
      "inputs": [
        {
          "internalType": "address",
          "name": "_visibilityCredits",
          "type": "address"
        },
        {
          "internalType": "address",
          "name": "disputeResolver",
          "type": "address"
        }
      ],
      "stateMutability": "nonpayable",
      "type": "constructor"
    },
    {
      "inputs": [],
      "name": "AccessControlBadConfirmation",
      "type": "error"
    },
    {
      "inputs": [
        {
          "internalType": "uint48",
          "name": "schedule",
          "type": "uint48"
        }
      ],
      "name": "AccessControlEnforcedDefaultAdminDelay",
      "type": "error"
    },
    {
      "inputs": [],
      "name": "AccessControlEnforcedDefaultAdminRules",
      "type": "error"
    },
    {
      "inputs": [
        {
          "internalType": "address",
          "name": "defaultAdmin",
          "type": "address"
        }
      ],
      "name": "AccessControlInvalidDefaultAdmin",
      "type": "error"
    },
    {
      "inputs": [
        {
          "internalType": "address",
          "name": "account",
          "type": "address"
        },
        {
          "internalType": "bytes32",
          "name": "neededRole",
          "type": "bytes32"
        }
      ],
      "name": "AccessControlUnauthorizedAccount",
      "type": "error"
    },
    {
      "inputs": [],
      "name": "DisabledService",
      "type": "error"
    },
    {
      "inputs": [],
      "name": "InvalidAddress",
      "type": "error"
    },
    {
      "inputs": [],
      "name": "InvalidCreator",
      "type": "error"
    },
    {
      "inputs": [],
      "name": "InvalidExecutionState",
      "type": "error"
    },
    {
      "inputs": [
        {
          "internalType": "uint8",
          "name": "bits",
          "type": "uint8"
        },
        {
          "internalType": "uint256",
          "name": "value",
          "type": "uint256"
        }
      ],
      "name": "SafeCastOverflowedUintDowncast",
      "type": "error"
    },
    {
      "inputs": [],
      "name": "UnauthorizedExecutionAction",
      "type": "error"
    },
    {
      "anonymous": false,
      "inputs": [],
      "name": "DefaultAdminDelayChangeCanceled",
      "type": "event"
    },
    {
      "anonymous": false,
      "inputs": [
        {
          "indexed": false,
          "internalType": "uint48",
          "name": "newDelay",
          "type": "uint48"
        },
        {
          "indexed": false,
          "internalType": "uint48",
          "name": "effectSchedule",
          "type": "uint48"
        }
      ],
      "name": "DefaultAdminDelayChangeScheduled",
      "type": "event"
    },
    {
      "anonymous": false,
      "inputs": [],
      "name": "DefaultAdminTransferCanceled",
      "type": "event"
    },
    {
      "anonymous": false,
      "inputs": [
        {
          "indexed": true,
          "internalType": "address",
          "name": "newAdmin",
          "type": "address"
        },
        {
          "indexed": false,
          "internalType": "uint48",
          "name": "acceptSchedule",
          "type": "uint48"
        }
      ],
      "name": "DefaultAdminTransferScheduled",
      "type": "event"
    },
    {
      "anonymous": false,
      "inputs": [
        {
          "indexed": true,
          "internalType": "bytes32",
          "name": "role",
          "type": "bytes32"
        },
        {
          "indexed": true,
          "internalType": "bytes32",
          "name": "previousAdminRole",
          "type": "bytes32"
        },
        {
          "indexed": true,
          "internalType": "bytes32",
          "name": "newAdminRole",
          "type": "bytes32"
        }
      ],
      "name": "RoleAdminChanged",
      "type": "event"
    },
    {
      "anonymous": false,
      "inputs": [
        {
          "indexed": true,
          "internalType": "bytes32",
          "name": "role",
          "type": "bytes32"
        },
        {
          "indexed": true,
          "internalType": "address",
          "name": "account",
          "type": "address"
        },
        {
          "indexed": true,
          "internalType": "address",
          "name": "sender",
          "type": "address"
        }
      ],
      "name": "RoleGranted",
      "type": "event"
    },
    {
      "anonymous": false,
      "inputs": [
        {
          "indexed": true,
          "internalType": "bytes32",
          "name": "role",
          "type": "bytes32"
        },
        {
          "indexed": true,
          "internalType": "address",
          "name": "account",
          "type": "address"
        },
        {
          "indexed": true,
          "internalType": "address",
          "name": "sender",
          "type": "address"
        }
      ],
      "name": "RoleRevoked",
      "type": "event"
    },
    {
      "anonymous": false,
      "inputs": [
        {
          "indexed": true,
          "internalType": "uint256",
          "name": "nonce",
          "type": "uint256"
        },
        {
          "indexed": false,
          "internalType": "string",
          "name": "serviceType",
          "type": "string"
        },
        {
          "indexed": false,
          "internalType": "string",
          "name": "visibilityId",
          "type": "string"
        },
        {
          "indexed": false,
          "internalType": "uint256",
          "name": "creditsCostAmount",
          "type": "uint256"
        }
      ],
      "name": "ServiceCreated",
      "type": "event"
    },
    {
      "anonymous": false,
      "inputs": [
        {
          "indexed": true,
          "internalType": "uint256",
          "name": "serviceNonce",
          "type": "uint256"
        },
        {
          "indexed": true,
          "internalType": "uint256",
          "name": "executionNonce",
          "type": "uint256"
        },
        {
          "indexed": false,
          "internalType": "string",
          "name": "responseData",
          "type": "string"
        }
      ],
      "name": "ServiceExecutionAccepted",
      "type": "event"
    },
    {
      "anonymous": false,
      "inputs": [
        {
          "indexed": true,
          "internalType": "uint256",
          "name": "serviceNonce",
          "type": "uint256"
        },
        {
          "indexed": true,
          "internalType": "uint256",
          "name": "executionNonce",
          "type": "uint256"
        },
        {
          "indexed": true,
          "internalType": "address",
          "name": "from",
          "type": "address"
        },
        {
          "indexed": false,
          "internalType": "string",
          "name": "cancelData",
          "type": "string"
        }
      ],
      "name": "ServiceExecutionCanceled",
      "type": "event"
    },
    {
      "anonymous": false,
      "inputs": [
        {
          "indexed": true,
          "internalType": "uint256",
          "name": "serviceNonce",
          "type": "uint256"
        },
        {
          "indexed": true,
          "internalType": "uint256",
          "name": "executionNonce",
          "type": "uint256"
        },
        {
          "indexed": false,
          "internalType": "string",
          "name": "disputeData",
          "type": "string"
        }
      ],
      "name": "ServiceExecutionDisputed",
      "type": "event"
    },
    {
      "anonymous": false,
      "inputs": [
        {
          "indexed": true,
          "internalType": "uint256",
          "name": "serviceNonce",
          "type": "uint256"
        },
        {
          "indexed": true,
          "internalType": "uint256",
          "name": "executionNonce",
          "type": "uint256"
        },
        {
          "indexed": true,
          "internalType": "address",
          "name": "requester",
          "type": "address"
        },
        {
          "indexed": false,
          "internalType": "string",
          "name": "requestData",
          "type": "string"
        }
      ],
      "name": "ServiceExecutionRequested",
      "type": "event"
    },
    {
      "anonymous": false,
      "inputs": [
        {
          "indexed": true,
          "internalType": "uint256",
          "name": "serviceNonce",
          "type": "uint256"
        },
        {
          "indexed": true,
          "internalType": "uint256",
          "name": "executionNonce",
          "type": "uint256"
        },
        {
          "indexed": false,
          "internalType": "bool",
          "name": "refund",
          "type": "bool"
        },
        {
          "indexed": false,
          "internalType": "string",
          "name": "resolveData",
          "type": "string"
        }
      ],
      "name": "ServiceExecutionResolved",
      "type": "event"
    },
    {
      "anonymous": false,
      "inputs": [
        {
          "indexed": true,
          "internalType": "uint256",
          "name": "serviceNonce",
          "type": "uint256"
        },
        {
          "indexed": true,
          "internalType": "uint256",
          "name": "executionNonce",
          "type": "uint256"
        }
      ],
      "name": "ServiceExecutionValidated",
      "type": "event"
    },
    {
      "anonymous": false,
      "inputs": [
        {
          "indexed": true,
          "internalType": "uint256",
          "name": "nonce",
          "type": "uint256"
        },
        {
          "indexed": false,
          "internalType": "bool",
          "name": "enabled",
          "type": "bool"
        }
      ],
      "name": "ServiceUpdated",
      "type": "event"
    },
    {
      "inputs": [],
      "name": "AUTO_VALIDATION_DELAY",
      "outputs": [
        {
          "internalType": "uint256",
          "name": "",
          "type": "uint256"
        }
      ],
      "stateMutability": "view",
      "type": "function"
    },
    {
      "inputs": [],
      "name": "DEFAULT_ADMIN_ROLE",
      "outputs": [
        {
          "internalType": "bytes32",
          "name": "",
          "type": "bytes32"
        }
      ],
      "stateMutability": "view",
      "type": "function"
    },
    {
      "inputs": [],
      "name": "DISPUTE_RESOLVER_ROLE",
      "outputs": [
        {
          "internalType": "bytes32",
          "name": "",
          "type": "bytes32"
        }
      ],
      "stateMutability": "view",
      "type": "function"
    },
    {
      "inputs": [],
      "name": "acceptDefaultAdminTransfer",
      "outputs": [],
      "stateMutability": "nonpayable",
      "type": "function"
    },
    {
      "inputs": [
        {
          "internalType": "uint256",
          "name": "serviceNonce",
          "type": "uint256"
        },
        {
          "internalType": "uint256",
          "name": "executionNonce",
          "type": "uint256"
        },
        {
          "internalType": "string",
          "name": "responseData",
          "type": "string"
        }
      ],
      "name": "acceptServiceExecution",
      "outputs": [],
      "stateMutability": "nonpayable",
      "type": "function"
    },
    {
      "inputs": [
        {
          "internalType": "address",
          "name": "newAdmin",
          "type": "address"
        }
      ],
      "name": "beginDefaultAdminTransfer",
      "outputs": [],
      "stateMutability": "nonpayable",
      "type": "function"
    },
    {
      "inputs": [],
      "name": "cancelDefaultAdminTransfer",
      "outputs": [],
      "stateMutability": "nonpayable",
      "type": "function"
    },
    {
      "inputs": [
        {
          "internalType": "uint256",
          "name": "serviceNonce",
          "type": "uint256"
        },
        {
          "internalType": "uint256",
          "name": "executionNonce",
          "type": "uint256"
        },
        {
          "internalType": "string",
          "name": "cancelData",
          "type": "string"
        }
      ],
      "name": "cancelServiceExecution",
      "outputs": [],
      "stateMutability": "nonpayable",
      "type": "function"
    },
    {
      "inputs": [
        {
          "internalType": "uint48",
          "name": "newDelay",
          "type": "uint48"
        }
      ],
      "name": "changeDefaultAdminDelay",
      "outputs": [],
      "stateMutability": "nonpayable",
      "type": "function"
    },
    {
      "inputs": [
        {
          "internalType": "string",
          "name": "serviceType",
          "type": "string"
        },
        {
          "internalType": "string",
          "name": "visibilityId",
          "type": "string"
        },
        {
          "internalType": "uint256",
          "name": "creditsCostAmount",
          "type": "uint256"
        }
      ],
      "name": "createService",
      "outputs": [],
      "stateMutability": "nonpayable",
      "type": "function"
    },
    {
      "inputs": [],
      "name": "defaultAdmin",
      "outputs": [
        {
          "internalType": "address",
          "name": "",
          "type": "address"
        }
      ],
      "stateMutability": "view",
      "type": "function"
    },
    {
      "inputs": [],
      "name": "defaultAdminDelay",
      "outputs": [
        {
          "internalType": "uint48",
          "name": "",
          "type": "uint48"
        }
      ],
      "stateMutability": "view",
      "type": "function"
    },
    {
      "inputs": [],
      "name": "defaultAdminDelayIncreaseWait",
      "outputs": [
        {
          "internalType": "uint48",
          "name": "",
          "type": "uint48"
        }
      ],
      "stateMutability": "view",
      "type": "function"
    },
    {
      "inputs": [
        {
          "internalType": "uint256",
          "name": "serviceNonce",
          "type": "uint256"
        },
        {
          "internalType": "uint256",
          "name": "executionNonce",
          "type": "uint256"
        },
        {
          "internalType": "string",
          "name": "disputeData",
          "type": "string"
        }
      ],
      "name": "disputeServiceExecution",
      "outputs": [],
      "stateMutability": "nonpayable",
      "type": "function"
    },
    {
      "inputs": [
        {
          "internalType": "bytes32",
          "name": "role",
          "type": "bytes32"
        }
      ],
      "name": "getRoleAdmin",
      "outputs": [
        {
          "internalType": "bytes32",
          "name": "",
          "type": "bytes32"
        }
      ],
      "stateMutability": "view",
      "type": "function"
    },
    {
      "inputs": [
        {
          "internalType": "uint256",
          "name": "serviceNonce",
          "type": "uint256"
        },
        {
          "internalType": "uint256",
          "name": "executionNonce",
          "type": "uint256"
        }
      ],
      "name": "getServiceExecution",
      "outputs": [
        {
          "internalType": "enum VisibilityServices.ExecutionState",
          "name": "state",
          "type": "uint8"
        },
        {
          "internalType": "address",
          "name": "requester",
          "type": "address"
        },
        {
          "internalType": "uint256",
          "name": "lastUpdateTimestamp",
          "type": "uint256"
        },
        {
          "internalType": "string",
          "name": "requestData",
          "type": "string"
        },
        {
          "internalType": "string",
          "name": "responseData",
          "type": "string"
        },
        {
          "internalType": "string",
          "name": "cancelData",
          "type": "string"
        },
        {
          "internalType": "string",
          "name": "disputeData",
          "type": "string"
        },
        {
          "internalType": "string",
          "name": "resolveData",
          "type": "string"
        }
      ],
      "stateMutability": "view",
      "type": "function"
    },
    {
      "inputs": [
        {
          "internalType": "bytes32",
          "name": "role",
          "type": "bytes32"
        },
        {
          "internalType": "address",
          "name": "account",
          "type": "address"
        }
      ],
      "name": "grantRole",
      "outputs": [],
      "stateMutability": "nonpayable",
      "type": "function"
    },
    {
      "inputs": [
        {
          "internalType": "bytes32",
          "name": "role",
          "type": "bytes32"
        },
        {
          "internalType": "address",
          "name": "account",
          "type": "address"
        }
      ],
      "name": "hasRole",
      "outputs": [
        {
          "internalType": "bool",
          "name": "",
          "type": "bool"
        }
      ],
      "stateMutability": "view",
      "type": "function"
    },
    {
      "inputs": [],
      "name": "owner",
      "outputs": [
        {
          "internalType": "address",
          "name": "",
          "type": "address"
        }
      ],
      "stateMutability": "view",
      "type": "function"
    },
    {
      "inputs": [],
      "name": "pendingDefaultAdmin",
      "outputs": [
        {
          "internalType": "address",
          "name": "newAdmin",
          "type": "address"
        },
        {
          "internalType": "uint48",
          "name": "schedule",
          "type": "uint48"
        }
      ],
      "stateMutability": "view",
      "type": "function"
    },
    {
      "inputs": [],
      "name": "pendingDefaultAdminDelay",
      "outputs": [
        {
          "internalType": "uint48",
          "name": "newDelay",
          "type": "uint48"
        },
        {
          "internalType": "uint48",
          "name": "schedule",
          "type": "uint48"
        }
      ],
      "stateMutability": "view",
      "type": "function"
    },
    {
      "inputs": [
        {
          "internalType": "bytes32",
          "name": "role",
          "type": "bytes32"
        },
        {
          "internalType": "address",
          "name": "account",
          "type": "address"
        }
      ],
      "name": "renounceRole",
      "outputs": [],
      "stateMutability": "nonpayable",
      "type": "function"
    },
    {
      "inputs": [
        {
          "internalType": "uint256",
          "name": "serviceNonce",
          "type": "uint256"
        },
        {
          "internalType": "string",
          "name": "requestData",
          "type": "string"
        }
      ],
      "name": "requestServiceExecution",
      "outputs": [],
      "stateMutability": "nonpayable",
      "type": "function"
    },
    {
      "inputs": [
        {
          "internalType": "uint256",
          "name": "serviceNonce",
          "type": "uint256"
        },
        {
          "internalType": "uint256",
          "name": "executionNonce",
          "type": "uint256"
        },
        {
          "internalType": "bool",
          "name": "refund",
          "type": "bool"
        },
        {
          "internalType": "string",
          "name": "resolveData",
          "type": "string"
        }
      ],
      "name": "resolveServiceExecution",
      "outputs": [],
      "stateMutability": "nonpayable",
      "type": "function"
    },
    {
      "inputs": [
        {
          "internalType": "bytes32",
          "name": "role",
          "type": "bytes32"
        },
        {
          "internalType": "address",
          "name": "account",
          "type": "address"
        }
      ],
      "name": "revokeRole",
      "outputs": [],
      "stateMutability": "nonpayable",
      "type": "function"
    },
    {
      "inputs": [],
      "name": "rollbackDefaultAdminDelay",
      "outputs": [],
      "stateMutability": "nonpayable",
      "type": "function"
    },
    {
      "inputs": [
        {
          "internalType": "uint256",
          "name": "",
          "type": "uint256"
        }
      ],
      "name": "services",
      "outputs": [
        {
          "internalType": "bool",
          "name": "enabled",
          "type": "bool"
        },
        {
          "internalType": "string",
          "name": "serviceType",
          "type": "string"
        },
        {
          "internalType": "string",
          "name": "visibilityId",
          "type": "string"
        },
        {
          "internalType": "uint256",
          "name": "creditsCostAmount",
          "type": "uint256"
        },
        {
          "internalType": "uint256",
          "name": "executionsNonce",
          "type": "uint256"
        }
      ],
      "stateMutability": "view",
      "type": "function"
    },
    {
      "inputs": [],
      "name": "servicesNonce",
      "outputs": [
        {
          "internalType": "uint256",
          "name": "",
          "type": "uint256"
        }
      ],
      "stateMutability": "view",
      "type": "function"
    },
    {
      "inputs": [
        {
          "internalType": "bytes4",
          "name": "interfaceId",
          "type": "bytes4"
        }
      ],
      "name": "supportsInterface",
      "outputs": [
        {
          "internalType": "bool",
          "name": "",
          "type": "bool"
        }
      ],
      "stateMutability": "view",
      "type": "function"
    },
    {
      "inputs": [
        {
          "internalType": "uint256",
          "name": "serviceNonce",
          "type": "uint256"
        },
        {
          "internalType": "bool",
          "name": "enabled",
          "type": "bool"
        }
      ],
      "name": "updateService",
      "outputs": [],
      "stateMutability": "nonpayable",
      "type": "function"
    },
    {
      "inputs": [
        {
          "internalType": "uint256",
          "name": "serviceNonce",
          "type": "uint256"
        },
        {
          "internalType": "uint256",
          "name": "executionNonce",
          "type": "uint256"
        }
      ],
      "name": "validateServiceExecution",
      "outputs": [],
      "stateMutability": "nonpayable",
      "type": "function"
    },
    {
      "inputs": [],
      "name": "visibilityCredits",
      "outputs": [
        {
          "internalType": "contract IVisibilityCredits",
          "name": "",
          "type": "address"
        }
      ],
      "stateMutability": "view",
      "type": "function"
    }
  ],
  "transactionHash": "0x84628c23316874381e43cb1866c781e8853f0d8bcde2bf937cee392695e552d9",
  "args": [
    "0x6C865dca5a9777C004Afb14E5F0aC2ddE403C7f8",
    "0xda6bbE41370cA0c2b132ebe5FBeD4c0782E0eCB5"
  ],
  "numDeployments": 1,
  "solcInputHash": "0cb86c157bddc4f837cf4eab1eb6453e",
  "bytecode": "0x60a0346200013c57601f62002f8138819003918201601f19168301916001600160401b03831184841017620001415780849260409485528339810103126200013c576200005a6020620000528362000157565b920162000157565b9033156200012357600180546001600160d01b03166107e960d71b1790556002546001600160a01b03928382166200011157336001600160a01b0319929092168217600255620000bb91620000af906200016c565b506000600355620001ec565b5016608052604051612cd290816200028f82396080518181816106160152818161092501528181610b0c01528181610d60015281816111510152818161122001528181611a7b0152818161209701526121d40152f35b604051631fe1e13d60e11b8152600490fd5b604051636116401160e11b815260006004820152602490fd5b600080fd5b634e487b7160e01b600052604160045260246000fd5b51906001600160a01b03821682036200013c57565b6001600160a01b031660008181527fad3228b676f7d3cd4284a5443f17f1962b36e491b30a40b2405849e597ba5fb5602052604081205490919060ff16620001e857818052816020526040822081835260205260408220600160ff19825416179055339160008051602062002f618339815191528180a4600190565b5090565b6001600160a01b031660008181527f1faa33813a4136802f43076b446350cf9588d040bfbd1df96ccd112768eab3e860205260408120549091907f7b8bb8356a3f32f5c111ff23f050d97f08988e0883529ea7bff3b918887a6e0e9060ff166200028957808352826020526040832082845260205260408320600160ff1982541617905560008051602062002f61833981519152339380a4600190565b50509056fe608060408181526004918236101561001657600080fd5b600092833560e01c91826301ffc9a71461248a57508163022d63fb14611fdf5781630aa6220b146123c157816314879aae146121605781631707da2214611ffd5781632325894314611fdf578163248a9ca314611fb55781632add845c14611db35781632f2ff15d14611d6f57816336568abe14611c0f5781634535103514611964578163634e93da1461182c578163649a5ec7146116285781637372d6d1146114d45781637b15f1b6146111755781637f88cca01461112457816384ef8ffc146110ef5781638da5cb5b146110ef57816391d148541461109c578163a1eda53c14611026578163a217fddf1461100b578163a7e52baa14610ca2578163ab6460f914610838578163bc4678551461055d578163bfe42a3714610522578163c22c4f4314610482578163cc8463c814610456578163cefc1429146102db578163cf6eefb714610295578163d547741f1461022657508063d602b9fd146101a65763dd0c2bc21461018557600080fd5b346101a257816003193601126101a2576020906003549051908152f35b5080fd5b82346102235780600319360112610223576101bf6127ae565b600180547fffffffffffff0000000000000000000000000000000000000000000000000000811690915560a01c65ffffffffffff166101fb5780f35b7f8886ebfc4259abdbc16601dd8fb5678e54878f47b3c34836cfc51154a9605109600080a180f35b80fd5b839150346101a257826003193601126101a25780356102436125d6565b91811561026e5750610265600184958361026a9652866020528620015461281f565b61296e565b5080f35b84517f3fc3c27a000000000000000000000000000000000000000000000000000000008152fd5b82843461022357806003193601126102235750600154815173ffffffffffffffffffffffffffffffffffffffff8216815260a09190911c65ffffffffffff166020820152f35b8383346101a257816003193601126101a25760015473ffffffffffffffffffffffffffffffffffffffff90811633036104275760015473ffffffffffffffffffffffffffffffffffffffff811692919060a01c65ffffffffffff168015801561041d575b6103ee57506002549061037a817fffffffffffffffffffffffff000000000000000000000000000000000000000093848116600255166129d8565b50600254928184166103c6575061039a9495508316911617600255612845565b507fffffffffffff00000000000000000000000000000000000000000000000000006001541660015580f35b8690517f3fc3c27a000000000000000000000000000000000000000000000000000000008152fd5b856024918451917f19ca5ebb000000000000000000000000000000000000000000000000000000008352820152fd5b504281101561033f565b81517fc22c80220000000000000000000000000000000000000000000000000000000081523381860152602490fd5b5050346101a257816003193601126101a25760209065ffffffffffff61047a612af2565b915191168152f35b9050823461022357602060031936011261022357829082358152826020522060ff815416916105138451946104c5866104be8160018801612717565b0387612663565b8051926104e0846104d98160028901612717565b0385612663565b60038501549401549261050682519788971515885260a0602089015260a08801906125f9565b91868303908701526125f9565b91606084015260808301520390f35b5050346101a257816003193601126101a257602090517f7b8bb8356a3f32f5c111ff23f050d97f08988e0883529ea7bff3b918887a6e0e8152f35b9050346108345761056d3661259f565b929391948487526020928084528188208789526005810185528289209160ff8354169160068310156108215760018093036107f95760026105c16105f8926105ba88518094819301612717565b0382612663565b85519182917f320ba8f7000000000000000000000000000000000000000000000000000000008352898584015260248301906125f9565b0360808273ffffffffffffffffffffffffffffffffffffffff9281847f0000000000000000000000000000000000000000000000000000000000000000165afa9182156107ef578c926107bc575b503391160361079557600383019067ffffffffffffffff881161078257506106788761067283546126dd565b83612be5565b89601f88116001146106fa579187969593917f6674fe4e3889c0c30a5f773f296c7b9bd28653d31c7a6f41b9527b5c5a64865b986106e996948d916106ef575b5088831b906000198a60031b1c19161790555b600260ff198354161782554291015551938385948552840191612c7b565b0390a380f35b9050850135386106b8565b818b52868b2090601f1989168c5b81811061076d5750918998979593917f6674fe4e3889c0c30a5f773f296c7b9bd28653d31c7a6f41b9527b5c5a64865b9a6106e998969410610753575b50508188811b0190556106cb565b60001960f88b60031b161c19908701351690553880610745565b88830135845592850192918901918901610708565b8a6041602492634e487b7160e01b835252fd5b83517f57d8280c000000000000000000000000000000000000000000000000000000008152fd5b6107de91925060803d81116107e8575b6107d68183612663565b810190612ba6565b5050509038610646565b503d6107cc565b86513d8e823e3d90fd5b5083517f1a9ffc98000000000000000000000000000000000000000000000000000000008152fd5b60248b602184634e487b7160e01b835252fd5b8280fd5b90503461083457608060031936011261083457803590602435926044359081151591828103610c9d5767ffffffffffffffff91606435838111610c99576108829036908701612571565b9290937f7b8bb8356a3f32f5c111ff23f050d97f08988e0883529ea7bff3b918887a6e0e9687600052602097600089528460002033600052895260ff85600020541615610c635750888b52808852838b208a8c52600581018952848c209384549060ff82166006811015610c5057600303610c28578d92919015610aeb57508260ff198654161780865573ffffffffffffffffffffffffffffffffffffffff91827f000000000000000000000000000000000000000000000000000000000000000016600382015493813b15610ae7578580946109968c51978896879586947fce9823fa00000000000000000000000000000000000000000000000000000000865260081c169060023091018d8601612c39565b03925af18015610add57610ac5575b50505b6006830191851161078257506109c28461067283546126dd565b89601f8511600114610a3a57917f27aa94616bd9e81de882ea7cd522c8462acd5d04addd098dc22f19c3fa721a509796959391856106e996948d91610a2f575b508460011b906000198660031b1c19161790555b6001429101558080519687968752860152840191612c7b565b905085013538610a02565b818b52878b2090601f1986168c5b818110610aae5750917f27aa94616bd9e81de882ea7cd522c8462acd5d04addd098dc22f19c3fa721a50999897959391876106e998969410610a94575b5050600184811b019055610a16565b60001960f88760031b161c19908701351690553880610a85565b91928a60018192868c013581550194019201610a48565b610ace90612639565b610ad9578a386109a5565b8a80fd5b86513d84823e3d90fd5b8580fd5b60ff196005911617855573ffffffffffffffffffffffffffffffffffffffff7f00000000000000000000000000000000000000000000000000000000000000001660028201908751927f320ba8f70000000000000000000000000000000000000000000000000000000084528c8685015260808480610b6d6024820187612717565b0381855afa938415610c1e578594610bf8575b506003015490803b15610bf457610bca938580948b51968795869485937fce9823fa00000000000000000000000000000000000000000000000000000000855230908d8601612c39565b03925af18015610add57610be0575b50506109a8565b610be990612639565b610ad9578a38610bd9565b8480fd5b6003919450610c149060803d81116107e8576107d68183612663565b5050509390610b80565b89513d87823e3d90fd5b8387517f1a9ffc98000000000000000000000000000000000000000000000000000000008152fd5b60248f602187634e487b7160e01b835252fd5b604492508451917fe2517d3f00000000000000000000000000000000000000000000000000000000835233908301526024820152fd5b8880fd5b600080fd5b9190503461083457610cb33661259f565b8387959395526020958087528388208689526005810188528489209081549060ff8216926006841015610ff8576001809403610fd057908b94939291885193610d0a85610d038160028701612717565b0386612663565b89517f320ba8f70000000000000000000000000000000000000000000000000000000081528d8782015280610d4260248201886125f9565b039473ffffffffffffffffffffffffffffffffffffffff91608081847f00000000000000000000000000000000000000000000000000000000000000001698818a5afa998a15610fc55799610fa0575b5060081c811697338914918215610f94575b505015610f6c5785820167ffffffffffffffff8911610f5957918d979593918f979593610dd58b61067283546126dd565b8a89601f8211600114610ee9578a60039798999a9b9c5091610ede575b506000198c871b1c19168b831b1790555b8660ff1983541617825542910155015493813b15610ae757858094608092610e5e978c51988997889687957fce9823fa00000000000000000000000000000000000000000000000000000000875286015260848501906125f9565b913060248501526044840152606483015203925af18015610ed457610ebc575b5050610eb67f62e41e13b583f17bfb0b0dc98117e46d0ac610466d42947b51048922e664209c93519283928884523398840191612c7b565b0390a480f35b610ec590612639565b610ed0578638610e7e565b8680fd5b85513d84823e3d90fd5b90508c013538610df2565b828b528b8b2091508d908b8e5b601f1981168210610f42576003999a9b9c9d9e50809150601f19811610610f28575b915050838092501b019055610e03565b60f8600019918a1b161c19910135169055388c818d610f18565b83830135855593860193918e0191908e0190610ef6565b60248f604189634e487b7160e01b835252fd5b858a517f57d8280c000000000000000000000000000000000000000000000000000000008152fd5b16331490503880610da4565b82919950610fbb9060803d81116107e8576107d68183612663565b5050509890610d92565b8d51903d90823e3d90fd5b8488517f1a9ffc98000000000000000000000000000000000000000000000000000000008152fd5b60248c602187634e487b7160e01b835252fd5b5050346101a257816003193601126101a25751908152602090f35b8284346102235780600319360112610223576002548060d01c9182151580611092575b15611084575065ffffffffffff6110809160a01c1691925b5165ffffffffffff928316815292909116602083015281906040820190565b0390f35b928392506110809150611061565b5042831015611049565b90503461083457816003193601126108345773ffffffffffffffffffffffffffffffffffffffff826020946110cf6125d6565b93358152808652209116600052825260ff81600020541690519015158152f35b5050346101a257816003193601126101a25760209073ffffffffffffffffffffffffffffffffffffffff600254169051908152f35b5050346101a257816003193601126101a2576020905173ffffffffffffffffffffffffffffffffffffffff7f0000000000000000000000000000000000000000000000000000000000000000168152f35b919050346108345760606003193601126108345767ffffffffffffffff908235828111610bf4576111a99036908501612686565b91602435818111610ae7576111c19036908601612686565b90604435918351917f320ba8f700000000000000000000000000000000000000000000000000000000835260209283888201528061120260248201856125f9565b0360808273ffffffffffffffffffffffffffffffffffffffff9281847f0000000000000000000000000000000000000000000000000000000000000000165afa9182156114ca578a926114a7575b503391160361147f576003805497888a52808552868a20926001848160ff198197541617815501895182811161146c576112948161128e84546126dd565b84612be5565b80888e6001601f84111461140357916113f8575b5060001982881b92871b1c19161790555b898b528186526002888c20019085519081116113e5576112dd8161128e84546126dd565b80878d601f831160011461138b5791611380575b5060001982871b92861b1c19161790555b888a52808552898188822088858201550155815492830180931161136d5750927ffd2063f0659f491224ea920563cb171b0aebcf360a0961c7cfd86ec2ba1d83389694926113639261050697955584519687966060885260608801906125f9565b918301520390a280f35b896011602492634e487b7160e01b835252fd5b9050860151386112f1565b90601f198894168583528a8320925b8b8282106113cf57505083116113b7575b5050811b019055611302565b88015160001960f884891b161c1916905538806113ab565b838c015185558a9690940193928301920161139a565b60248c604185634e487b7160e01b835252fd5b90508b0151386112a8565b908d601f198a9516908684528c80852094915b83831061144b575050508311611433575b5050811b0190556112b9565b8d015160001960f8848a1b161c191690553880611427565b948482949597989293960151815501940192019089949392918f8d90611416565b60248d604186634e487b7160e01b835252fd5b8685517fcb6e5344000000000000000000000000000000000000000000000000000000008152fd5b6114c091925060803d81116107e8576107d68183612663565b5050509038611250565b87513d8c823e3d90fd5b8383346101a2576006906114e73661255b565b9084528460205260058285200190845260205261154781842091825460ff811691600185015490805192611522846104d98160028b01612717565b815194611536866104be8160038c01612717565b61154e8b8451988980928c01612717565b0388612663565b61158283519861156c8a6115658160058501612717565b038b612663565b61157b8551809c819301612717565b038a612663565b82519960068210156116155750946115dd61108098956115f9958c9b99958c602073ffffffffffffffffffffffffffffffffffffffff6115eb986116079d845260081c169101528c01526101008060608d01528b01906125f9565b9089820360808b01526125f9565b9087820360a08901526125f9565b9085820360c08701526125f9565b9083820360e08501526125f9565b8060218d634e487b7160e01b6024945252fd5b8383346101a25760206003193601126101a257823565ffffffffffff80821690818303610bf4576116576127ae565b61166042612b5b565b918161166a612af2565b16808211156117df57509495507ff1038c18cf84a56e432fdbfaf746924b7ea511dfe03a6506a0ceba4888788d9b9461174e926116b892909162069780808210156117d857505b1690612b2b565b926002548060d01c80611754575b50506002805473ffffffffffffffffffffffffffffffffffffffff1660a085901b79ffffffffffff0000000000000000000000000000000000000000161760d086901b7fffffffffffff0000000000000000000000000000000000000000000000000000161790555165ffffffffffff92831681529190921660208201529081906040820190565b0390a180f35b4211156117ad5779ffffffffffffffffffffffffffffffffffffffffffffffffffff7fffffffffffff00000000000000000000000000000000000000000000000000006001549260301b169116176001555b86806116c6565b507f2b1fa2edafe6f7b9e97c1a9e0c3660e645beb2dcaa2d45bdbf9beaf5472e1ec5600080a16117a6565b90506116b1565b03908111611819577ff1038c18cf84a56e432fdbfaf746924b7ea511dfe03a6506a0ceba4888788d9b94955061174e916116b89190612b2b565b602485601188634e487b7160e01b835252fd5b90503461083457602060031936011261083457359073ffffffffffffffffffffffffffffffffffffffff8216809203610c9d5760207f3377dc44241e779dd06afab5b788a35ca5f3b778836e2990bdb26a2a4b2e5ed69161188b6127ae565b6118a561189742612b5b565b61189f612af2565b90612b2b565b906118d36001549065ffffffffffff73ffffffffffffffffffffffffffffffffffffffff83169260a01c1690565b919050600154867fffffffffffff000000000000000000000000000000000000000000000000000079ffffffffffff00000000000000000000000000000000000000008660a01b169216171760015565ffffffffffff80921661193a575b5191168152a280f35b7f8886ebfc4259abdbc16601dd8fb5678e54878f47b3c34836cfc51154a9605109600080a1611931565b9190503461083457806003193601126108345781356024359167ffffffffffffffff92838111610ae75761199b9036908601612571565b83875260209580875283882060ff81541615611be757818101968754976005830191898c52828b52878c20926001938460ff198254161790558a8d528b526002888d2080547fffffffffffffffffffffff0000000000000000000000000000000000000000ff74ffffffffffffffffffffffffffffffffffffffff003360081b169116178155428582015501908611611bd457611a3c8661067283546126dd565b858c8d601f8311600114611b725791611b67575b5086841b906000198860031b1c19161790555b8054918201809211611b5457556003810154899291907f000000000000000000000000000000000000000000000000000000000000000073ffffffffffffffffffffffffffffffffffffffff16803b15610bf457611af9938580948a51968795869485937fce9823fa00000000000000000000000000000000000000000000000000000000855230916002339201908601612c39565b03925af18015610ed457611b40575b5050610eb67f1128462f157ad4012478d49944685c39edb32188b6e59e085743e5162093f30593519283928884523398840191612c7b565b611b4990612639565b610ed0578638611b08565b60248b601186634e487b7160e01b835252fd5b905087013538611a50565b8381528d81209290601f198216908f5b888d848410611bbd575050505010611ba3575b50508286811b019055611a63565b60001960f88960031b161c19908901351690553880611b95565b860135875590950194938401938b9350018f611b82565b60248c604187634e487b7160e01b835252fd5b5083517fd5dcc8f8000000000000000000000000000000000000000000000000000000008152fd5b8383346101a257806003193601126101a2578235611c2b6125d6565b91811580611d4b575b611c89575b3373ffffffffffffffffffffffffffffffffffffffff841603611c6157509061026a9161296e565b8490517f6697b232000000000000000000000000000000000000000000000000000000008152fd5b60015465ffffffffffff60a082901c169073ffffffffffffffffffffffffffffffffffffffff1615801590611d3b575b8015611d29575b611cf257507fffffffffffff000000000000ffffffffffffffffffffffffffffffffffffffff60015416600155611c39565b8565ffffffffffff60249351927f19ca5ebb0000000000000000000000000000000000000000000000000000000084521690820152fd5b504265ffffffffffff82161015611cc0565b5065ffffffffffff811615611cb9565b5073ffffffffffffffffffffffffffffffffffffffff806002541690841614611c34565b839150346101a257826003193601126101a2578035611d8c6125d6565b91811561026e5750611dae600184958361026a9652866020528620015461281f565b6128e2565b90503461083457611dc33661259f565b92939194848752602092808452600582892001878952845281882090815460ff81166006811015611fa257600203611f7a5773ffffffffffffffffffffffffffffffffffffffff339160081c1603611f5357600582019067ffffffffffffffff8711611f405750611e388661067283546126dd565b88601f8711600114611eb657916106e99391877fef0fefd5a84d762c21fd37b389df01bab2cf55510d49dc3f3d685b705ed8f8c9989796948c91611eab575b508760011b906000198960031b1c19161790555b600360ff1982541617815560014291015551938385948552840191612c7b565b905084013538611e77565b818a52858a2090601f1988168b5b818110611f295750916106e9959391897fef0fefd5a84d762c21fd37b389df01bab2cf55510d49dc3f3d685b705ed8f8c99a9998969410611f0f575b5050600187811b019055611e8b565b60001960f88a60031b161c19908601351690553880611f00565b91928860018192868b013581550194019201611ec4565b896041602492634e487b7160e01b835252fd5b82517f57d8280c000000000000000000000000000000000000000000000000000000008152fd5b5082517f1a9ffc98000000000000000000000000000000000000000000000000000000008152fd5b60248b602185634e487b7160e01b835252fd5b90503461083457602060031936011261083457816020936001923581528085522001549051908152f35b5050346101a257816003193601126101a25760209051620697808152f35b90503461083457816003193601126108345780359160243591821515809303610c9d5783855280602052818520906120798351612041816105ba8160028801612717565b84519182917f320ba8f700000000000000000000000000000000000000000000000000000000835260208584015260248301906125f9565b0360808273ffffffffffffffffffffffffffffffffffffffff9281847f0000000000000000000000000000000000000000000000000000000000000000165afa918215612156578892612133575b503391160361210c5750916020918360ff197f55fc44033d76f0476604037138695d6580815828e512faec38f21fd51a1f2f9e95541660ff841617905551908152a280f35b82517fcb6e5344000000000000000000000000000000000000000000000000000000008152fd5b61214c91925060803d81116107e8576107d68183612663565b50505090386120c7565b85513d8a823e3d90fd5b91905034610834576121713661255b565b9290918285528160205280852091848652600583016020528186209283549160ff831660068110156123ae576002036123875773ffffffffffffffffffffffffffffffffffffffff33818560081c16148015612359575b156123315790889392917f0000000000000000000000000000000000000000000000000000000000000000169160028101968651947f320ba8f700000000000000000000000000000000000000000000000000000000865260208487015260808680612237602482018d612717565b0381885afa9586156123275787966122f6575b5060ff19166005178155426001909101556003015495823b15610bf45784906122a18751988996879586947fce9823fa00000000000000000000000000000000000000000000000000000000865230918601612c39565b03925af19081156122ed57506122da575b507f9cbf87fb16e55f1556e2d5a42a595be6146f7cfcbe9092a1604e8f17a0617bc48380a380f35b6122e690939193612639565b91386122b2565b513d86823e3d90fd5b6003939291965060ff1961231960059260803d81116107e8576107d68183612663565b50505097929394505061224a565b88513d89823e3d90fd5b5083517f57d8280c000000000000000000000000000000000000000000000000000000008152fd5b506001860154620697809081018091116123745742116121c8565b60248a601185634e487b7160e01b835252fd5b83517f1a9ffc98000000000000000000000000000000000000000000000000000000008152fd5b602489602184634e487b7160e01b835252fd5b83346102235780600319360112610223576123da6127ae565b6002548060d01c80612407575b8273ffffffffffffffffffffffffffffffffffffffff6002541660025580f35b4211156124605779ffffffffffffffffffffffffffffffffffffffffffffffffffff7fffffffffffff00000000000000000000000000000000000000000000000000006001549260301b169116176001555b81806123e7565b507f2b1fa2edafe6f7b9e97c1a9e0c3660e645beb2dcaa2d45bdbf9beaf5472e1ec58180a1612459565b84913461083457602060031936011261083457357fffffffff00000000000000000000000000000000000000000000000000000000811680910361083457602092507f314987860000000000000000000000000000000000000000000000000000000081149081156124fe575b5015158152f35b7f7965db0b00000000000000000000000000000000000000000000000000000000811491508115612531575b50836124f7565b7f01ffc9a7000000000000000000000000000000000000000000000000000000009150148361252a565b6003196040910112610c9d576004359060243590565b9181601f84011215610c9d5782359167ffffffffffffffff8311610c9d5760208381860195010111610c9d57565b6060600319820112610c9d5760043591602435916044359067ffffffffffffffff8211610c9d576125d291600401612571565b9091565b6024359073ffffffffffffffffffffffffffffffffffffffff82168203610c9d57565b919082519283825260005b848110612625575050601f19601f8460006020809697860101520116010190565b602081830181015184830182015201612604565b67ffffffffffffffff811161264d57604052565b634e487b7160e01b600052604160045260246000fd5b90601f601f19910116810190811067ffffffffffffffff82111761264d57604052565b81601f82011215610c9d5780359067ffffffffffffffff821161264d57604051926126bb6020601f19601f8601160185612663565b82845260208383010111610c9d57816000926020809301838601378301015290565b90600182811c9216801561270d575b60208310146126f757565b634e487b7160e01b600052602260045260246000fd5b91607f16916126ec565b9060009291805491612728836126dd565b91828252600193848116908160001461278a575060011461274a575b50505050565b90919394506000526020928360002092846000945b838610612776575050505001019038808080612744565b80548587018301529401938590820161275f565b915050602094955060ff199193501683830152151560051b01019038808080612744565b3360009081527fad3228b676f7d3cd4284a5443f17f1962b36e491b30a40b2405849e597ba5fb5602052604081205460ff16156127e85750565b604490604051907fe2517d3f0000000000000000000000000000000000000000000000000000000082523360048301526024820152fd5b80600052600060205260406000203360005260205260ff60406000205416156127e85750565b73ffffffffffffffffffffffffffffffffffffffff1660008181527fad3228b676f7d3cd4284a5443f17f1962b36e491b30a40b2405849e597ba5fb5602052604081205490919060ff166128de57818052816020526040822081835260205260408220600160ff1982541617905533917f2f8788117e7eff1d82e926ec794901d17c78024a50270940304540a733656f0d8180a4600190565b5090565b906000918083528260205273ffffffffffffffffffffffffffffffffffffffff6040842092169182845260205260ff6040842054161560001461296957808352826020526040832082845260205260408320600160ff198254161790557f2f8788117e7eff1d82e926ec794901d17c78024a50270940304540a733656f0d339380a4600190565b505090565b90612984918015806129b4575b61298757612a6f565b90565b7fffffffffffffffffffffffff000000000000000000000000000000000000000060025416600255612a6f565b5073ffffffffffffffffffffffffffffffffffffffff80600254169083161461297b565b73ffffffffffffffffffffffffffffffffffffffff1660008181527fad3228b676f7d3cd4284a5443f17f1962b36e491b30a40b2405849e597ba5fb5602052604081205490919060ff16156128de5781805281602052604082208183526020526040822060ff19815416905533917ff6391f5c32d9c69d2a47ea670b442974b53935d1edc7fd64eb21e047a839171b8180a4600190565b906000918083528260205273ffffffffffffffffffffffffffffffffffffffff6040842092169182845260205260ff6040842054166000146129695780835282602052604083208284526020526040832060ff1981541690557ff6391f5c32d9c69d2a47ea670b442974b53935d1edc7fd64eb21e047a839171b339380a4600190565b6002548060d01c8015159081612b21575b5015612b175760a01c65ffffffffffff1690565b5060015460d01c90565b9050421138612b03565b91909165ffffffffffff80809416911601918211612b4557565b634e487b7160e01b600052601160045260246000fd5b65ffffffffffff90818111612b6e571690565b604490604051907f6dfcc650000000000000000000000000000000000000000000000000000000008252603060048301526024820152fd5b9190826080910312610c9d57815173ffffffffffffffffffffffffffffffffffffffff81168103610c9d57916020810151916060604083015192015190565b90601f8111612bf357505050565b600091825260208220906020601f850160051c83019410612c2f575b601f0160051c01915b828110612c2457505050565b818155600101612c18565b9092508290612c0f565b9091612c5360609396959496608084526080840190612717565b9573ffffffffffffffffffffffffffffffffffffffff80921660208401521660408201520152565b601f8260209493601f1993818652868601376000858286010152011601019056fea26469706673582212204ea00f8db389496c3a998bef4750a0986efddfd83828a84f2ea2f94553ad0dba64736f6c634300081400332f8788117e7eff1d82e926ec794901d17c78024a50270940304540a733656f0d",
  "devdoc": {
    "errors": {
      "AccessControlBadConfirmation()": [
        {
          "details": "The caller of a function is not the expected one. NOTE: Don't confuse with {AccessControlUnauthorizedAccount}."
        }
      ],
      "AccessControlEnforcedDefaultAdminDelay(uint48)": [
        {
          "details": "The delay for transferring the default admin delay is enforced and the operation must wait until `schedule`. NOTE: `schedule` can be 0 indicating there's no transfer scheduled."
        }
      ],
      "AccessControlEnforcedDefaultAdminRules()": [
        {
          "details": "At least one of the following rules was violated: - The `DEFAULT_ADMIN_ROLE` must only be managed by itself. - The `DEFAULT_ADMIN_ROLE` must only be held by one account at the time. - Any `DEFAULT_ADMIN_ROLE` transfer must be in two delayed steps."
        }
      ],
      "AccessControlInvalidDefaultAdmin(address)": [
        {
          "details": "The new default admin is not a valid default admin."
        }
      ],
      "AccessControlUnauthorizedAccount(address,bytes32)": [
        {
          "details": "The `account` is missing a role."
        }
      ],
      "SafeCastOverflowedUintDowncast(uint8,uint256)": [
        {
          "details": "Value doesn't fit in an uint of `bits` size."
        }
      ]
    },
    "events": {
      "DefaultAdminDelayChangeCanceled()": {
        "details": "Emitted when a {pendingDefaultAdminDelay} is reset if its schedule didn't pass."
      },
      "DefaultAdminDelayChangeScheduled(uint48,uint48)": {
        "details": "Emitted when a {defaultAdminDelay} change is started, setting `newDelay` as the next delay to be applied between default admin transfer after `effectSchedule` has passed."
      },
      "DefaultAdminTransferCanceled()": {
        "details": "Emitted when a {pendingDefaultAdmin} is reset if it was never accepted, regardless of its schedule."
      },
      "DefaultAdminTransferScheduled(address,uint48)": {
        "details": "Emitted when a {defaultAdmin} transfer is started, setting `newAdmin` as the next address to become the {defaultAdmin} by calling {acceptDefaultAdminTransfer} only after `acceptSchedule` passes."
      },
      "RoleAdminChanged(bytes32,bytes32,bytes32)": {
        "details": "Emitted when `newAdminRole` is set as ``role``'s admin role, replacing `previousAdminRole` `DEFAULT_ADMIN_ROLE` is the starting admin for all roles, despite {RoleAdminChanged} not being emitted signaling this."
      },
      "RoleGranted(bytes32,address,address)": {
        "details": "Emitted when `account` is granted `role`. `sender` is the account that originated the contract call, an admin role bearer except when using {AccessControl-_setupRole}."
      },
      "RoleRevoked(bytes32,address,address)": {
        "details": "Emitted when `account` is revoked `role`. `sender` is the account that originated the contract call:   - if using `revokeRole`, it is the admin role bearer   - if using `renounceRole`, it is the role bearer (i.e. `account`)"
      }
    },
    "kind": "dev",
    "methods": {
      "acceptDefaultAdminTransfer()": {
        "details": "Completes a {defaultAdmin} transfer previously started with {beginDefaultAdminTransfer}. After calling the function: - `DEFAULT_ADMIN_ROLE` should be granted to the caller. - `DEFAULT_ADMIN_ROLE` should be revoked from the previous holder. - {pendingDefaultAdmin} should be reset to zero values. Requirements: - Only can be called by the {pendingDefaultAdmin}'s `newAdmin`. - The {pendingDefaultAdmin}'s `acceptSchedule` should've passed."
      },
      "acceptServiceExecution(uint256,uint256,string)": {
        "params": {
          "executionNonce": "The ID of the execution.",
          "responseData": "The data related to the response.",
          "serviceNonce": "The ID of the service."
        }
      },
      "beginDefaultAdminTransfer(address)": {
        "details": "Starts a {defaultAdmin} transfer by setting a {pendingDefaultAdmin} scheduled for acceptance after the current timestamp plus a {defaultAdminDelay}. Requirements: - Only can be called by the current {defaultAdmin}. Emits a DefaultAdminRoleChangeStarted event."
      },
      "cancelDefaultAdminTransfer()": {
        "details": "Cancels a {defaultAdmin} transfer previously started with {beginDefaultAdminTransfer}. A {pendingDefaultAdmin} not yet accepted can also be cancelled with this function. Requirements: - Only can be called by the current {defaultAdmin}. May emit a DefaultAdminTransferCanceled event."
      },
      "cancelServiceExecution(uint256,uint256,string)": {
        "params": {
          "cancelData": "The data related to the cancellation.",
          "executionNonce": "The ID of the execution.",
          "serviceNonce": "The ID of the service."
        }
      },
      "changeDefaultAdminDelay(uint48)": {
        "details": "Initiates a {defaultAdminDelay} update by setting a {pendingDefaultAdminDelay} scheduled for getting into effect after the current timestamp plus a {defaultAdminDelay}. This function guarantees that any call to {beginDefaultAdminTransfer} done between the timestamp this method is called and the {pendingDefaultAdminDelay} effect schedule will use the current {defaultAdminDelay} set before calling. The {pendingDefaultAdminDelay}'s effect schedule is defined in a way that waiting until the schedule and then calling {beginDefaultAdminTransfer} with the new delay will take at least the same as another {defaultAdmin} complete transfer (including acceptance). The schedule is designed for two scenarios: - When the delay is changed for a larger one the schedule is `block.timestamp + newDelay` capped by {defaultAdminDelayIncreaseWait}. - When the delay is changed for a shorter one, the schedule is `block.timestamp + (current delay - new delay)`. A {pendingDefaultAdminDelay} that never got into effect will be canceled in favor of a new scheduled change. Requirements: - Only can be called by the current {defaultAdmin}. Emits a DefaultAdminDelayChangeScheduled event and may emit a DefaultAdminDelayChangeCanceled event."
      },
      "constructor": {
        "details": "Constructor to initialize the contract.",
        "params": {
          "_visibilityCredits": "Address of the IVisibilityCredits contract.",
          "disputeResolver": "Address for the dispute resolver role."
        }
      },
      "createService(string,string,uint256)": {
        "params": {
          "creditsCostAmount": "The cost in credits for the service.",
          "serviceType": "The type of the service.",
          "visibilityId": "The visibility ID associated with the service."
        }
      },
      "defaultAdmin()": {
        "details": "Returns the address of the current `DEFAULT_ADMIN_ROLE` holder."
      },
      "defaultAdminDelay()": {
        "details": "Returns the delay required to schedule the acceptance of a {defaultAdmin} transfer started. This delay will be added to the current timestamp when calling {beginDefaultAdminTransfer} to set the acceptance schedule. NOTE: If a delay change has been scheduled, it will take effect as soon as the schedule passes, making this function returns the new delay. See {changeDefaultAdminDelay}."
      },
      "defaultAdminDelayIncreaseWait()": {
        "details": "Maximum time in seconds for an increase to {defaultAdminDelay} (that is scheduled using {changeDefaultAdminDelay}) to take effect. Default to 5 days. When the {defaultAdminDelay} is scheduled to be increased, it goes into effect after the new delay has passed with the purpose of giving enough time for reverting any accidental change (i.e. using milliseconds instead of seconds) that may lock the contract. However, to avoid excessive schedules, the wait is capped by this function and it can be overrode for a custom {defaultAdminDelay} increase scheduling. IMPORTANT: Make sure to add a reasonable amount of time while overriding this value, otherwise, there's a risk of setting a high new delay that goes into effect almost immediately without the possibility of human intervention in the case of an input error (eg. set milliseconds instead of seconds)."
      },
      "disputeServiceExecution(uint256,uint256,string)": {
        "params": {
          "disputeData": "The data related to the dispute.",
          "executionNonce": "The ID of the execution.",
          "serviceNonce": "The ID of the service."
        }
      },
      "getRoleAdmin(bytes32)": {
        "details": "Returns the admin role that controls `role`. See {grantRole} and {revokeRole}. To change a role's admin, use {_setRoleAdmin}."
      },
      "getServiceExecution(uint256,uint256)": {
        "params": {
          "executionNonce": "The ID of the execution.",
          "serviceNonce": "The ID of the service."
        },
        "returns": {
          "lastUpdateTimestamp": "The timestamp of the last update.",
          "requester": "The address that requested the execution.",
          "state": "The current state of the execution."
        }
      },
      "grantRole(bytes32,address)": {
        "details": "See {AccessControl-grantRole}. Reverts for `DEFAULT_ADMIN_ROLE`."
      },
      "hasRole(bytes32,address)": {
        "details": "Returns `true` if `account` has been granted `role`."
      },
      "owner()": {
        "details": "See {IERC5313-owner}."
      },
      "pendingDefaultAdmin()": {
        "details": "Returns a tuple of a `newAdmin` and an accept schedule. After the `schedule` passes, the `newAdmin` will be able to accept the {defaultAdmin} role by calling {acceptDefaultAdminTransfer}, completing the role transfer. A zero value only in `acceptSchedule` indicates no pending admin transfer. NOTE: A zero address `newAdmin` means that {defaultAdmin} is being renounced."
      },
      "pendingDefaultAdminDelay()": {
        "details": "Returns a tuple of `newDelay` and an effect schedule. After the `schedule` passes, the `newDelay` will get into effect immediately for every new {defaultAdmin} transfer started with {beginDefaultAdminTransfer}. A zero value only in `effectSchedule` indicates no pending delay change. NOTE: A zero value only for `newDelay` means that the next {defaultAdminDelay} will be zero after the effect schedule."
      },
      "renounceRole(bytes32,address)": {
        "details": "See {AccessControl-renounceRole}. For the `DEFAULT_ADMIN_ROLE`, it only allows renouncing in two steps by first calling {beginDefaultAdminTransfer} to the `address(0)`, so it's required that the {pendingDefaultAdmin} schedule has also passed when calling this function. After its execution, it will not be possible to call `onlyRole(DEFAULT_ADMIN_ROLE)` functions. NOTE: Renouncing `DEFAULT_ADMIN_ROLE` will leave the contract without a {defaultAdmin}, thereby disabling any functionality that is only available for it, and the possibility of reassigning a non-administrated role."
      },
      "requestServiceExecution(uint256,string)": {
        "params": {
          "requestData": "The data related to the request.",
          "serviceNonce": "The ID of the service."
        }
      },
      "resolveServiceExecution(uint256,uint256,bool,string)": {
        "params": {
          "executionNonce": "The ID of the execution.",
          "refund": "Whether the resolution includes a refund.",
          "resolveData": "The data related to the resolution.",
          "serviceNonce": "The ID of the service."
        }
      },
      "revokeRole(bytes32,address)": {
        "details": "See {AccessControl-revokeRole}. Reverts for `DEFAULT_ADMIN_ROLE`."
      },
      "rollbackDefaultAdminDelay()": {
        "details": "Cancels a scheduled {defaultAdminDelay} change. Requirements: - Only can be called by the current {defaultAdmin}. May emit a DefaultAdminDelayChangeCanceled event."
      },
      "supportsInterface(bytes4)": {
        "details": "See {IERC165-supportsInterface}."
      },
      "updateService(uint256,bool)": {
        "params": {
          "enabled": "The new status of the service (true for enabled, false for disabled).",
          "serviceNonce": "The ID of the service to update."
        }
      },
      "validateServiceExecution(uint256,uint256)": {
        "params": {
          "executionNonce": "The ID of the execution.",
          "serviceNonce": "The ID of the service."
        }
      }
    },
    "title": "VisibilityServices",
    "version": 1
  },
  "userdoc": {
    "kind": "user",
    "methods": {
      "acceptServiceExecution(uint256,uint256,string)": {
        "notice": "Accepts a service execution request."
      },
      "cancelServiceExecution(uint256,uint256,string)": {
        "notice": "Cancels a service execution."
      },
      "createService(string,string,uint256)": {
        "notice": "Creates a new service."
      },
      "disputeServiceExecution(uint256,uint256,string)": {
        "notice": "Disputes a service execution."
      },
      "getServiceExecution(uint256,uint256)": {
        "notice": "Retrieves the details of a specific service execution."
      },
      "requestServiceExecution(uint256,string)": {
        "notice": "Requests execution of a service."
      },
      "resolveServiceExecution(uint256,uint256,bool,string)": {
        "notice": "Resolves a disputed service execution."
      },
      "updateService(uint256,bool)": {
        "notice": "Updates the status of an existing service."
      },
      "validateServiceExecution(uint256,uint256)": {
        "notice": "Validates a service execution."
      }
    },
    "notice": "Allows users to spend creator credits (from IVisibilityCredits), for ad purposes.",
    "version": 1
  },
  "storageLayout": {
    "storage": [
      {
        "astId": 26,
        "contract": "contracts/VisibilityServices.sol:VisibilityServices",
        "label": "_roles",
        "offset": 0,
        "slot": "0",
        "type": "t_mapping(t_bytes32,t_struct(RoleData)21_storage)"
      },
      {
        "astId": 400,
        "contract": "contracts/VisibilityServices.sol:VisibilityServices",
        "label": "_pendingDefaultAdmin",
        "offset": 0,
        "slot": "1",
        "type": "t_address"
      },
      {
        "astId": 402,
        "contract": "contracts/VisibilityServices.sol:VisibilityServices",
        "label": "_pendingDefaultAdminSchedule",
        "offset": 20,
        "slot": "1",
        "type": "t_uint48"
      },
      {
        "astId": 404,
        "contract": "contracts/VisibilityServices.sol:VisibilityServices",
        "label": "_currentDelay",
        "offset": 26,
        "slot": "1",
        "type": "t_uint48"
      },
      {
        "astId": 406,
        "contract": "contracts/VisibilityServices.sol:VisibilityServices",
        "label": "_currentDefaultAdmin",
        "offset": 0,
        "slot": "2",
        "type": "t_address"
      },
      {
        "astId": 408,
        "contract": "contracts/VisibilityServices.sol:VisibilityServices",
        "label": "_pendingDelay",
        "offset": 20,
        "slot": "2",
        "type": "t_uint48"
      },
      {
        "astId": 410,
        "contract": "contracts/VisibilityServices.sol:VisibilityServices",
        "label": "_pendingDelaySchedule",
        "offset": 26,
        "slot": "2",
        "type": "t_uint48"
      },
      {
        "astId": 5685,
        "contract": "contracts/VisibilityServices.sol:VisibilityServices",
        "label": "servicesNonce",
        "offset": 0,
        "slot": "3",
        "type": "t_uint256"
      },
      {
        "astId": 5690,
        "contract": "contracts/VisibilityServices.sol:VisibilityServices",
        "label": "services",
        "offset": 0,
        "slot": "4",
        "type": "t_mapping(t_uint256,t_struct(Service)5596_storage)"
      }
    ],
    "types": {
      "t_address": {
        "encoding": "inplace",
        "label": "address",
        "numberOfBytes": "20"
      },
      "t_bool": {
        "encoding": "inplace",
        "label": "bool",
        "numberOfBytes": "1"
      },
      "t_bytes32": {
        "encoding": "inplace",
        "label": "bytes32",
        "numberOfBytes": "32"
      },
      "t_enum(ExecutionState)5562": {
        "encoding": "inplace",
        "label": "enum VisibilityServices.ExecutionState",
        "numberOfBytes": "1"
      },
      "t_mapping(t_address,t_bool)": {
        "encoding": "mapping",
        "key": "t_address",
        "label": "mapping(address => bool)",
        "numberOfBytes": "32",
        "value": "t_bool"
      },
      "t_mapping(t_bytes32,t_struct(RoleData)21_storage)": {
        "encoding": "mapping",
        "key": "t_bytes32",
        "label": "mapping(bytes32 => struct AccessControl.RoleData)",
        "numberOfBytes": "32",
        "value": "t_struct(RoleData)21_storage"
      },
      "t_mapping(t_uint256,t_struct(Execution)5580_storage)": {
        "encoding": "mapping",
        "key": "t_uint256",
        "label": "mapping(uint256 => struct VisibilityServices.Execution)",
        "numberOfBytes": "32",
        "value": "t_struct(Execution)5580_storage"
      },
      "t_mapping(t_uint256,t_struct(Service)5596_storage)": {
        "encoding": "mapping",
        "key": "t_uint256",
        "label": "mapping(uint256 => struct VisibilityServices.Service)",
        "numberOfBytes": "32",
        "value": "t_struct(Service)5596_storage"
      },
      "t_string_storage": {
        "encoding": "bytes",
        "label": "string",
        "numberOfBytes": "32"
      },
      "t_struct(Execution)5580_storage": {
        "encoding": "inplace",
        "label": "struct VisibilityServices.Execution",
        "members": [
          {
            "astId": 5565,
            "contract": "contracts/VisibilityServices.sol:VisibilityServices",
            "label": "state",
            "offset": 0,
            "slot": "0",
            "type": "t_enum(ExecutionState)5562"
          },
          {
            "astId": 5567,
            "contract": "contracts/VisibilityServices.sol:VisibilityServices",
            "label": "requester",
            "offset": 1,
            "slot": "0",
            "type": "t_address"
          },
          {
            "astId": 5569,
            "contract": "contracts/VisibilityServices.sol:VisibilityServices",
            "label": "lastUpdateTimestamp",
            "offset": 0,
            "slot": "1",
            "type": "t_uint256"
          },
          {
            "astId": 5571,
            "contract": "contracts/VisibilityServices.sol:VisibilityServices",
            "label": "requestData",
            "offset": 0,
            "slot": "2",
            "type": "t_string_storage"
          },
          {
            "astId": 5573,
            "contract": "contracts/VisibilityServices.sol:VisibilityServices",
            "label": "responseData",
            "offset": 0,
            "slot": "3",
            "type": "t_string_storage"
          },
          {
            "astId": 5575,
            "contract": "contracts/VisibilityServices.sol:VisibilityServices",
            "label": "cancelData",
            "offset": 0,
            "slot": "4",
            "type": "t_string_storage"
          },
          {
            "astId": 5577,
            "contract": "contracts/VisibilityServices.sol:VisibilityServices",
            "label": "disputeData",
            "offset": 0,
            "slot": "5",
            "type": "t_string_storage"
          },
          {
            "astId": 5579,
            "contract": "contracts/VisibilityServices.sol:VisibilityServices",
            "label": "resolveData",
            "offset": 0,
            "slot": "6",
            "type": "t_string_storage"
          }
        ],
        "numberOfBytes": "224"
      },
      "t_struct(RoleData)21_storage": {
        "encoding": "inplace",
        "label": "struct AccessControl.RoleData",
        "members": [
          {
            "astId": 18,
            "contract": "contracts/VisibilityServices.sol:VisibilityServices",
            "label": "hasRole",
            "offset": 0,
            "slot": "0",
            "type": "t_mapping(t_address,t_bool)"
          },
          {
            "astId": 20,
            "contract": "contracts/VisibilityServices.sol:VisibilityServices",
            "label": "adminRole",
            "offset": 0,
            "slot": "1",
            "type": "t_bytes32"
          }
        ],
        "numberOfBytes": "64"
      },
      "t_struct(Service)5596_storage": {
        "encoding": "inplace",
        "label": "struct VisibilityServices.Service",
        "members": [
          {
            "astId": 5582,
            "contract": "contracts/VisibilityServices.sol:VisibilityServices",
            "label": "enabled",
            "offset": 0,
            "slot": "0",
            "type": "t_bool"
          },
          {
            "astId": 5584,
            "contract": "contracts/VisibilityServices.sol:VisibilityServices",
            "label": "serviceType",
            "offset": 0,
            "slot": "1",
            "type": "t_string_storage"
          },
          {
            "astId": 5586,
            "contract": "contracts/VisibilityServices.sol:VisibilityServices",
            "label": "visibilityId",
            "offset": 0,
            "slot": "2",
            "type": "t_string_storage"
          },
          {
            "astId": 5588,
            "contract": "contracts/VisibilityServices.sol:VisibilityServices",
            "label": "creditsCostAmount",
            "offset": 0,
            "slot": "3",
            "type": "t_uint256"
          },
          {
            "astId": 5590,
            "contract": "contracts/VisibilityServices.sol:VisibilityServices",
            "label": "executionsNonce",
            "offset": 0,
            "slot": "4",
            "type": "t_uint256"
          },
          {
            "astId": 5595,
            "contract": "contracts/VisibilityServices.sol:VisibilityServices",
            "label": "executions",
            "offset": 0,
            "slot": "5",
            "type": "t_mapping(t_uint256,t_struct(Execution)5580_storage)"
          }
        ],
        "numberOfBytes": "192"
      },
      "t_uint256": {
        "encoding": "inplace",
        "label": "uint256",
        "numberOfBytes": "32"
      },
      "t_uint48": {
        "encoding": "inplace",
        "label": "uint48",
        "numberOfBytes": "6"
      }
    }
  }
}