{
  "address": "0x6C865dca5a9777C004Afb14E5F0aC2ddE403C7f8",
  "abi": [
    {
      "inputs": [
        {
          "internalType": "address",
          "name": "treasury",
          "type": "address"
        },
        {
          "internalType": "address",
          "name": "creatorLinker",
          "type": "address"
        }
      ],
      "stateMutability": "nonpayable",
      "type": "constructor"
    },
    {
      "inputs": [],
      "name": "AccessControlBadConfirmation",
      "type": "error"
    },
    {
      "inputs": [
        {
          "internalType": "uint48",
          "name": "schedule",
          "type": "uint48"
        }
      ],
      "name": "AccessControlEnforcedDefaultAdminDelay",
      "type": "error"
    },
    {
      "inputs": [],
      "name": "AccessControlEnforcedDefaultAdminRules",
      "type": "error"
    },
    {
      "inputs": [
        {
          "internalType": "address",
          "name": "defaultAdmin",
          "type": "address"
        }
      ],
      "name": "AccessControlInvalidDefaultAdmin",
      "type": "error"
    },
    {
      "inputs": [
        {
          "internalType": "address",
          "name": "account",
          "type": "address"
        },
        {
          "internalType": "bytes32",
          "name": "neededRole",
          "type": "bytes32"
        }
      ],
      "name": "AccessControlUnauthorizedAccount",
      "type": "error"
    },
    {
      "inputs": [
        {
          "internalType": "address",
          "name": "account",
          "type": "address"
        }
      ],
      "name": "AddressInsufficientBalance",
      "type": "error"
    },
    {
      "inputs": [],
      "name": "FailedInnerCall",
      "type": "error"
    },
    {
      "inputs": [],
      "name": "InvalidAddress",
      "type": "error"
    },
    {
      "inputs": [],
      "name": "InvalidAmount",
      "type": "error"
    },
    {
      "inputs": [],
      "name": "InvalidCreator",
      "type": "error"
    },
    {
      "inputs": [],
      "name": "InvalidFeeParams",
      "type": "error"
    },
    {
      "inputs": [],
      "name": "NotEnoughCreditsOwned",
      "type": "error"
    },
    {
      "inputs": [],
      "name": "NotEnoughEthSent",
      "type": "error"
    },
    {
      "inputs": [],
      "name": "ReentrancyGuardReentrantCall",
      "type": "error"
    },
    {
      "inputs": [
        {
          "internalType": "uint8",
          "name": "bits",
          "type": "uint8"
        },
        {
          "internalType": "uint256",
          "name": "value",
          "type": "uint256"
        }
      ],
      "name": "SafeCastOverflowedUintDowncast",
      "type": "error"
    },
    {
      "anonymous": false,
      "inputs": [
        {
          "indexed": true,
          "internalType": "address",
          "name": "creator",
          "type": "address"
        },
        {
          "indexed": false,
          "internalType": "uint256",
          "name": "amount",
          "type": "uint256"
        }
      ],
      "name": "CreatorFeeClaimed",
      "type": "event"
    },
    {
      "anonymous": false,
      "inputs": [
        {
          "indexed": false,
          "internalType": "string",
          "name": "visibilityId",
          "type": "string"
        },
        {
          "indexed": false,
          "internalType": "address",
          "name": "creator",
          "type": "address"
        }
      ],
      "name": "CreatorVisibilitySet",
      "type": "event"
    },
    {
      "anonymous": false,
      "inputs": [
        {
          "components": [
            {
              "internalType": "address",
              "name": "from",
              "type": "address"
            },
            {
              "internalType": "string",
              "name": "visibilityId",
              "type": "string"
            },
            {
              "internalType": "uint256",
              "name": "amount",
              "type": "uint256"
            },
            {
              "internalType": "bool",
              "name": "isBuy",
              "type": "bool"
            },
            {
              "internalType": "uint256",
              "name": "tradeCost",
              "type": "uint256"
            },
            {
              "internalType": "uint256",
              "name": "creatorFee",
              "type": "uint256"
            },
            {
              "internalType": "uint256",
              "name": "protocolFee",
              "type": "uint256"
            },
            {
              "internalType": "uint256",
              "name": "referrerFee",
              "type": "uint256"
            },
            {
              "internalType": "address",
              "name": "referrer",
              "type": "address"
            },
            {
              "internalType": "uint256",
              "name": "newTotalSupply",
              "type": "uint256"
            },
            {
              "internalType": "uint256",
              "name": "newCurrentPrice",
              "type": "uint256"
            }
          ],
          "indexed": false,
          "internalType": "struct IVisibilityCredits.CreditsTradeEvent",
          "name": "tradeEvent",
          "type": "tuple"
        }
      ],
      "name": "CreditsTrade",
      "type": "event"
    },
    {
      "anonymous": false,
      "inputs": [
        {
          "indexed": false,
          "internalType": "string",
          "name": "visibilityId",
          "type": "string"
        },
        {
          "indexed": true,
          "internalType": "address",
          "name": "from",
          "type": "address"
        },
        {
          "indexed": true,
          "internalType": "address",
          "name": "to",
          "type": "address"
        },
        {
          "indexed": false,
          "internalType": "uint256",
          "name": "amount",
          "type": "uint256"
        }
      ],
      "name": "CreditsTransfer",
      "type": "event"
    },
    {
      "anonymous": false,
      "inputs": [],
      "name": "DefaultAdminDelayChangeCanceled",
      "type": "event"
    },
    {
      "anonymous": false,
      "inputs": [
        {
          "indexed": false,
          "internalType": "uint48",
          "name": "newDelay",
          "type": "uint48"
        },
        {
          "indexed": false,
          "internalType": "uint48",
          "name": "effectSchedule",
          "type": "uint48"
        }
      ],
      "name": "DefaultAdminDelayChangeScheduled",
      "type": "event"
    },
    {
      "anonymous": false,
      "inputs": [],
      "name": "DefaultAdminTransferCanceled",
      "type": "event"
    },
    {
      "anonymous": false,
      "inputs": [
        {
          "indexed": true,
          "internalType": "address",
          "name": "newAdmin",
          "type": "address"
        },
        {
          "indexed": false,
          "internalType": "uint48",
          "name": "acceptSchedule",
          "type": "uint48"
        }
      ],
      "name": "DefaultAdminTransferScheduled",
      "type": "event"
    },
    {
      "anonymous": false,
      "inputs": [
        {
          "indexed": true,
          "internalType": "bytes32",
          "name": "role",
          "type": "bytes32"
        },
        {
          "indexed": true,
          "internalType": "bytes32",
          "name": "previousAdminRole",
          "type": "bytes32"
        },
        {
          "indexed": true,
          "internalType": "bytes32",
          "name": "newAdminRole",
          "type": "bytes32"
        }
      ],
      "name": "RoleAdminChanged",
      "type": "event"
    },
    {
      "anonymous": false,
      "inputs": [
        {
          "indexed": true,
          "internalType": "bytes32",
          "name": "role",
          "type": "bytes32"
        },
        {
          "indexed": true,
          "internalType": "address",
          "name": "account",
          "type": "address"
        },
        {
          "indexed": true,
          "internalType": "address",
          "name": "sender",
          "type": "address"
        }
      ],
      "name": "RoleGranted",
      "type": "event"
    },
    {
      "anonymous": false,
      "inputs": [
        {
          "indexed": true,
          "internalType": "bytes32",
          "name": "role",
          "type": "bytes32"
        },
        {
          "indexed": true,
          "internalType": "address",
          "name": "account",
          "type": "address"
        },
        {
          "indexed": true,
          "internalType": "address",
          "name": "sender",
          "type": "address"
        }
      ],
      "name": "RoleRevoked",
      "type": "event"
    },
    {
      "inputs": [],
      "name": "A",
      "outputs": [
        {
          "internalType": "uint256",
          "name": "",
          "type": "uint256"
        }
      ],
      "stateMutability": "view",
      "type": "function"
    },
    {
      "inputs": [],
      "name": "B",
      "outputs": [
        {
          "internalType": "uint256",
          "name": "",
          "type": "uint256"
        }
      ],
      "stateMutability": "view",
      "type": "function"
    },
    {
      "inputs": [],
      "name": "BASE_PRICE",
      "outputs": [
        {
          "internalType": "uint256",
          "name": "",
          "type": "uint256"
        }
      ],
      "stateMutability": "view",
      "type": "function"
    },
    {
      "inputs": [],
      "name": "CREATORS_CHECKER_ROLE",
      "outputs": [
        {
          "internalType": "bytes32",
          "name": "",
          "type": "bytes32"
        }
      ],
      "stateMutability": "view",
      "type": "function"
    },
    {
      "inputs": [],
      "name": "CREATOR_FEE",
      "outputs": [
        {
          "internalType": "uint256",
          "name": "",
          "type": "uint256"
        }
      ],
      "stateMutability": "view",
      "type": "function"
    },
    {
      "inputs": [],
      "name": "CREDITS_TRANSFER_ROLE",
      "outputs": [
        {
          "internalType": "bytes32",
          "name": "",
          "type": "bytes32"
        }
      ],
      "stateMutability": "view",
      "type": "function"
    },
    {
      "inputs": [],
      "name": "DEFAULT_ADMIN_ROLE",
      "outputs": [
        {
          "internalType": "bytes32",
          "name": "",
          "type": "bytes32"
        }
      ],
      "stateMutability": "view",
      "type": "function"
    },
    {
      "inputs": [],
      "name": "FEE_DENOMINATOR",
      "outputs": [
        {
          "internalType": "uint256",
          "name": "",
          "type": "uint256"
        }
      ],
      "stateMutability": "view",
      "type": "function"
    },
    {
      "inputs": [],
      "name": "MAX_TOTAL_SUPPLY",
      "outputs": [
        {
          "internalType": "uint256",
          "name": "",
          "type": "uint256"
        }
      ],
      "stateMutability": "view",
      "type": "function"
    },
    {
      "inputs": [],
      "name": "PROTOCOL_FEE",
      "outputs": [
        {
          "internalType": "uint256",
          "name": "",
          "type": "uint256"
        }
      ],
      "stateMutability": "view",
      "type": "function"
    },
    {
      "inputs": [],
      "name": "REFERRER_FEE",
      "outputs": [
        {
          "internalType": "uint256",
          "name": "",
          "type": "uint256"
        }
      ],
      "stateMutability": "view",
      "type": "function"
    },
    {
      "inputs": [],
      "name": "acceptDefaultAdminTransfer",
      "outputs": [],
      "stateMutability": "nonpayable",
      "type": "function"
    },
    {
      "inputs": [
        {
          "internalType": "address",
          "name": "newAdmin",
          "type": "address"
        }
      ],
      "name": "beginDefaultAdminTransfer",
      "outputs": [],
      "stateMutability": "nonpayable",
      "type": "function"
    },
    {
      "inputs": [
        {
          "internalType": "string",
          "name": "visibilityId",
          "type": "string"
        },
        {
          "internalType": "uint256",
          "name": "amount",
          "type": "uint256"
        },
        {
          "internalType": "address",
          "name": "referrer",
          "type": "address"
        }
      ],
      "name": "buyCostWithFees",
      "outputs": [
        {
          "internalType": "uint256",
          "name": "totalCost",
          "type": "uint256"
        },
        {
          "internalType": "uint256",
          "name": "tradeCost",
          "type": "uint256"
        },
        {
          "internalType": "uint256",
          "name": "creatorFee",
          "type": "uint256"
        },
        {
          "internalType": "uint256",
          "name": "protocolFee",
          "type": "uint256"
        },
        {
          "internalType": "uint256",
          "name": "referrerFee",
          "type": "uint256"
        }
      ],
      "stateMutability": "view",
      "type": "function"
    },
    {
      "inputs": [
        {
          "internalType": "string",
          "name": "visibilityId",
          "type": "string"
        },
        {
          "internalType": "uint256",
          "name": "amount",
          "type": "uint256"
        },
        {
          "internalType": "address",
          "name": "referrer",
          "type": "address"
        }
      ],
      "name": "buyCredits",
      "outputs": [],
      "stateMutability": "payable",
      "type": "function"
    },
    {
      "inputs": [],
      "name": "cancelDefaultAdminTransfer",
      "outputs": [],
      "stateMutability": "nonpayable",
      "type": "function"
    },
    {
      "inputs": [
        {
          "internalType": "uint48",
          "name": "newDelay",
          "type": "uint48"
        }
      ],
      "name": "changeDefaultAdminDelay",
      "outputs": [],
      "stateMutability": "nonpayable",
      "type": "function"
    },
    {
      "inputs": [
        {
          "internalType": "string",
          "name": "visibilityId",
          "type": "string"
        }
      ],
      "name": "claimCreatorFee",
      "outputs": [],
      "stateMutability": "nonpayable",
      "type": "function"
    },
    {
      "inputs": [
        {
          "internalType": "address",
          "name": "",
          "type": "address"
        }
      ],
      "name": "creators",
      "outputs": [
        {
          "internalType": "string",
          "name": "",
          "type": "string"
        }
      ],
      "stateMutability": "view",
      "type": "function"
    },
    {
      "inputs": [],
      "name": "defaultAdmin",
      "outputs": [
        {
          "internalType": "address",
          "name": "",
          "type": "address"
        }
      ],
      "stateMutability": "view",
      "type": "function"
    },
    {
      "inputs": [],
      "name": "defaultAdminDelay",
      "outputs": [
        {
          "internalType": "uint48",
          "name": "",
          "type": "uint48"
        }
      ],
      "stateMutability": "view",
      "type": "function"
    },
    {
      "inputs": [],
      "name": "defaultAdminDelayIncreaseWait",
      "outputs": [
        {
          "internalType": "uint48",
          "name": "",
          "type": "uint48"
        }
      ],
      "stateMutability": "view",
      "type": "function"
    },
    {
      "inputs": [
        {
          "internalType": "bytes32",
          "name": "role",
          "type": "bytes32"
        }
      ],
      "name": "getRoleAdmin",
      "outputs": [
        {
          "internalType": "bytes32",
          "name": "",
          "type": "bytes32"
        }
      ],
      "stateMutability": "view",
      "type": "function"
    },
    {
      "inputs": [
        {
          "internalType": "string",
          "name": "visibilityId",
          "type": "string"
        }
      ],
      "name": "getVisibility",
      "outputs": [
        {
          "internalType": "address",
          "name": "creator",
          "type": "address"
        },
        {
          "internalType": "uint256",
          "name": "totalSupply",
          "type": "uint256"
        },
        {
          "internalType": "uint256",
          "name": "claimableFeeBalance",
          "type": "uint256"
        },
        {
          "internalType": "uint256",
          "name": "marketCap",
          "type": "uint256"
        }
      ],
      "stateMutability": "view",
      "type": "function"
    },
    {
      "inputs": [
        {
          "internalType": "string",
          "name": "visibilityId",
          "type": "string"
        },
        {
          "internalType": "address",
          "name": "account",
          "type": "address"
        }
      ],
      "name": "getVisibilityCreditBalance",
      "outputs": [
        {
          "internalType": "uint256",
          "name": "",
          "type": "uint256"
        }
      ],
      "stateMutability": "view",
      "type": "function"
    },
    {
      "inputs": [
        {
          "internalType": "string",
          "name": "visibilityId",
          "type": "string"
        }
      ],
      "name": "getVisibilityCurrentPrice",
      "outputs": [
        {
          "internalType": "uint256",
          "name": "",
          "type": "uint256"
        }
      ],
      "stateMutability": "view",
      "type": "function"
    },
    {
      "inputs": [
        {
          "internalType": "string",
          "name": "visibilityId",
          "type": "string"
        }
      ],
      "name": "getVisibilityKey",
      "outputs": [
        {
          "internalType": "bytes32",
          "name": "",
          "type": "bytes32"
        }
      ],
      "stateMutability": "pure",
      "type": "function"
    },
    {
      "inputs": [
        {
          "internalType": "address",
          "name": "grantee",
          "type": "address"
        }
      ],
      "name": "grantCreatorTransferRole",
      "outputs": [],
      "stateMutability": "nonpayable",
      "type": "function"
    },
    {
      "inputs": [
        {
          "internalType": "bytes32",
          "name": "role",
          "type": "bytes32"
        },
        {
          "internalType": "address",
          "name": "account",
          "type": "address"
        }
      ],
      "name": "grantRole",
      "outputs": [],
      "stateMutability": "nonpayable",
      "type": "function"
    },
    {
      "inputs": [
        {
          "internalType": "bytes32",
          "name": "role",
          "type": "bytes32"
        },
        {
          "internalType": "address",
          "name": "account",
          "type": "address"
        }
      ],
      "name": "hasRole",
      "outputs": [
        {
          "internalType": "bool",
          "name": "",
          "type": "bool"
        }
      ],
      "stateMutability": "view",
      "type": "function"
    },
    {
      "inputs": [],
      "name": "owner",
      "outputs": [
        {
          "internalType": "address",
          "name": "",
          "type": "address"
        }
      ],
      "stateMutability": "view",
      "type": "function"
    },
    {
      "inputs": [],
      "name": "pendingDefaultAdmin",
      "outputs": [
        {
          "internalType": "address",
          "name": "newAdmin",
          "type": "address"
        },
        {
          "internalType": "uint48",
          "name": "schedule",
          "type": "uint48"
        }
      ],
      "stateMutability": "view",
      "type": "function"
    },
    {
      "inputs": [],
      "name": "pendingDefaultAdminDelay",
      "outputs": [
        {
          "internalType": "uint48",
          "name": "newDelay",
          "type": "uint48"
        },
        {
          "internalType": "uint48",
          "name": "schedule",
          "type": "uint48"
        }
      ],
      "stateMutability": "view",
      "type": "function"
    },
    {
      "inputs": [],
      "name": "protocolTreasury",
      "outputs": [
        {
          "internalType": "address payable",
          "name": "",
          "type": "address"
        }
      ],
      "stateMutability": "view",
      "type": "function"
    },
    {
      "inputs": [
        {
          "internalType": "bytes32",
          "name": "role",
          "type": "bytes32"
        },
        {
          "internalType": "address",
          "name": "account",
          "type": "address"
        }
      ],
      "name": "renounceRole",
      "outputs": [],
      "stateMutability": "nonpayable",
      "type": "function"
    },
    {
      "inputs": [
        {
          "internalType": "bytes32",
          "name": "role",
          "type": "bytes32"
        },
        {
          "internalType": "address",
          "name": "account",
          "type": "address"
        }
      ],
      "name": "revokeRole",
      "outputs": [],
      "stateMutability": "nonpayable",
      "type": "function"
    },
    {
      "inputs": [],
      "name": "rollbackDefaultAdminDelay",
      "outputs": [],
      "stateMutability": "nonpayable",
      "type": "function"
    },
    {
      "inputs": [
        {
          "internalType": "string",
          "name": "visibilityId",
          "type": "string"
        },
        {
          "internalType": "uint256",
          "name": "amount",
          "type": "uint256"
        },
        {
          "internalType": "address",
          "name": "referrer",
          "type": "address"
        }
      ],
      "name": "sellCostWithFees",
      "outputs": [
        {
          "internalType": "uint256",
          "name": "reimbursement",
          "type": "uint256"
        },
        {
          "internalType": "uint256",
          "name": "tradeCost",
          "type": "uint256"
        },
        {
          "internalType": "uint256",
          "name": "creatorFee",
          "type": "uint256"
        },
        {
          "internalType": "uint256",
          "name": "protocolFee",
          "type": "uint256"
        },
        {
          "internalType": "uint256",
          "name": "referrerFee",
          "type": "uint256"
        }
      ],
      "stateMutability": "view",
      "type": "function"
    },
    {
      "inputs": [
        {
          "internalType": "string",
          "name": "visibilityId",
          "type": "string"
        },
        {
          "internalType": "uint256",
          "name": "amount",
          "type": "uint256"
        },
        {
          "internalType": "address",
          "name": "referrer",
          "type": "address"
        }
      ],
      "name": "sellCredits",
      "outputs": [],
      "stateMutability": "nonpayable",
      "type": "function"
    },
    {
      "inputs": [
        {
          "internalType": "string",
          "name": "visibilityId",
          "type": "string"
        },
        {
          "internalType": "address",
          "name": "creator",
          "type": "address"
        }
      ],
      "name": "setCreatorVisibility",
      "outputs": [],
      "stateMutability": "nonpayable",
      "type": "function"
    },
    {
      "inputs": [
        {
          "internalType": "bytes4",
          "name": "interfaceId",
          "type": "bytes4"
        }
      ],
      "name": "supportsInterface",
      "outputs": [
        {
          "internalType": "bool",
          "name": "",
          "type": "bool"
        }
      ],
      "stateMutability": "view",
      "type": "function"
    },
    {
      "inputs": [
        {
          "internalType": "uint256",
          "name": "",
          "type": "uint256"
        }
      ],
      "name": "trades",
      "outputs": [
        {
          "internalType": "address",
          "name": "from",
          "type": "address"
        },
        {
          "internalType": "string",
          "name": "visibilityId",
          "type": "string"
        },
        {
          "internalType": "uint256",
          "name": "amount",
          "type": "uint256"
        },
        {
          "internalType": "bool",
          "name": "isBuy",
          "type": "bool"
        },
        {
          "internalType": "uint256",
          "name": "tradeCost",
          "type": "uint256"
        },
        {
          "internalType": "uint256",
          "name": "creatorFee",
          "type": "uint256"
        },
        {
          "internalType": "uint256",
          "name": "protocolFee",
          "type": "uint256"
        },
        {
          "internalType": "uint256",
          "name": "referrerFee",
          "type": "uint256"
        },
        {
          "internalType": "address",
          "name": "referrer",
          "type": "address"
        },
        {
          "internalType": "uint256",
          "name": "newTotalSupply",
          "type": "uint256"
        },
        {
          "internalType": "uint256",
          "name": "newCurrentPrice",
          "type": "uint256"
        }
      ],
      "stateMutability": "view",
      "type": "function"
    },
    {
      "inputs": [],
      "name": "tradesNonce",
      "outputs": [
        {
          "internalType": "uint256",
          "name": "",
          "type": "uint256"
        }
      ],
      "stateMutability": "view",
      "type": "function"
    },
    {
      "inputs": [
        {
          "internalType": "string",
          "name": "visibilityId",
          "type": "string"
        },
        {
          "internalType": "address",
          "name": "from",
          "type": "address"
        },
        {
          "internalType": "address",
          "name": "to",
          "type": "address"
        },
        {
          "internalType": "uint256",
          "name": "amount",
          "type": "uint256"
        }
      ],
      "name": "transferCredits",
      "outputs": [],
      "stateMutability": "nonpayable",
      "type": "function"
    },
    {
      "inputs": [
        {
          "internalType": "address",
          "name": "treasury",
          "type": "address"
        }
      ],
      "name": "updateTreasury",
      "outputs": [],
      "stateMutability": "nonpayable",
      "type": "function"
    },
    {
      "inputs": [
        {
          "internalType": "bytes32",
          "name": "",
          "type": "bytes32"
        }
      ],
      "name": "visibilityCredits",
      "outputs": [
        {
          "internalType": "address",
          "name": "creator",
          "type": "address"
        },
        {
          "internalType": "uint256",
          "name": "totalSupply",
          "type": "uint256"
        },
        {
          "internalType": "uint256",
          "name": "claimableFeeBalance",
          "type": "uint256"
        }
      ],
      "stateMutability": "view",
      "type": "function"
    }
  ],
  "transactionHash": "0xf7b65960951673fbd1e7f9e79fa749c7ed70a2de0fb96d6a46949fd36495c911",
  "args": [
    "0xda6bbE41370cA0c2b132ebe5FBeD4c0782E0eCB5",
    "0xda6bbE41370cA0c2b132ebe5FBeD4c0782E0eCB5"
  ],
  "numDeployments": 1,
  "solcInputHash": "0cb86c157bddc4f837cf4eab1eb6453e",
  "bytecode": "0x6080346200013357620033ba90601f38839003908101601f19168201906001600160401b0382118383101762000138578083916040958694855283398101031262000133576200005d602062000055836200014e565b92016200014e565b9033156200011b57600180546001600160d01b03166107e960d71b1790556002546001600160a01b03918282166200010a57336001600160a01b03199283168117600255839190620000af9062000163565b50600160035516908115620000f9576004541617600455811615620000e857620000d990620001e3565b50516131149081620002868239f35b815163e6c4247b60e01b8152600490fd5b845163e6c4247b60e01b8152600490fd5b8451631fe1e13d60e11b8152600490fd5b8251636116401160e11b815260006004820152602490fd5b600080fd5b634e487b7160e01b600052604160045260246000fd5b51906001600160a01b03821682036200013357565b6001600160a01b031660008181527fad3228b676f7d3cd4284a5443f17f1962b36e491b30a40b2405849e597ba5fb5602052604081205490919060ff16620001df57818052816020526040822081835260205260408220600160ff1982541617905533916000805160206200339a8339815191528180a4600190565b5090565b6001600160a01b031660008181527f90e7ad853e9fac4d43ebdcc2110730a1fc757f3400422120e55dadc8243cafee60205260408120549091907f43ab615f45e426ee136a7c361cb7eec81a0a41f7c8e223ef2ba841ac2d6d13499060ff166200028057808352826020526040832082845260205260408320600160ff198254161790556000805160206200339a833981519152339380a4600190565b50509056fe608080604052600436101561001357600080fd5b60003560e01c90816301ffc9a71461221857508063022d63fb146121fa57806302304c76146121ae5780630aa6220b146120e65780630b4501fd14611eb55780630ec3d9b0146120ab578063162e7c2c14611eba5780631a7dfa9f14611eb55780631e6c598e14611ddf5780632268a97214611ad6578063248a9ca314611aa75780632f2ff15d14611a6257806331ffa145146117f5578063320ba8f71461176557806332e7c5bf1461174457806333039d3d1461172157806336568abe146115c0578063406f9248146114db57806357adb295146114be578063634e93da146113b1578063649a5ec7146111d75780637974f3d8146111ae5780637f51bb1f14611119578063803db96d146110e557806384ef8ffc1461103a57806386f539fc1461108c5780638767e6381461106e5780638da5cb5b1461103a57806391d1485414610fdf578063933166e114610f84578063a1eda53c14610f1d578063a217fddf14610f01578063a2cd009e14610ecb578063c42d17e214610e6e578063cc8463c814610e43578063ce9823fa14610cab578063cefc142914610b5d578063cf6eefb714610af0578063d547741f14610a7f578063d602b9fd14610a04578063d73792a9146109e6578063d8b5a8b714610991578063eccc35fe1461029a578063f446c1d01461027a578063f86325ed146102595763fb29b8c21461021957600080fd5b346102545760006003193601126102545760206040517f4032bac08a63c53f52fb370aca24a5388e07cc0d7ad5c5253fe4892e6710a1848152f35b600080fd5b34610254576000600319360112610254576020604051655af3107a40008152f35b3461025457600060031936011261025457602060405164037e11d6008152f35b34610254576102a83661235d565b906102b1612c25565b6102bb8385612cab565b60005260056020526040600020913360005260038301602052816040600020541061096757600183015494600083871061093d576102f98488612a0a565b841561093d5761030985826129fd565b90816000198101116107be578061083c5750610329816000198101612c98565b7f7fffffffffffffffffffffffffffffffffffffffffffffffffffffffffffffff6000198301166000198301036107be57600019820160011b906001820182116107be57610380600691600161038c940190612c98565b04916000198101612c98565b60011c905b655af3107a40009086820291820487036107be5764037e11d60090808202918204036107be576103c0916129fd565b906516bcc41e900090808202918204036107be576103dd916129fd565b614e209181838102048314821517156107be578573ffffffffffffffffffffffffffffffffffffffff8616156107ed5750506127109080828102048214811517156107be5780868492620f4240809582020496879561043b83612c81565b04966104ee9d600361048a73ffffffffffffffffffffffffffffffffffffffff9d610484620f42409b61047f8e61047f8f9b6104f89c6104c69b5b82020490612a0a565b612a0a565b93612a0a565b9d8e6001820155600281016104a48b8b8b020482546129fd565b9055336000520160205260406000206104be868254612a0a565b905533612b70565b876107ad575b6104da878b60045416612b70565b6104e38b613095565b9b6040519d8e612471565b338e523691612a33565b60208c015260408b0152600060608b01528060808b0152020460a088015260c087015260e0860152166101008401526101208301526101408201526007546000526008602052604060002073ffffffffffffffffffffffffffffffffffffffff8251167fffffffffffffffffffffffff0000000000000000000000000000000000000000825416178155602082015180519067ffffffffffffffff821161077e576105b3826105aa600186015461241e565b60018601612a6a565b602090601f83116001146106e85791806106d394927f0e2357d853a109acf13b03ccdd714c5e3dd7047234851e6ed9e115357b63caee96946000926106dd575b50506000198260011b9260031b1c19161760018201555b6040820151600282015561063460608301511515600383019060ff60ff1983541691151516179055565b6080820151600482015560a0820151600582015560c0820151600682015560e082015160078201556008810173ffffffffffffffffffffffffffffffffffffffff610100840151167fffffffffffffffffffffffff00000000000000000000000000000000000000008254161790556101208201516009820155600a6101408301519101556106c4600754612abe565b60075560405191829182612acd565b0390a16001600355005b0151905086806105f3565b906001840160005260206000209160005b601f19851681106107665750926106d394926001927f0e2357d853a109acf13b03ccdd714c5e3dd7047234851e6ed9e115357b63caee979583601f1981161061074d575b505050811b01600182015561060a565b015160001960f88460031b161c1916905586808061073d565b919260206001819286850151815501940192016106f9565b7f4e487b7100000000000000000000000000000000000000000000000000000000600052604160045260246000fd5b6107b9888b8b16612b70565b6104cc565b7f4e487b7100000000000000000000000000000000000000000000000000000000600052601160045260246000fd5b9181949281859394848202620f42409004966104ee9d600361048a73ffffffffffffffffffffffffffffffffffffffff9d610484620f42409b61047f8e61047f8f9b6104f89c6104c69b610476565b61084a826000198101612c98565b7f7fffffffffffffffffffffffffffffffffffffffffffffffffffffffffffffff6000198401166000198401036107be57600019830160011b90600182018092116107be5760069161089b91612c98565b0490806000198101116107be576108b6816000198101612c98565b918160011b927f7fffffffffffffffffffffffffffffffffffffffffffffffffffffffffffffff831683036107be57836000198101116107be5761091561092e92600661090e61092094600019610937990190612c98565b0490612a0a565b946000198101612c98565b60011c916000198101612c98565b60011c90612a0a565b90610391565b60046040517f2c5211c6000000000000000000000000000000000000000000000000000000008152fd5b60046040517f15761ddb000000000000000000000000000000000000000000000000000000008152fd5b34610254576109a96109a2366123ce565b9291612cab565b600052600560205273ffffffffffffffffffffffffffffffffffffffff600360406000200191166000526020526020604060002054604051908152f35b34610254576000600319360112610254576020604051620f42408152f35b3461025457600060031936011261025457610a1d612598565b600180547fffffffffffff0000000000000000000000000000000000000000000000000000811690915560a01c65ffffffffffff16610a5857005b7f8886ebfc4259abdbc16601dd8fb5678e54878f47b3c34836cfc51154a9605109600080a1005b3461025457604060031936011261025457600435610a9b612317565b8115610ac65781610ac4926000526000602052610abf6001604060002001546125d2565b6127db565b005b60046040517f3fc3c27a000000000000000000000000000000000000000000000000000000008152fd5b3461025457600060031936011261025457604065ffffffffffff610b376001549065ffffffffffff73ffffffffffffffffffffffffffffffffffffffff83169260a01c1690565b73ffffffffffffffffffffffffffffffffffffffff849392935193168352166020820152f35b346102545760006003193601126102545760015473ffffffffffffffffffffffffffffffffffffffff9081163303610c7b5760015473ffffffffffffffffffffffffffffffffffffffff81169060a01c65ffffffffffff1680158015610c71575b610c405750600254610bf8837fffffffffffffffffffffffff00000000000000000000000000000000000000009283811660025516612845565b5060025490838216610ac657610c159383169116176002556126b7565b50600180547fffffffffffff0000000000000000000000000000000000000000000000000000169055005b602490604051907f19ca5ebb0000000000000000000000000000000000000000000000000000000082526004820152fd5b5042811015610bbe565b60246040517fc22c8022000000000000000000000000000000000000000000000000000000008152336004820152fd5b346102545760806003193601126102545760043567ffffffffffffffff811161025457610cdc9036906004016122e9565b610ce4612317565b6044359273ffffffffffffffffffffffffffffffffffffffff92838516809503610254573360009081527fa947032688ddb2fe0e5f4dccbb9c0c3b45c325f4b9a00a607b6e417cb9394f6b602090815260409091205460643595907f4032bac08a63c53f52fb370aca24a5388e07cc0d7ad5c5253fe4892e6710a1849060ff1615610e0c5750610d748385612cab565b600052600582526003604060002001941694856000528482528060406000205410610967577f97f8390f303d41a6db07b9e74de160b187da60bc50baf55ed8cdf777ba2d6a8494866000528083526040600020610dd2838254612a0a565b90558760005282526040600020610dea8282546129fd565b9055610e03604051948594604086526040860191612c60565b918301520390a3005b604490604051907fe2517d3f0000000000000000000000000000000000000000000000000000000082523360048301526024820152fd5b34610254576000600319360112610254576020610e5e61295f565b65ffffffffffff60405191168152f35b346102545760206003193601126102545760043567ffffffffffffffff811161025457610ea2610ea89136906004016122e9565b90612cab565b60005260056020526020610ec3600160406000200154613095565b604051908152f35b346102545760206003193601126102545760043567ffffffffffffffff811161025457610ec3610ea260209236906004016122e9565b3461025457600060031936011261025457602060405160008152f35b34610254576000600319360112610254576002548060d01c9081151580610f7a575b15610f705760a01c65ffffffffffff165b6040805165ffffffffffff928316815292909116602083015290f35b0390f35b5050600080610f50565b5042821015610f3f565b346102545760206003193601126102545773ffffffffffffffffffffffffffffffffffffffff610fb261233a565b166000526006602052610f6c610fcb60406000206124b1565b604051918291602083526020830190612558565b3461025457604060031936011261025457610ff8612317565b600435600052600060205273ffffffffffffffffffffffffffffffffffffffff60406000209116600052602052602060ff604060002054166040519015158152f35b3461025457600060031936011261025457602073ffffffffffffffffffffffffffffffffffffffff60025416604051908152f35b34610254576000600319360112610254576020600754604051908152f35b346102545760206003193601126102545760043560005260056020526060604060002073ffffffffffffffffffffffffffffffffffffffff81541690600260018201549101549060405192835260208301526040820152f35b3461025457600060031936011261025457602073ffffffffffffffffffffffffffffffffffffffff60045416604051908152f35b346102545760206003193601126102545773ffffffffffffffffffffffffffffffffffffffff61114761233a565b61114f612598565b168015611184577fffffffffffffffffffffffff00000000000000000000000000000000000000006004541617600455600080f35b60046040517fe6c4247b000000000000000000000000000000000000000000000000000000008152fd5b3461025457602060031936011261025457610ac46111ca61233a565b6111d2612598565b6125f8565b346102545760206003193601126102545765ffffffffffff6004358181169182820361025457611205612598565b61120e426129b2565b928161121861295f565b168082111561137d575092611260917ff1038c18cf84a56e432fdbfaf746924b7ea511dfe03a6506a0ceba4888788d9b946206978080821060001461137657505b1690612998565b906002548060d01c806112f2575b50506002805473ffffffffffffffffffffffffffffffffffffffff1660a083901b79ffffffffffff0000000000000000000000000000000000000000161760d084901b7fffffffffffff0000000000000000000000000000000000000000000000000000161790556040805165ffffffffffff9283168152919092166020820152a1005b42111561134b5779ffffffffffffffffffffffffffffffffffffffffffffffffffff7fffffffffffff00000000000000000000000000000000000000000000000000006001549260301b169116176001555b838061126e565b507f2b1fa2edafe6f7b9e97c1a9e0c3660e645beb2dcaa2d45bdbf9beaf5472e1ec5600080a1611344565b9050611259565b039081116107be577ff1038c18cf84a56e432fdbfaf746924b7ea511dfe03a6506a0ceba4888788d9b926112609190612998565b34610254576020600319360112610254576113ca61233a565b6113d2612598565b7f3377dc44241e779dd06afab5b788a35ca5f3b778836e2990bdb26a2a4b2e5ed6602061140f611401426129b2565b61140961295f565b90612998565b600180547fffffffffffff0000000000000000000000000000000000000000000000000000811673ffffffffffffffffffffffffffffffffffffffff9690961695861760a084811b79ffffffffffff0000000000000000000000000000000000000000169190911790925565ffffffffffff911c8116611494575b60405191168152a2005b7f8886ebfc4259abdbc16601dd8fb5678e54878f47b3c34836cfc51154a9605109600080a161148a565b346102545760006003193601126102545760206040516127108152f35b346102545760206003193601126102545760043567ffffffffffffffff81116102545761150f61151d9136906004016122e9565b90611518612c25565b612cab565b600052600560205260406000206002810190815490811561093d575473ffffffffffffffffffffffffffffffffffffffff16918215611596577fb0941a79b0a1d2dc32262e01138093b93ba4e92878c9b282875850dec054f009916000602092556115888185612b70565b604051908152a26001600355005b60046040517fcb6e5344000000000000000000000000000000000000000000000000000000008152fd5b34610254576040600319360112610254576004356115dc612317565b8115806116fd575b611639575b3373ffffffffffffffffffffffffffffffffffffffff82160361160f57610ac4916127db565b60046040517f6697b232000000000000000000000000000000000000000000000000000000008152fd5b60015465ffffffffffff60a082901c169073ffffffffffffffffffffffffffffffffffffffff16158015906116ed575b80156116db575b6116a257507fffffffffffff000000000000ffffffffffffffffffffffffffffffffffffffff600154166001556115e9565b60249065ffffffffffff604051917f19ca5ebb000000000000000000000000000000000000000000000000000000008352166004820152fd5b504265ffffffffffff82161015611670565b5065ffffffffffff811615611669565b5073ffffffffffffffffffffffffffffffffffffffff8060025416908216146115e4565b3461025457600060031936011261025457602060405167ffffffffffffffff8152f35b346102545760006003193601126102545760206040516516bcc41e90008152f35b346102545760206003193601126102545760043567ffffffffffffffff811161025457610ea26117999136906004016122e9565b60005260056020526080604060002073ffffffffffffffffffffffffffffffffffffffff81541690600260018201549101546117dd6117d783613095565b83612c98565b91604051938452602084015260408301526060820152f35b34610254576118106118063661235d565b9293919093612cab565b6000526005602052600180604060002001549260009381811061093d578161183791612a0a565b91811561093d5761184882846129fd565b600019808201948286116107be57806119ae5750506118678185612c98565b9084831b7f7fffffffffffffffffffffffffffffffffffffffffffffffffffffffffffffff861686036107be578381018091116107be576118ad6006916118b494612c98565b0494612c98565b901c915b655af3107a400091808302928304036107be5764037e11d60090808202918204036107be576118e6916129fd565b906516bcc41e900090808202918204036107be57611903916129fd565b91614e209081840290841592858304148317156107be57620f4240918290049373ffffffffffffffffffffffffffffffffffffffff16156119a1575061271091828502928584041417156107be5780610f6c92049061196185612c81565b045b6119758261047f8361047f888a612a0a565b93604051958695869192608093969594919660a084019784526020840152604083015260608201520152565b9050610f6c915082611963565b6119bb8387959395612c98565b9086831b7f7fffffffffffffffffffffffffffffffffffffffffffffffffffffffffffffff9283891689036107be578482018092116107be57600691611a0091612c98565b0491858201948286116107be57611a178387612c98565b9683861b92841684036107be5782019182116107be57611a46611a5494600661090e611a4c95611a5c9b612c98565b98612c98565b831c93612c98565b901c90612a0a565b916118b8565b3461025457604060031936011261025457600435611a7e612317565b8115610ac65781610ac4926000526000602052611aa26001604060002001546125d2565b612754565b346102545760206003193601126102545760043560005260006020526020600160406000200154604051908152f35b611adf3661235d565b90611aeb939293612c25565b611af58484612cab565b6000526005602052604060002091600183015491611b14828285612cdf565b93611b2e85611b2984611b29878997996129fd565b6129fd565b803410611db55767ffffffffffffffff611b48838a6129fd565b1161093d576003611b6e8373ffffffffffffffffffffffffffffffffffffffff9a6129fd565b998a600182015560028101611b848782546129fd565b905533600052016020526040600020611b9e8382546129fd565b905585611da4575b611bb4858960045416612b70565b803411611d8b575b50611be1611bc989613095565b996040519b611bd78d612471565b338d523691612a33565b60208b015260408a0152600160608a0152608089015260a088015260c087015260e0860152166101008401526101208301526101408201526007546000526008602052604060002073ffffffffffffffffffffffffffffffffffffffff8251167fffffffffffffffffffffffff0000000000000000000000000000000000000000825416178155602082015180519067ffffffffffffffff821161077e57611c90826105aa600186015461241e565b602090601f8311600114611d0f5791806106d394927f0e2357d853a109acf13b03ccdd714c5e3dd7047234851e6ed9e115357b63caee96946000926106dd5750506000198260011b9260031b1c19161760018201556040820151600282015561063460608301511515600383019060ff60ff1983541691151516179055565b906001840160005260206000209160005b601f1985168110611d735750926106d394926001927f0e2357d853a109acf13b03ccdd714c5e3dd7047234851e6ed9e115357b63caee979583601f1981161061074d57505050811b01600182015561060a565b91926020600181928685015181550194019201611d20565b611d98611d9e9134612a0a565b33612b70565b8a611bbc565b611db086898916612b70565b611ba6565b60046040517fe16b18b4000000000000000000000000000000000000000000000000000000008152fd5b34610254576020600319360112610254576004356000526008602052604060002073ffffffffffffffffffffffffffffffffffffffff908181541690611e27600182016124b1565b9260028201549160ff60038201541691600482015490600583015460068401549060078501549260088601541693600a600987015496015496611e7e6040519b8c9b8c5260208c61016091829101528c0190612558565b9860408b0152151560608a0152608089015260a088015260c087015260e08601526101008501526101208401526101408301520390f35b6123b1565b3461025457611ec8366123ce565b3360009081527f90e7ad853e9fac4d43ebdcc2110730a1fc757f3400422120e55dadc8243cafee6020908152604090912054919392917f43ab615f45e426ee136a7c361cb7eec81a0a41f7c8e223ef2ba841ac2d6d13499060ff1615610e0c5750611f338284612cab565b6000526005815273ffffffffffffffffffffffffffffffffffffffff6040600020941693847fffffffffffffffffffffffff0000000000000000000000000000000000000000825416179055836000526006815260406000209367ffffffffffffffff831161077e57611fb083611faa875461241e565b87612a6a565b600094601f841160011461202857837f13ef5290f6bc062f4adcc6a4a09d9f745ebba9e80fac6b92b0f1147fce4323289660009161201d575b508460011b906000198660031b1c19161790555b612014604051948594604086526040860191612c60565b918301520390a1005b905085013587611fe9565b601f1984169581600052836000209060005b8881106120945750857f13ef5290f6bc062f4adcc6a4a09d9f745ebba9e80fac6b92b0f1147fce432328981061207a575b5050600184811b019055611ffd565b60001960f88760031b161c1990870135169055868061206b565b90918560018192858b01358155019301910161203a565b346102545760006003193601126102545760206040517f43ab615f45e426ee136a7c361cb7eec81a0a41f7c8e223ef2ba841ac2d6d13498152f35b34610254576000600319360112610254576120ff612598565b6002548060d01c8061212a575b6002805473ffffffffffffffffffffffffffffffffffffffff169055005b4211156121835779ffffffffffffffffffffffffffffffffffffffffffffffffffff7fffffffffffff00000000000000000000000000000000000000000000000000006001549260301b169116176001555b808061210c565b507f2b1fa2edafe6f7b9e97c1a9e0c3660e645beb2dcaa2d45bdbf9beaf5472e1ec5600080a161217c565b3461025457610f6c6121e46121ce6121c53661235d565b93919092612cab565b6000526005602052600160406000200154612cdf565b9061197582611b2983611b2987899a98996129fd565b34610254576000600319360112610254576020604051620697808152f35b3461025457602060031936011261025457600435907fffffffff00000000000000000000000000000000000000000000000000000000821680920361025457817f31498786000000000000000000000000000000000000000000000000000000006020931490811561228c575b5015158152f35b7f7965db0b000000000000000000000000000000000000000000000000000000008114915081156122bf575b5083612285565b7f01ffc9a700000000000000000000000000000000000000000000000000000000915014836122b8565b9181601f840112156102545782359167ffffffffffffffff8311610254576020838186019501011161025457565b6024359073ffffffffffffffffffffffffffffffffffffffff8216820361025457565b6004359073ffffffffffffffffffffffffffffffffffffffff8216820361025457565b6060600319820112610254576004359067ffffffffffffffff821161025457612388916004016122e9565b90916024359060443573ffffffffffffffffffffffffffffffffffffffff811681036102545790565b34610254576000600319360112610254576020604051614e208152f35b6040600319820112610254576004359067ffffffffffffffff8211610254576123f9916004016122e9565b909160243573ffffffffffffffffffffffffffffffffffffffff811681036102545790565b90600182811c92168015612467575b602083101461243857565b7f4e487b7100000000000000000000000000000000000000000000000000000000600052602260045260246000fd5b91607f169161242d565b610160810190811067ffffffffffffffff82111761077e57604052565b90601f601f19910116810190811067ffffffffffffffff82111761077e57604052565b90604051918260008254926124c58461241e565b90818452600194858116908160001461253457506001146124f1575b50506124ef9250038361248e565b565b9093915060005260209081600020936000915b81831061251c5750506124ef935082010138806124e1565b85548884018501529485019487945091830191612504565b90506124ef95506020935060ff1991501682840152151560051b82010138806124e1565b919082519283825260005b848110612584575050601f19601f8460006020809697860101520116010190565b602081830181015184830182015201612563565b3360009081527fad3228b676f7d3cd4284a5443f17f1962b36e491b30a40b2405849e597ba5fb5602052604081205460ff1615610e0c5750565b80600052600060205260406000203360005260205260ff6040600020541615610e0c5750565b73ffffffffffffffffffffffffffffffffffffffff1660008181527fa947032688ddb2fe0e5f4dccbb9c0c3b45c325f4b9a00a607b6e417cb9394f6b60205260408120549091907f4032bac08a63c53f52fb370aca24a5388e07cc0d7ad5c5253fe4892e6710a1849060ff166126b257808352826020526040832082845260205260408320600160ff198254161790557f2f8788117e7eff1d82e926ec794901d17c78024a50270940304540a733656f0d339380a4600190565b505090565b73ffffffffffffffffffffffffffffffffffffffff1660008181527fad3228b676f7d3cd4284a5443f17f1962b36e491b30a40b2405849e597ba5fb5602052604081205490919060ff1661275057818052816020526040822081835260205260408220600160ff1982541617905533917f2f8788117e7eff1d82e926ec794901d17c78024a50270940304540a733656f0d8180a4600190565b5090565b906000918083528260205273ffffffffffffffffffffffffffffffffffffffff6040842092169182845260205260ff604084205416156000146126b257808352826020526040832082845260205260408320600160ff198254161790557f2f8788117e7eff1d82e926ec794901d17c78024a50270940304540a733656f0d339380a4600190565b906127f191801580612821575b6127f4576128dc565b90565b7fffffffffffffffffffffffff0000000000000000000000000000000000000000600254166002556128dc565b5073ffffffffffffffffffffffffffffffffffffffff8060025416908316146127e8565b73ffffffffffffffffffffffffffffffffffffffff1660008181527fad3228b676f7d3cd4284a5443f17f1962b36e491b30a40b2405849e597ba5fb5602052604081205490919060ff16156127505781805281602052604082208183526020526040822060ff19815416905533917ff6391f5c32d9c69d2a47ea670b442974b53935d1edc7fd64eb21e047a839171b8180a4600190565b906000918083528260205273ffffffffffffffffffffffffffffffffffffffff6040842092169182845260205260ff6040842054166000146126b25780835282602052604083208284526020526040832060ff1981541690557ff6391f5c32d9c69d2a47ea670b442974b53935d1edc7fd64eb21e047a839171b339380a4600190565b6002548060d01c801515908161298e575b50156129845760a01c65ffffffffffff1690565b5060015460d01c90565b9050421138612970565b91909165ffffffffffff808094169116019182116107be57565b65ffffffffffff908181116129c5571690565b604490604051907f6dfcc650000000000000000000000000000000000000000000000000000000008252603060048301526024820152fd5b919082018092116107be57565b919082039182116107be57565b67ffffffffffffffff811161077e57601f01601f191660200190565b929192612a3f82612a17565b91612a4d604051938461248e565b829481845281830111610254578281602093846000960137010152565b90601f8111612a7857505050565b600091825260208220906020601f850160051c83019410612ab4575b601f0160051c01915b828110612aa957505050565b818155600101612a9d565b9092508290612a94565b60001981146107be5760010190565b6020815273ffffffffffffffffffffffffffffffffffffffff91828151166020830152602081015190612b0e61016092836040860152610180850190612558565b9360408201516060850152606082015115156080850152608082015160a085015260a082015160c085015260c082015160e085015260e08201516101009081860152820151166101209081850152810151906101409182850152015191015290565b814710612bf557600080809373ffffffffffffffffffffffffffffffffffffffff8294165af13d15612bf0573d612ba681612a17565b90612bb4604051928361248e565b8152600060203d92013e5b15612bc657565b60046040517f1425ea42000000000000000000000000000000000000000000000000000000008152fd5b612bbf565b60246040517fcd786059000000000000000000000000000000000000000000000000000000008152306004820152fd5b600260035414612c36576002600355565b60046040517f3ee5aeb5000000000000000000000000000000000000000000000000000000008152fd5b601f8260209493601f19938186528686013760008582860101520116010190565b90612710918281029281840414901517156107be57565b818102929181159184041417156107be57565b612cd9612ccb916040519283916020830195602087526040840191612c60565b03601f19810183528261248e565b51902090565b600093918491811561093d57612cf582826129fd565b60001980820192828411612ed15780612efe575050612d148183612c98565b8260011b907f7fffffffffffffffffffffffffffffffffffffffffffffffffffffffffffffff84168403612ed15760018201809211612ed157612d5d612d649392600692612c98565b0492612c98565b60011c915b655af3107a40009080820291820403612ea45764037e11d6009180830292830403612ea45790612d98916129fd565b6516bcc41e90009180830292830403612e775790612db5916129fd565b93614e20908186029286159287850414831715612e4a57620f4240938490049573ffffffffffffffffffffffffffffffffffffffff1615612e4257506127109182870292878404141715612e15575081900490612e1185612c81565b0491565b807f4e487b7100000000000000000000000000000000000000000000000000000000602492526011600452fd5b925050508291565b6024827f4e487b710000000000000000000000000000000000000000000000000000000081526011600452fd5b6024867f4e487b710000000000000000000000000000000000000000000000000000000081526011600452fd5b6024877f4e487b710000000000000000000000000000000000000000000000000000000081526011600452fd5b6024897f4e487b710000000000000000000000000000000000000000000000000000000081526011600452fd5b9091612f0a8185612c98565b8460011b7f7fffffffffffffffffffffffffffffffffffffffffffffffffffffffffffffff918287168703612faf5760018201809211612faf57600691612f5091612c98565b049084840194848611612faf57612f678587612c98565b908560011b9286168603612fdc578201918211612faf5792612f9a612fa9969593600661090e612fa09561092e98612c98565b96612c98565b60011c92612c98565b91612d69565b60248c7f4e487b710000000000000000000000000000000000000000000000000000000081526011600452fd5b60248d7f4e487b710000000000000000000000000000000000000000000000000000000081526011600452fd5b801561308f57808060011461308857600214613082576001908161013382101682600b8310161761307a57906002815b808211613051575050816000190481116107be570290565b9092806000190481116107be57818416613071575b800292811c90613039565b80920291613066565b600291500a90565b50600490565b5050600190565b50600090565b61309e81613009565b9064037e11d60091808302928304036107be57655af3107a40009182018092116107be576516bcc41e900090808202918204036107be576127f1916129fd56fea2646970667358221220241c7cf82aca6262992e28decaa1f4452d77108c986ff62f85354605dd5c4ea964736f6c634300081400332f8788117e7eff1d82e926ec794901d17c78024a50270940304540a733656f0d",
  "devdoc": {
    "details": "Users can spend these credits for ad purposes.",
    "errors": {
      "AccessControlBadConfirmation()": [
        {
          "details": "The caller of a function is not the expected one. NOTE: Don't confuse with {AccessControlUnauthorizedAccount}."
        }
      ],
      "AccessControlEnforcedDefaultAdminDelay(uint48)": [
        {
          "details": "The delay for transferring the default admin delay is enforced and the operation must wait until `schedule`. NOTE: `schedule` can be 0 indicating there's no transfer scheduled."
        }
      ],
      "AccessControlEnforcedDefaultAdminRules()": [
        {
          "details": "At least one of the following rules was violated: - The `DEFAULT_ADMIN_ROLE` must only be managed by itself. - The `DEFAULT_ADMIN_ROLE` must only be held by one account at the time. - Any `DEFAULT_ADMIN_ROLE` transfer must be in two delayed steps."
        }
      ],
      "AccessControlInvalidDefaultAdmin(address)": [
        {
          "details": "The new default admin is not a valid default admin."
        }
      ],
      "AccessControlUnauthorizedAccount(address,bytes32)": [
        {
          "details": "The `account` is missing a role."
        }
      ],
      "AddressInsufficientBalance(address)": [
        {
          "details": "The ETH balance of the account is not enough to perform the operation."
        }
      ],
      "FailedInnerCall()": [
        {
          "details": "A call to an address target failed. The target may have reverted."
        }
      ],
      "ReentrancyGuardReentrantCall()": [
        {
          "details": "Unauthorized reentrant call."
        }
      ],
      "SafeCastOverflowedUintDowncast(uint8,uint256)": [
        {
          "details": "Value doesn't fit in an uint of `bits` size."
        }
      ]
    },
    "events": {
      "DefaultAdminDelayChangeCanceled()": {
        "details": "Emitted when a {pendingDefaultAdminDelay} is reset if its schedule didn't pass."
      },
      "DefaultAdminDelayChangeScheduled(uint48,uint48)": {
        "details": "Emitted when a {defaultAdminDelay} change is started, setting `newDelay` as the next delay to be applied between default admin transfer after `effectSchedule` has passed."
      },
      "DefaultAdminTransferCanceled()": {
        "details": "Emitted when a {pendingDefaultAdmin} is reset if it was never accepted, regardless of its schedule."
      },
      "DefaultAdminTransferScheduled(address,uint48)": {
        "details": "Emitted when a {defaultAdmin} transfer is started, setting `newAdmin` as the next address to become the {defaultAdmin} by calling {acceptDefaultAdminTransfer} only after `acceptSchedule` passes."
      },
      "RoleAdminChanged(bytes32,bytes32,bytes32)": {
        "details": "Emitted when `newAdminRole` is set as ``role``'s admin role, replacing `previousAdminRole` `DEFAULT_ADMIN_ROLE` is the starting admin for all roles, despite {RoleAdminChanged} not being emitted signaling this."
      },
      "RoleGranted(bytes32,address,address)": {
        "details": "Emitted when `account` is granted `role`. `sender` is the account that originated the contract call, an admin role bearer except when using {AccessControl-_setupRole}."
      },
      "RoleRevoked(bytes32,address,address)": {
        "details": "Emitted when `account` is revoked `role`. `sender` is the account that originated the contract call:   - if using `revokeRole`, it is the admin role bearer   - if using `renounceRole`, it is the role bearer (i.e. `account`)"
      }
    },
    "kind": "dev",
    "methods": {
      "acceptDefaultAdminTransfer()": {
        "details": "Completes a {defaultAdmin} transfer previously started with {beginDefaultAdminTransfer}. After calling the function: - `DEFAULT_ADMIN_ROLE` should be granted to the caller. - `DEFAULT_ADMIN_ROLE` should be revoked from the previous holder. - {pendingDefaultAdmin} should be reset to zero values. Requirements: - Only can be called by the {pendingDefaultAdmin}'s `newAdmin`. - The {pendingDefaultAdmin}'s `acceptSchedule` should've passed."
      },
      "beginDefaultAdminTransfer(address)": {
        "details": "Starts a {defaultAdmin} transfer by setting a {pendingDefaultAdmin} scheduled for acceptance after the current timestamp plus a {defaultAdminDelay}. Requirements: - Only can be called by the current {defaultAdmin}. Emits a DefaultAdminRoleChangeStarted event."
      },
      "buyCredits(string,uint256,address)": {
        "details": "Users must send sufficient Ether to cover the cost and fees.",
        "params": {
          "amount": "The amount of credits to buy.",
          "referrer": "The address of the referrer (optional).",
          "visibilityId": "The ID representing the visibility credits."
        }
      },
      "cancelDefaultAdminTransfer()": {
        "details": "Cancels a {defaultAdmin} transfer previously started with {beginDefaultAdminTransfer}. A {pendingDefaultAdmin} not yet accepted can also be cancelled with this function. Requirements: - Only can be called by the current {defaultAdmin}. May emit a DefaultAdminTransferCanceled event."
      },
      "changeDefaultAdminDelay(uint48)": {
        "details": "Initiates a {defaultAdminDelay} update by setting a {pendingDefaultAdminDelay} scheduled for getting into effect after the current timestamp plus a {defaultAdminDelay}. This function guarantees that any call to {beginDefaultAdminTransfer} done between the timestamp this method is called and the {pendingDefaultAdminDelay} effect schedule will use the current {defaultAdminDelay} set before calling. The {pendingDefaultAdminDelay}'s effect schedule is defined in a way that waiting until the schedule and then calling {beginDefaultAdminTransfer} with the new delay will take at least the same as another {defaultAdmin} complete transfer (including acceptance). The schedule is designed for two scenarios: - When the delay is changed for a larger one the schedule is `block.timestamp + newDelay` capped by {defaultAdminDelayIncreaseWait}. - When the delay is changed for a shorter one, the schedule is `block.timestamp + (current delay - new delay)`. A {pendingDefaultAdminDelay} that never got into effect will be canceled in favor of a new scheduled change. Requirements: - Only can be called by the current {defaultAdmin}. Emits a DefaultAdminDelayChangeScheduled event and may emit a DefaultAdminDelayChangeCanceled event."
      },
      "claimCreatorFee(string)": {
        "params": {
          "visibilityId": "The ID representing the visibility credits."
        }
      },
      "defaultAdmin()": {
        "details": "Returns the address of the current `DEFAULT_ADMIN_ROLE` holder."
      },
      "defaultAdminDelay()": {
        "details": "Returns the delay required to schedule the acceptance of a {defaultAdmin} transfer started. This delay will be added to the current timestamp when calling {beginDefaultAdminTransfer} to set the acceptance schedule. NOTE: If a delay change has been scheduled, it will take effect as soon as the schedule passes, making this function returns the new delay. See {changeDefaultAdminDelay}."
      },
      "defaultAdminDelayIncreaseWait()": {
        "details": "Maximum time in seconds for an increase to {defaultAdminDelay} (that is scheduled using {changeDefaultAdminDelay}) to take effect. Default to 5 days. When the {defaultAdminDelay} is scheduled to be increased, it goes into effect after the new delay has passed with the purpose of giving enough time for reverting any accidental change (i.e. using milliseconds instead of seconds) that may lock the contract. However, to avoid excessive schedules, the wait is capped by this function and it can be overrode for a custom {defaultAdminDelay} increase scheduling. IMPORTANT: Make sure to add a reasonable amount of time while overriding this value, otherwise, there's a risk of setting a high new delay that goes into effect almost immediately without the possibility of human intervention in the case of an input error (eg. set milliseconds instead of seconds)."
      },
      "getRoleAdmin(bytes32)": {
        "details": "Returns the admin role that controls `role`. See {grantRole} and {revokeRole}. To change a role's admin, use {_setRoleAdmin}."
      },
      "grantRole(bytes32,address)": {
        "details": "See {AccessControl-grantRole}. Reverts for `DEFAULT_ADMIN_ROLE`."
      },
      "hasRole(bytes32,address)": {
        "details": "Returns `true` if `account` has been granted `role`."
      },
      "owner()": {
        "details": "See {IERC5313-owner}."
      },
      "pendingDefaultAdmin()": {
        "details": "Returns a tuple of a `newAdmin` and an accept schedule. After the `schedule` passes, the `newAdmin` will be able to accept the {defaultAdmin} role by calling {acceptDefaultAdminTransfer}, completing the role transfer. A zero value only in `acceptSchedule` indicates no pending admin transfer. NOTE: A zero address `newAdmin` means that {defaultAdmin} is being renounced."
      },
      "pendingDefaultAdminDelay()": {
        "details": "Returns a tuple of `newDelay` and an effect schedule. After the `schedule` passes, the `newDelay` will get into effect immediately for every new {defaultAdmin} transfer started with {beginDefaultAdminTransfer}. A zero value only in `effectSchedule` indicates no pending delay change. NOTE: A zero value only for `newDelay` means that the next {defaultAdminDelay} will be zero after the effect schedule."
      },
      "renounceRole(bytes32,address)": {
        "details": "See {AccessControl-renounceRole}. For the `DEFAULT_ADMIN_ROLE`, it only allows renouncing in two steps by first calling {beginDefaultAdminTransfer} to the `address(0)`, so it's required that the {pendingDefaultAdmin} schedule has also passed when calling this function. After its execution, it will not be possible to call `onlyRole(DEFAULT_ADMIN_ROLE)` functions. NOTE: Renouncing `DEFAULT_ADMIN_ROLE` will leave the contract without a {defaultAdmin}, thereby disabling any functionality that is only available for it, and the possibility of reassigning a non-administrated role."
      },
      "revokeRole(bytes32,address)": {
        "details": "See {AccessControl-revokeRole}. Reverts for `DEFAULT_ADMIN_ROLE`."
      },
      "rollbackDefaultAdminDelay()": {
        "details": "Cancels a scheduled {defaultAdminDelay} change. Requirements: - Only can be called by the current {defaultAdmin}. May emit a DefaultAdminDelayChangeCanceled event."
      },
      "sellCredits(string,uint256,address)": {
        "details": "Users receive Ether minus applicable fees.",
        "params": {
          "amount": "The amount of credits to sell.",
          "referrer": "The address of the referrer (optional).",
          "visibilityId": "The ID representing the visibility credits."
        }
      },
      "setCreatorVisibility(string,address)": {
        "details": "Only callable by an account with the `CREATORS_CHECKER_ROLE`.",
        "params": {
          "creator": "The address of the creator, can be address(0).",
          "visibilityId": "The ID representing the visibility credits."
        }
      },
      "supportsInterface(bytes4)": {
        "details": "See {IERC165-supportsInterface}."
      },
      "transferCredits(string,address,address,uint256)": {
        "details": "Only callable by an account with the `CREDITS_TRANSFER_ROLE`.",
        "params": {
          "amount": "The amount of credits to transfer.",
          "from": "The address to transfer credits from.",
          "to": "The address to transfer credits to.",
          "visibilityId": "The ID representing the visibility credits."
        }
      },
      "updateTreasury(address)": {
        "details": "Only callable by an account with the `DEFAULT_ADMIN_ROLE`.",
        "params": {
          "treasury": "The address of the new protocol treasury (cannot be address(0))."
        }
      }
    },
    "stateVariables": {
      "A": {
        "details": "The bonding curve is defined by the formula:        PRICE = BASE_PRICE + A * totalSupply^2 + B * totalSupply      - BASE_PRICE: The initial price when totalSupply is zero.      - A, B: Constants that determine the curvature of the price function."
      }
    },
    "title": "VisibilityCredits",
    "version": 1
  },
  "userdoc": {
    "kind": "user",
    "methods": {
      "A()": {
        "notice": "Users can purchase and sell visibility credits according to a bonding curve."
      },
      "FEE_DENOMINATOR()": {
        "notice": "Fee percentages in ppm (parts per million)."
      },
      "buyCredits(string,uint256,address)": {
        "notice": "Buys a specified amount of visibility credits."
      },
      "claimCreatorFee(string)": {
        "notice": "Allows creators to claim their accumulated fees."
      },
      "sellCredits(string,uint256,address)": {
        "notice": "Sells a specified amount of visibility credits."
      },
      "setCreatorVisibility(string,address)": {
        "notice": "Sets the creator for a specific visibility ID."
      },
      "transferCredits(string,address,address,uint256)": {
        "notice": "Transfers visibility credits between users."
      },
      "updateTreasury(address)": {
        "notice": "Updates the protocol treasury address."
      }
    },
    "notice": "Allows users to buy and sell visibility credits along a bonding curve.",
    "version": 1
  },
  "storageLayout": {
    "storage": [
      {
        "astId": 26,
        "contract": "contracts/VisibilityCredits.sol:VisibilityCredits",
        "label": "_roles",
        "offset": 0,
        "slot": "0",
        "type": "t_mapping(t_bytes32,t_struct(RoleData)21_storage)"
      },
      {
        "astId": 400,
        "contract": "contracts/VisibilityCredits.sol:VisibilityCredits",
        "label": "_pendingDefaultAdmin",
        "offset": 0,
        "slot": "1",
        "type": "t_address"
      },
      {
        "astId": 402,
        "contract": "contracts/VisibilityCredits.sol:VisibilityCredits",
        "label": "_pendingDefaultAdminSchedule",
        "offset": 20,
        "slot": "1",
        "type": "t_uint48"
      },
      {
        "astId": 404,
        "contract": "contracts/VisibilityCredits.sol:VisibilityCredits",
        "label": "_currentDelay",
        "offset": 26,
        "slot": "1",
        "type": "t_uint48"
      },
      {
        "astId": 406,
        "contract": "contracts/VisibilityCredits.sol:VisibilityCredits",
        "label": "_currentDefaultAdmin",
        "offset": 0,
        "slot": "2",
        "type": "t_address"
      },
      {
        "astId": 408,
        "contract": "contracts/VisibilityCredits.sol:VisibilityCredits",
        "label": "_pendingDelay",
        "offset": 20,
        "slot": "2",
        "type": "t_uint48"
      },
      {
        "astId": 410,
        "contract": "contracts/VisibilityCredits.sol:VisibilityCredits",
        "label": "_pendingDelaySchedule",
        "offset": 26,
        "slot": "2",
        "type": "t_uint48"
      },
      {
        "astId": 1498,
        "contract": "contracts/VisibilityCredits.sol:VisibilityCredits",
        "label": "_status",
        "offset": 0,
        "slot": "3",
        "type": "t_uint256"
      },
      {
        "astId": 4467,
        "contract": "contracts/VisibilityCredits.sol:VisibilityCredits",
        "label": "protocolTreasury",
        "offset": 0,
        "slot": "4",
        "type": "t_address_payable"
      },
      {
        "astId": 4472,
        "contract": "contracts/VisibilityCredits.sol:VisibilityCredits",
        "label": "visibilityCredits",
        "offset": 0,
        "slot": "5",
        "type": "t_mapping(t_bytes32,t_struct(Visibility)4425_storage)"
      },
      {
        "astId": 4476,
        "contract": "contracts/VisibilityCredits.sol:VisibilityCredits",
        "label": "creators",
        "offset": 0,
        "slot": "6",
        "type": "t_mapping(t_address,t_string_storage)"
      },
      {
        "astId": 4478,
        "contract": "contracts/VisibilityCredits.sol:VisibilityCredits",
        "label": "tradesNonce",
        "offset": 0,
        "slot": "7",
        "type": "t_uint256"
      },
      {
        "astId": 4483,
        "contract": "contracts/VisibilityCredits.sol:VisibilityCredits",
        "label": "trades",
        "offset": 0,
        "slot": "8",
        "type": "t_mapping(t_uint256,t_struct(CreditsTradeEvent)6485_storage)"
      }
    ],
    "types": {
      "t_address": {
        "encoding": "inplace",
        "label": "address",
        "numberOfBytes": "20"
      },
      "t_address_payable": {
        "encoding": "inplace",
        "label": "address payable",
        "numberOfBytes": "20"
      },
      "t_bool": {
        "encoding": "inplace",
        "label": "bool",
        "numberOfBytes": "1"
      },
      "t_bytes32": {
        "encoding": "inplace",
        "label": "bytes32",
        "numberOfBytes": "32"
      },
      "t_mapping(t_address,t_bool)": {
        "encoding": "mapping",
        "key": "t_address",
        "label": "mapping(address => bool)",
        "numberOfBytes": "32",
        "value": "t_bool"
      },
      "t_mapping(t_address,t_string_storage)": {
        "encoding": "mapping",
        "key": "t_address",
        "label": "mapping(address => string)",
        "numberOfBytes": "32",
        "value": "t_string_storage"
      },
      "t_mapping(t_address,t_uint256)": {
        "encoding": "mapping",
        "key": "t_address",
        "label": "mapping(address => uint256)",
        "numberOfBytes": "32",
        "value": "t_uint256"
      },
      "t_mapping(t_bytes32,t_struct(RoleData)21_storage)": {
        "encoding": "mapping",
        "key": "t_bytes32",
        "label": "mapping(bytes32 => struct AccessControl.RoleData)",
        "numberOfBytes": "32",
        "value": "t_struct(RoleData)21_storage"
      },
      "t_mapping(t_bytes32,t_struct(Visibility)4425_storage)": {
        "encoding": "mapping",
        "key": "t_bytes32",
        "label": "mapping(bytes32 => struct VisibilityCredits.Visibility)",
        "numberOfBytes": "32",
        "value": "t_struct(Visibility)4425_storage"
      },
      "t_mapping(t_uint256,t_struct(CreditsTradeEvent)6485_storage)": {
        "encoding": "mapping",
        "key": "t_uint256",
        "label": "mapping(uint256 => struct IVisibilityCredits.CreditsTradeEvent)",
        "numberOfBytes": "32",
        "value": "t_struct(CreditsTradeEvent)6485_storage"
      },
      "t_string_storage": {
        "encoding": "bytes",
        "label": "string",
        "numberOfBytes": "32"
      },
      "t_struct(CreditsTradeEvent)6485_storage": {
        "encoding": "inplace",
        "label": "struct IVisibilityCredits.CreditsTradeEvent",
        "members": [
          {
            "astId": 6464,
            "contract": "contracts/VisibilityCredits.sol:VisibilityCredits",
            "label": "from",
            "offset": 0,
            "slot": "0",
            "type": "t_address"
          },
          {
            "astId": 6466,
            "contract": "contracts/VisibilityCredits.sol:VisibilityCredits",
            "label": "visibilityId",
            "offset": 0,
            "slot": "1",
            "type": "t_string_storage"
          },
          {
            "astId": 6468,
            "contract": "contracts/VisibilityCredits.sol:VisibilityCredits",
            "label": "amount",
            "offset": 0,
            "slot": "2",
            "type": "t_uint256"
          },
          {
            "astId": 6470,
            "contract": "contracts/VisibilityCredits.sol:VisibilityCredits",
            "label": "isBuy",
            "offset": 0,
            "slot": "3",
            "type": "t_bool"
          },
          {
            "astId": 6472,
            "contract": "contracts/VisibilityCredits.sol:VisibilityCredits",
            "label": "tradeCost",
            "offset": 0,
            "slot": "4",
            "type": "t_uint256"
          },
          {
            "astId": 6474,
            "contract": "contracts/VisibilityCredits.sol:VisibilityCredits",
            "label": "creatorFee",
            "offset": 0,
            "slot": "5",
            "type": "t_uint256"
          },
          {
            "astId": 6476,
            "contract": "contracts/VisibilityCredits.sol:VisibilityCredits",
            "label": "protocolFee",
            "offset": 0,
            "slot": "6",
            "type": "t_uint256"
          },
          {
            "astId": 6478,
            "contract": "contracts/VisibilityCredits.sol:VisibilityCredits",
            "label": "referrerFee",
            "offset": 0,
            "slot": "7",
            "type": "t_uint256"
          },
          {
            "astId": 6480,
            "contract": "contracts/VisibilityCredits.sol:VisibilityCredits",
            "label": "referrer",
            "offset": 0,
            "slot": "8",
            "type": "t_address"
          },
          {
            "astId": 6482,
            "contract": "contracts/VisibilityCredits.sol:VisibilityCredits",
            "label": "newTotalSupply",
            "offset": 0,
            "slot": "9",
            "type": "t_uint256"
          },
          {
            "astId": 6484,
            "contract": "contracts/VisibilityCredits.sol:VisibilityCredits",
            "label": "newCurrentPrice",
            "offset": 0,
            "slot": "10",
            "type": "t_uint256"
          }
        ],
        "numberOfBytes": "352"
      },
      "t_struct(RoleData)21_storage": {
        "encoding": "inplace",
        "label": "struct AccessControl.RoleData",
        "members": [
          {
            "astId": 18,
            "contract": "contracts/VisibilityCredits.sol:VisibilityCredits",
            "label": "hasRole",
            "offset": 0,
            "slot": "0",
            "type": "t_mapping(t_address,t_bool)"
          },
          {
            "astId": 20,
            "contract": "contracts/VisibilityCredits.sol:VisibilityCredits",
            "label": "adminRole",
            "offset": 0,
            "slot": "1",
            "type": "t_bytes32"
          }
        ],
        "numberOfBytes": "64"
      },
      "t_struct(Visibility)4425_storage": {
        "encoding": "inplace",
        "label": "struct VisibilityCredits.Visibility",
        "members": [
          {
            "astId": 4416,
            "contract": "contracts/VisibilityCredits.sol:VisibilityCredits",
            "label": "creator",
            "offset": 0,
            "slot": "0",
            "type": "t_address"
          },
          {
            "astId": 4418,
            "contract": "contracts/VisibilityCredits.sol:VisibilityCredits",
            "label": "totalSupply",
            "offset": 0,
            "slot": "1",
            "type": "t_uint256"
          },
          {
            "astId": 4420,
            "contract": "contracts/VisibilityCredits.sol:VisibilityCredits",
            "label": "claimableFeeBalance",
            "offset": 0,
            "slot": "2",
            "type": "t_uint256"
          },
          {
            "astId": 4424,
            "contract": "contracts/VisibilityCredits.sol:VisibilityCredits",
            "label": "creditBalances",
            "offset": 0,
            "slot": "3",
            "type": "t_mapping(t_address,t_uint256)"
          }
        ],
        "numberOfBytes": "128"
      },
      "t_uint256": {
        "encoding": "inplace",
        "label": "uint256",
        "numberOfBytes": "32"
      },
      "t_uint48": {
        "encoding": "inplace",
        "label": "uint48",
        "numberOfBytes": "6"
      }
    }
  }
}